:100000000C94B6020C94DE020C94DE020C94DE0218
:100010000C94DE020C94DE020C94DE020C94DE02E0
:100020000C94DE020C94DE020C94DE020C94DE02D0
:100030000C94DE020C94DE020C94DE020C94DE02C0
:100040000C94C7060C94DE020C9498070C9472076B
:100050000C94DE020C94DE020C94DE020C94DE02A0
:100060000C940F0C0C94DE020A09416374756174E0
:100070006F72206C6973742E2E2E2E2E2E2E2E2E25
:100080003A20000A0953656E736F72206C697374AD
:100090002E2E2E2E2E2E2E2E2E2E2E3A20000A09F9
:1000A0004669726D776172652076657273696F6EED
:1000B0002E2E2E2E2E2E3A20000A09436F6D6D75BE
:1000C0006E69636174696F6E206465766963652E1D
:1000D0002E3A20000A094D43552064657669636510
:1000E00020626F6172642E2E2E2E2E2E3A20005327
:1000F00074617274696E67204154532D30312E2E15
:100100002E002323232323232323232323232323D7
:1001100023232323232323232323232323232323AF
:100120002323232323232323232323230A002320DE
:10013000202020202020204167726F546563684C86
:1001400061622028494653432F4C6167657329201B
:1001500020202020202020230A0023202020416767
:10016000726F546563682053746174696F6E2030D8
:1001700031202854696E792076657273696F6E2913
:10018000202020230A00232020202020202020209F
:10019000202020202020204154532D3031202020A9
:1001A000202020202020202020202020202020234C
:1001B0000A000A2323232323232323232323232364
:1001C00023232323232323232323232323232323FF
:1001D000232323232323232323232323230A005BF3
:1001E0004248313735305D204552524F523A2075E2
:1001F0006E646566696E6564206572726F72005B1D
:100200004248313735305D204552524F523A206FC7
:1002100074686572206572726F72005B4248313794
:1002200035305D204552524F523A20726563656900
:10023000766564204E41434B206F6E207472616E70
:10024000736D6974206F662064617461005B42485D
:10025000313735305D204552524F523A2072656336
:100260006569766564204E41434B206F6E20747241
:10027000616E736D6974206F66206164647265736A
:1002800073005B4248313735305D204552524F5242
:100290003A20746F6F206C6F6E6720666F722074E7
:1002A00072616E736D697420627566666572005B5B
:1002B0004248313735305D204552524F523A207511
:1002C0006E646566696E6564206572726F72005B4C
:1002D0004248313735305D204552524F523A206FF7
:1002E00074686572206572726F72005B42483137C4
:1002F00035305D204552524F523A20726563656930
:10030000766564204E41434B206F6E207472616E9F
:10031000736D6974206F662064617461005B42488C
:10032000313735305D204552524F523A2072656365
:100330006569766564204E41434B206F6E20747270
:10034000616E736D6974206F662061646472657399
:1003500073005B4248313735305D204552524F5271
:100360003A20746F6F206C6F6E6720666F72207416
:1003700072616E736D697420627566666572005B8A
:100380004F4B5D000A09496E697469616C697A694D
:100390006E67206C696768742073656E736F722E68
:1003A0002E2E20005B4F4B5D000A09496E6974696F
:1003B000616C697A696E67204448542073656E7376
:1003C0006F722E2E2E20000A094572726F722072F3
:1003D000656164696E67206169722074656D70651E
:1003E000726174757265212121000A0941697220C8
:1003F00074656D70657261747572652028696E2010
:100400006F43293A20000A094572726F72207265A3
:100410006164696E67206169722068756D696469DD
:100420007479212121000A094169722068756D697A
:10043000646974792028696E2025293A20005B427E
:1004400048313735305D20446576696365206973CE
:10045000206E6F7420636F6E6669677572656421C4
:10046000000A094572726F722072656164696E6775
:10047000206C69676874206C6576656C21212100A9
:100480000A094C756D696E6F736974792028696EFD
:10049000204C5558293A20000A094572726F722083
:1004A00072656164696E6720555620726164696186
:1004B00074696F6E20696E646578212121000A09D4
:1004C000555620726164696174696F6E2028696E87
:1004D00020555620696E646578293A20000A094241
:1004E00061747465727920766F6C74616765202819
:1004F000696E2056293A20000A52656164696E6768
:100500002073656E736F72732E2E2E2E0000000006
:1005100000240027002A0000000000250028002BEE
:1005200000000000080002010000030407000000B2
:100530000000000000000000002300260029000445
:10054000040404040404040202020202020303037A
:100550000303030102040810204080010204081074
:100560002001020408102000C613961311241FBE98
:10057000CFEFD8E0DEBFCDBF24E0A2E9B2E001C0FA
:100580001D92AA3DB207E1F712E0A0E0B1E0EAE86F
:10059000F2E302C005900D92A239B107D9F712E03B
:1005A000C5EBD2E004C02197FE010E940F16C43BA8
:1005B000D107C9F70E94790E0C9438190C940000E9
:1005C0008E3008F08E508770806480937C0080911C
:1005D0007A00806480937A0080917A0086FDFCCF57
:1005E000809178002091790090E0922B0895CF922D
:1005F000DF92EF92FF920F931F93CF93DF936C01E3
:100600007A018B01C0E0D0E0CE15DF0581F0D80182
:100610006D918D01D601ED91FC910190F081E02D5D
:10062000C6010995892B11F02196EECF7E01C701F5
:10063000DF91CF911F910F91FF90EF90DF90CF90BE
:100640000895089580E090E00895FC01538D448D55
:10065000252F30E0842F90E0821B930B541710F06D
:10066000CF96089501970895FC01918D828D98177A
:1006700061F0828DDF01A80FB11D5D968C91928D86
:100680009F5F9F73928F90E008958FEF9FEF089583
:10069000FC01918D828D981731F0828DE80FF11D4C
:1006A000858D90E008958FEF9FEF0895FC01918D67
:1006B000228D892F90E0805C9F4F821B91098F7360
:1006C0009927089589E393E00E94560321E0892B3E
:1006D00009F420E0822F0895FC01848DDF01A80F2A
:1006E000B11DA35ABF4F2C91848D90E001968F735A
:1006F0009927848FA689B7892C93A089B1898C9179
:10070000837080648C93938D848D981306C00288C7
:10071000F389E02D80818F7D80830895EF92FF9291
:100720000F931F93CF93DF93EC0181E0888F9B8D14
:100730008C8D981305C0E889F989808185FD26C0D4
:10074000F62E0B8D10E00F5F1F4F0F731127E02E59
:100750008C8DE8120CC00FB607FCFACFE889F98936
:10076000808185FFF5CFCE010E946C03F1CF8B8D88
:10077000FE01E80FF11DE35AFF4FF0829FB7F89496
:100780000B8FEA89FB89808180620AC09FB7F89449
:10079000EE89FF896083E889F989808183708064AC
:1007A00080839FBF81E090E0DF91CF911F910F91F7
:1007B000FF90EF900895CF93DF93EC01888D88230D
:1007C000C9F0EA89FB89808185FD05C0A889B989BE
:1007D0008C9186FD0FC00FB607FCF5CF808185FF99
:1007E000F2CFA889B9898C9185FFEDCFCE010E9407
:1007F0006C03E7CFDF91CF91089580E090E0892BE3
:1008000029F00E94620381110C940000089508955C
:100810000E941419FC0180819181009711F00C94C1
:10082000C51708950C94C5170C94C5170F931F9303
:10083000CF93DF938C01EB0188E2DB011D928A9557
:10084000E9F7F801838194810E94320A81E090E007
:10085000A0E0B0E08C879D87AE87BF87F8018581D7
:100860009681A781B085888B998BAA8BBB8B8CE0F6
:1008700090E0A0E0B0E08C8B9D8BAE8BBF8BBE0177
:10088000838194810E941B0AD8011396ED91FC91FB
:10089000149783898C3069F038F48B30A1F580E0AF
:1008A00090E0A0EAB2E409C08531C1F08631B1F030
:1008B0002AC080E090E0AEEBB2E4888F998FAA8FD7
:1008C000BB8F80E090E0A0EAB1E48C8F9D8FAE8F6B
:1008D000BF8F80E090E0A0EAB0E410C080E090E03C
:1008E000A8ECB2E4888F998FAA8FBB8F1C8E1D8EC7
:1008F0001E8E1F8E8DEC9CECACECBDE388A399A3FF
:10090000AAA3BBA30CC0188E198E1A8E1B8E1C8E28
:100910001D8E1E8E1F8E18A219A21AA21BA2DF9175
:10092000CF911F910F9108950F931F93CF93DF9352
:100930008C01EB0188E2DB011D928A95E9F7F80151
:10094000838194810E94320A81E090E0A0E0B0E0CF
:100950008C879D87AE87BF87F80185819681A781A7
:10096000B085888B998BAA8BBB8B8DE090E0A0E043
:10097000B0E08C8B9D8BAE8BBF8BBE01838194814D
:100980000E941B0AD8011396ED91FC91149783895C
:100990008C30F1F0A0F48B3009F048C080E090E09A
:1009A000A8E4B2E4888F998FAA8FBB8F1C8E1D8E0E
:1009B0001E8E1F8E80E090E0A0E0B0E432C0853152
:1009C000E1F0863199F580E090E0AAEFB2E419C039
:1009D00080E090E0A0E7B2E4888F998FAA8FBB8F68
:1009E00080E090E0A0EAB1EC8C8F9D8FAE8FBF8F3E
:1009F00080E090E0A0E0BFE314C080E090E0A0EAD7
:100A0000B2E4888F998FAA8FBB8F80E090E0A0E23C
:100A1000B2EC8C8F9D8FAE8FBF8F8DEC9CECACECCD
:100A2000BDE388A399A3AAA3BBA30CC0188E198EFB
:100A30001A8E1B8E1C8E1D8E1E8E1F8E18A219A242
:100A40001AA21BA2DF91CF911F910F9108953FB77A
:100A5000F8948091E3029091E402A091E502B091B4
:100A6000E60226B5A89B05C02F3F19F00196A11DEF
:100A7000B11D3FBFBA2FA92F982F8827820F911D34
:100A8000A11DB11DBC01CD0142E0660F771F881F7B
:100A9000991F4A95D1F708958F929F92AF92BF9276
:100AA000CF92DF92EF92FF926B017C010E942705AB
:100AB0004B015C01C114D104E104F104F1F00E9486
:100AC0002705DC01CB0188199909AA09BB09883ED1
:100AD0009340A105B10570F321E0C21AD108E108E5
:100AE000F10888EE880E83E0981EA11CB11CC11489
:100AF000D104E104F10419F7DDCFFF90EF90DF900E
:100B0000CF90BF90AF909F908F9008952FB7F8949B
:100B10006091DF027091E0028091E1029091E20227
:100B20002FBF0895CF92DF92EF92FF920F931F9302
:100B3000CF93DF938C01EB0184E2FB0111928A9544
:100B4000E9F784E290E0A0E0B0E088839983AA838B
:100B5000BB83F80185819681A781B0858C839D83B5
:100B6000AE83BF838CE090E0A0E0B0E088879987F7
:100B7000AA87BB870E948605688B798B8A8B9B8BA3
:100B8000F80103811481C8010E94750D8823B9F111
:100B9000F80186818B3098F18D30A0F0855182303C
:100BA00070F5F8016081718176276727762780E0EC
:100BB00090E00E9497142DEC3CEC4CEC5DE30E941D
:100BC000F81421C0F801618170E080E090E00E949B
:100BD00099142DEC3CEC4CEC5DE30E94F8146B0195
:100BE0007C01F801608170E080E090E00E9499143F
:100BF0009B01AC01C701B6010E94161604C060E05B
:100C000070E080EC9FE76C8B7D8B8E8B9F8B81E0FF
:100C1000DF91CF911F910F91FF90EF90DF90CF90D8
:100C200008958F929F92AF92BF92EF92FF921F937F
:100C3000CF93DF937C01EB0184E2FB0111928A9553
:100C4000E9F784E290E0A0E0B0E088839983AA838A
:100C5000BB83F70185819681A781B0858C839D83B5
:100C6000AE83BF838DE090E0A0E0B0E088879987F5
:100C7000AA87BB870E948605688B798B8A8B9B8BA2
:100C8000F701E380F480C7010E94750D882309F401
:100C90006BC0F70186818C3009F445C018F48B30A5
:100CA000C9F062C08551823008F05EC0F701128140
:100CB000612F6F7770E0762F66278381682B80E045
:100CC00090E00E9497142DEC3CEC4CEC5DE30E940C
:100CD000F81446C0F701628170E080E090E00E9465
:100CE00097144B015C01F701138117FF0AC09B01A8
:100CF000AC0160E070E080E89FEB0E9415164B01AC
:100D00005C01612F6F7070E080E090E00E949914A8
:100D10002DEC3CEC4CEC5DE30E94F814A501940131
:100D20000E94161625C0F701128163816F7070E072
:100D300080E090E00E9499142DEC3CEC4CEC5DE3DB
:100D40000E94F8144B015C01612F70E080E090E09C
:100D50000E9497149B01AC01C501B4010E941616B4
:100D600017FF06C0905804C060E070E080EC9FE779
:100D70006C8B7D8B8E8B9F8B81E0DF91CF911F9150
:100D8000FF90EF90BF90AF909F908F9008951F922B
:100D90000F920FB60F9211242F933F938F939F932F
:100DA000AF93BF938091DF029091E002A091E102A6
:100DB000B091E2023091DE0223E0230F2D3720F4C0
:100DC0000196A11DB11D05C026E8230F0296A11DA5
:100DD000B11D2093DE028093DF029093E002A09386
:100DE000E102B093E2028091E3029091E402A091CB
:100DF000E502B091E6020196A11DB11D8093E302C8
:100E00009093E402A093E502B093E602BF91AF9104
:100E10009F918F913F912F910F900FBE0F901F9038
:100E20001895EF92FF920F931F93CF93DF93EC01EE
:100E30007B018A0188819981009729F02A813B8171
:100E400024173507F8F4B8016F5F7F4F0E944E18E2
:100E5000009759F0998388831B830A832C813D81F5
:100E6000232B81F4FC0110820DC0888199810097A9
:100E700011F00E94C517198218821D821C821B82E4
:100E80001A8207C01D830C83B701888199810E9453
:100E90002219CE01DF91CF911F910F91FF90EF901A
:100EA0000895CF93DF93EC016115710559F0FB01B3
:100EB00001900020E9F73197AF01461B570B0E94C4
:100EC00011070CC088819981009711F00E94C51705
:100ED000198218821D821C821B821A82CE01DF9128
:100EE000CF9108951F920F920FB60F9211242F9356
:100EF0003F934F935F936F937F938F939F93AF93A2
:100F0000BF93EF93FF9389E393E00E946C03FF91FB
:100F1000EF91BF91AF919F918F917F916F915F9171
:100F20004F913F912F910F900FBE0F901F901895EA
:100F30001F920F920FB60F9211242F938F939F93AE
:100F4000EF93FF93E0914903F0914A038081E09190
:100F50004F03F091500382FD12C0908180915203A3
:100F60008F5F8F7320915303821751F0E0915203EA
:100F7000F0E0E75CFC4F958F8093520301C08081C5
:100F8000FF91EF919F918F912F910F900FBE0F9036
:100F90001F90189508950895CF92DF92EF92FF92D7
:100FA0001F93CF93DF93EC011F81662311F0912FE4
:100FB00001C090E0288530E0220F331F2B5C3A4FB0
:100FC000A0E0B0E0F90145915491FA0180818123BC
:100FD000AD0160E070E089130FC01196CD84DE840E
:100FE000EF84F8884C155D056E057F0558F33FEFDB
:100FF0002FEF8FEF9FEF03C03A2F252FCB01632FE9
:10100000722FDF91CF911F91FF90EF90DF90CF90E3
:10101000089540918704262F30E0240F311D21329E
:101020003105DCF420912F032430C9F4FC0180E069
:1010300090E0861758F4309187042191DC01A9597A
:10104000BB4FA30FB11D2C930196F3CF8091870462
:10105000680F6093870480E0089581E0089582E03E
:1010600008950895E091080380910703E81730F48C
:10107000F0E0E951FD4F808190E008958FEF9FEF00
:1010800008959091080380910703981750F4E92F71
:10109000F0E0E951FD4F208130E09F5F909308031D
:1010A00002C02FEF3FEFC90108958091070390E040
:1010B00020910803821B91090895CF92DF92EF924D
:1010C000FF920F931F93CF93DF937C01CB018A0193
:1010D00020913503222389F0EB016B01C40ED51E4C
:1010E000CC15DD0569F06991D701ED91FC91019076
:1010F000F081E02DC7010995F3CF642F0E94090804
:10110000C801DF91CF911F910F91FF90EF90DF9079
:10111000CF900895CF93DF931F92CDB7DEB7698349
:10112000209135032223D1F020913803203240F062
:1011300021E030E0FC013383228380E090E015C0A1
:1011400080913603E82FF0E0E655FB4F99819083BC
:101150008F5F809336038093380305C061E0CE0132
:1011600001960E94090881E090E00F90DF91CF91F5
:101170000895FC011182108213821282158214825A
:1011800040E050E067E672E00C941107009769F0C8
:10119000FC0101900020E9F73197AF01481B590B82
:1011A000BC0189E393E00C94F70280E090E008959D
:1011B0000F931F93CF93DF938C01C0E0D0E0F80131
:1011C000EC0FFD1F6491662341F089E393E00E94D8
:1011D0008E03892B11F02196F2CFCE01DF91CF91B2
:1011E0001F910F910895DC01ED91FC910190F08128
:1011F000E02D0994CF93DF930E94D808EC0185E697
:1012000092E00E94C6088C0F9D1FDF91CF91089538
:101210008F929F92AF92BF920F931F93CF93DF93C2
:10122000CDB7DEB7A1970FB6F894DEBF0FBECDBF26
:1012300019A2423008F44AE08E010F5D1F4F842E40
:10124000912CA12CB12CA50194010E94ED15E62F43
:10125000B901CA0101501109EA3014F4E05D01C07E
:10126000E95CD801EC93232B242B252B61F7C801D3
:101270000E94C608A1960FB6F894DEBF0FBECDBF80
:10128000DF91CF911F910F91BF90AF909F908F9062
:1012900008958F929F92AF92BF92CF92DF92EF927A
:1012A000FF920F931F93CF93DF936B017C01142F59
:1012B0009B01AC010E942817882319F088E692E070
:1012C00027C046015701E894B7F82FEF3FEF4FE7EB
:1012D0005FE7C501B4010E94281781110DC02FEFEF
:1012E0003FEF4FE75FE7C501B4010E949214181663
:1012F0001CF48CE692E00CC02FEF3FEF4FE75FE469
:10130000C701B6010E942317181684F480E792E003
:10131000DF91CF911F910F91FF90EF90DF90CF90D1
:10132000BF90AF909F908F900C94C6082FEF3FEF27
:101330004FE75FECC701B6010E94921487FDE6CF2C
:1013400020E030E0A901C701B6010E94921487FF96
:101350000BC06DE289E393E00E948E03EC01F7FA83
:10136000F094F7F8F09402C0C0E0D0E000E060E054
:1013700070E080E09FE3101741F020E030E040E2B1
:1013800051E40E9482160F5FF6CFA70196010E94DA
:1013900016166B017C010E94F4164B015C014AE0B9
:1013A0000E940809C80FD91F1123B9F1C501B40162
:1013B0000E9497149B01AC01C701B6010E9415164B
:1013C0006B017C016EE289E393E00E948E03C80FFB
:1013D000D91F20E030E040E251E4C701B6010E948D
:1013E000F8144B015C010E94F4166B01E12CF12C06
:1013F0004AE0C701B6010E940809C80FD91FC701FA
:10140000B6010E9497149B01AC01C501B4010E9472
:1014100015166B017C011150E1F6CE01DF91CF91E1
:101420001F910F91FF90EF90DF90CF90BF90AF9002
:101430009F908F900895FB01DC0153968C918C3026
:1014400041F038F48B3029F480E492E4AFE0B0E06E
:1014500004C080E894E8AEE1B0E084A395A3A6A31D
:10146000B7A30895CF93DF93EB01FC0183898C3000
:1014700089F038F48B30C1F44BE050E064E772E05F
:1014800017C0853161F0863179F44BE050E066E8B1
:1014900072E00EC04BE050E06AE772E009C04BE03A
:1014A00050E060E872E004C04BE050E06CE872E0AD
:1014B000CE010E9429191B86DF91CF91089590E0FB
:1014C000FC01EF5DFA4F2491FC01ED5AFA4F349183
:1014D000FC01E15CFA4FE491EE2309F43CC02223C5
:1014E00039F1233091F038F42130A9F0223001F5A0
:1014F00084B58F7D12C0273091F02830A1F02430C0
:10150000B9F4809180008F7D03C0809180008F7737
:10151000809380000DC084B58F7784BD09C0809111
:10152000B0008F7703C08091B0008F7D8093B000B2
:10153000F0E0EE0FFF1FE95EFA4FA591B4919FB75F
:10154000F894611104C08C913095382302C0EC915D
:101550003E2B3C939FBF08951F93CF93DF93C1E031
:10156000C0936604882399F1D091B8001091BA0015
:101570008091BC008A7B8093BC0060E082E10E9485
:101580005F0A60E083E10E945F0A10922F03C0931C
:101590002E031092090361E082E10E945F0A61E07C
:1015A00083E10E945F0A8091B9008E7F8093B90029
:1015B0008091B9008D7F8093B90088E48093B80052
:1015C00085E48093BC001093BA00D093B800DF91FB
:1015D000CF911F9108958F929F92AF92BF92CF9219
:1015E000DF92EF92FF920F931F93CF93DF931091AF
:1015F0003803113208F0C2C0D09137030E9427058A
:101600006B017C01C0912F03CC2311F18091310338
:1016100090913203A0913303B0913403892B8A2B2C
:101620008B2B81F30E942705809031039090320329
:10163000A0903303B0903403DC01CB018C199D09D9
:10164000AE09BF0988169906AA06BB06D8F682C05D
:1016500082E080932F0381E080932E038FEF8093AD
:101660002D0310922C0310932B03AAEAB4E0EBE0B5
:10167000F3E080E0181721F09D9191938F5FFACFEE
:1016800010920A0390910A038D2F880F892B809363
:101690000A0380910903813089F5109209030E94A1
:1016A00027056B017C0180910A038093BB00809128
:1016B000310390913203A0913303B0913403892B0D
:1016C0008A2B8B2BA9F00E942705009131031091E2
:1016D00032032091330330913403DC01CB018C19A8
:1016E0009D09AE09BF09081719072A073B0790F1A2
:1016F0008091BC0083FDD7CF85EC01C085EE80933F
:10170000BC000E9427056B017C0180912F03823071
:1017100039F58091310390913203A0913303B09158
:101720003403892B8A2B8B2B81F30E942705009190
:101730003103109132032091330330913403DC01E3
:10174000CB018C199D09AE09BF09081719072A0793
:101750003B07D8F6809130030E94AC0AC5E013C065
:1017600080912D038F3F79F080912D03803241F0DD
:1017700080912D03803331F0C4E005C0C1E003C087
:10178000C2E001C0C3E010923603109238031092F9
:1017900035038C2FDF91CF911F910F91FF90EF9028
:1017A000DF90CF90BF90AF909F908F90089585ED80
:1017B0008093BC008091310390913203A091330358
:1017C000B09134030796A11DB11D23E0B695A795EE
:1017D000979587952A95D1F72091BC0024FF1CC0CE
:1017E000409131035091320360913303709134037F
:1017F000452B462B472B81F30097A105B10541F0FE
:1018000025E32A95F1F700000197A109B109E4CF7A
:10181000809130030C94AC0A10922F0308951F920C
:101820000F920FB60F9211242F933F934F935F9314
:101830006F937F938F939F93AF93BF93EF93FF9398
:101840008091B900887F803609F49CC068F58832A1
:1018500009F45BC090F4803109F454C038F4882353
:1018600009F4F2C0883009F44DC0F2C0883109F49F
:101870004CC0803209F45DC0EBC0803409F468C00C
:1018800048F4803309F455C0883309F0E1C08093EF
:101890002D03D4C0803509F44FC0883509F45DC0EC
:1018A000883409F0D5C0D2C0883909F4C3C0A8F47F
:1018B000883709F467C038F4883609F463C0803784
:1018C00009F460C0C5C0883809F4B4C0803909F48F
:1018D0005FC0803809F0BCC05BC0803B09F484C0A5
:1018E00038F4803A09F466C0883A09F47DC0B0C083
:1018F000803C09F4A3C0883C09F4A0C0883B09F4EB
:1019000086C0A6C080910A0310C090912C038091DC
:101910002B03981770F5E0912C0381E08E0F8093D4
:101920002C03F0E0E55FFC4F80818093BB0085ECE9
:1019300082C080932D038AC0E0912C0381E08E0F3A
:1019400080932C038091BB00F0E0E55FFC4F808327
:1019500090912C0380912B036AC0E0912C0381E0CD
:101960008E0F80932C038091BB00F0E0E55FFC4F6D
:10197000808380912E03811169C081E080930903E7
:1019800084EA5DC083E080932F031092A904CFCF37
:101990008091A904803208F04DC0E091A90481E053
:1019A0008E0F8093A9048091BB00F0E0E757FB4FB6
:1019B0008083BDCF85EC8093BC0010922F03809173
:1019C000A904803230F4E091A904F0E0E757FB4F1E
:1019D00010826091A90470E089E894E0E0E0F0E012
:1019E00009951092A90434C084E080932F031092CB
:1019F000880410928704E0E0F0E009958091870464
:101A0000811105C081E08093870410926704E09102
:101A1000880481E08E0F80938804F0E0E959FB4F41
:101A200080818093BB0090918804809187049817EF
:101A300008F47DCF85E88093BC000AC085EC8093D4
:101A4000BC0010922F0304C010922D030E94D70BEC
:101A5000FF91EF91BF91AF919F918F917F916F9186
:101A60005F914F913F912F910F900FBE0F901F905C
:101A70001895CF93DF9390E0FC01ED5AFA4F249133
:101A8000FC01E15CFA4F8491882361F190E0880FBA
:101A9000991FFC01E35FFA4FC591D491FC01E95E07
:101AA000FA4FA591B491611109C09FB7F89488814C
:101AB000209582238883EC912E230BC0623061F441
:101AC0009FB7F8948881322F309583238883EC91D7
:101AD0002E2B2C939FBF06C08FB7F894E8812E2B36
:101AE00028838FBFDF91CF9108958F929F92AF92FD
:101AF000BF92CF92DF92EF92FF920F931F93CF93FB
:101B0000DF93CDB7DEB7C054D1400FB6F894DEBF37
:101B10000FBECDBF8C010E948605F801C184D2841E
:101B2000E384F4849B01AC012C193D094E095F0943
:101B300069017A0130EDC31637E0D306E104F10400
:101B400010F48189C2C0F801618772878387948706
:101B50001482138212821182108262E085810E94B7
:101B6000390D61E070E080E090E00E944C0561E09A
:101B7000F80185810E94390D60E0F80185810E949D
:101B80005F0AF80186818551823028F48BE291E169
:101B90000197F1F706C064E170E080E090E00E94F8
:101BA0004C0562E0F80185810E94390DF8018289B7
:101BB00090E08230910538F0880F991F880F991FA7
:101BC00005970197F1F7F89460E0C8010E94CC07EF
:101BD0006F3F7F4F8F4F9F4F21F4F801118A789408
:101BE00045C061E0C8010E94CC076F3F7F4F8F4F17
:101BF0009F4F99F39E012F5F3F4F79015E013FEBAD
:101C0000A31A3EEFB30A670160E0C8010E94CC0747
:101C1000F601608371838283938361E0C8010E942F
:101C2000CC07F6016483758386839783F8E0CF0E33
:101C3000D11CCA14DB0441F7789420E030E0F701AE
:101C400080809180A280B3804481558166817781B4
:101C5000FFEF8F169F06AF06BF0631F04F3F8FEFA5
:101C600058076807780721F4F801118A80E02DC031
:101C7000F90183E0F595E7958A95E1F7E00FF11F0B
:101C80008081880F84169506A606B70608F4816041
:101C900080832F5F3F4FF8E0EF0EF11C28323105B3
:101CA00071F6F801248130E04081818190E0840F59
:101CB000911D4281840F911D4381840F911D9927AD
:101CC0002817390789F681E0818BC05CDE4F0FB69B
:101CD000F894DEBF0FBECDBFDF91CF911F910F9162
:101CE000FF90EF90DF90CF90BF90AF909F908F903C
:101CF0000895CF93DF93CDB7DEB729970FB6F89449
:101D0000DEBF0FBECDBF789484B5826084BD84B53C
:101D1000816084BD85B5826085BD85B5816085BDE6
:101D200080916E00816080936E001092810080919E
:101D30008100826080938100809181008160809326
:101D40008100809180008160809380008091B1004B
:101D500084608093B1008091B00081608093B00076
:101D600080917A00846080937A0080917A0082600A
:101D700080937A0080917A00816080937A008091CC
:101D80007A00806880937A001092C10061E08DE053
:101D90000E94390D61E08DE00E945F0AE0914903E5
:101DA000F0914A0382E08083E0914503F09146037D
:101DB0001082E0914703F091480380E18083109204
:101DC0005103E0914D03F0914E0386E08083E09152
:101DD0004B03F0914C03808180618083E0914B0341
:101DE000F0914C03808188608083E0914B03F091F7
:101DF0004C03808180688083E0914B03F0914C0319
:101E000080818F7D808382EB91E00E94D80886E8F4
:101E100091E00E94D8088AE591E00E94D8088EE2FD
:101E200091E00E94D80882E091E00E94D8088FEEED
:101E300090E00E94D80884ED90E00E94D8088CE6DB
:101E400091E00E94C60889EB90E00E94D80881E9E1
:101E500091E00E94C6088EE990E00E94D80881EACD
:101E600091E00E94C60883E890E00E94D80887EAC3
:101E700091E00E94C60888E690E00E94D8088BEBAB
:101E800091E00E94C60889E393E00E94DB0360E0D2
:101E900089E00E94390D89EA93E00E94D80889E31D
:101EA00093E00E94DB0362E0809145040E94390DBB
:101EB0000E948605DC01CB01805D9740A109B10934
:101EC0008093490490934A04A0934B04B0934C042C
:101ED00087E38093520484EA93E00E94D80889E360
:101EE00093E00E94DB0384E893E00E94D80889E332
:101EF00093E00E94DB0383E28093320401E00093CD
:101F00003503809337031092360310923803809183
:101F10003A0490913B04DC01ED91FC910190F08139
:101F2000E02D60E1099580913A0490913B040E9474
:101F3000EB0A182F6AE070E080E090E00E944C0508
:101F4000123009F486C040F4112379F0113009F001
:101F500086C082E593E092C0133009F47DC014304E
:101F600009F07DC08FEC92E089C080E190E0909311
:101F70003904809338040E94860560933C04709372
:101F80003D0480933E0490933F048091320400937B
:101F9000350380933703109236031092380362E4BE
:101FA00070E080913A0490913B040E94F308809184
:101FB0003A0490913B040E94EB0A182F809132045E
:101FC0000093350380933703109236031092380341
:101FD00065E670E080913A0490913B040E94F3081A
:101FE00080913A0490913B040E94EB0A182B809157
:101FF0003204009335038093370310923603109216
:102000003803609138047091390480913A049091BA
:102010003B040E94F30880913A0490913B040E9493
:10202000EB0A182B6AE070E080E090E00E944C051B
:102030001230E1F038F41123A9F01130E9F482E80C
:1020400092E01CC01330A9F01430B1F48FEF91E08E
:1020500015C08DE193E012C08BEE92E00FC08FEAC5
:1020600092E00CC085E4809333040AC08DE492E0D2
:1020700005C08BE192E002C08FED91E00E94FA086A
:102080008FE793E00E94D80889E393E00E94DB0386
:1020900082E090E09093D7038093D6031092D90307
:1020A0001092D80308E010E01093DB030093DA03EA
:1020B0001092DD031092DC0360EC71E08AE194E0A1
:1020C0000E945107109221041092200466EC71E0E6
:1020D00082E294E00E945107109229041092280491
:1020E0006CEC71E082E194E00E94510710931904B6
:1020F0000093180481E090E09093DF038093DE0367
:102100001092E1031092E00362ED71E082EE93E041
:102110000E94510763EE71E088EE93E00E94510740
:1021200064EC71E08EEE93E00E94510760ED71E087
:1021300084EF93E00E94510764EF71E08AEF93E02F
:102140000E9451076DEF71E080E094E00E9451071A
:102150006EE172E086E094E00E9451076FE372E066
:102160008CE094E00E94510781E080932A0460E0B3
:102170008DE00E945F0A94E5C92E91E0D92E26E4F5
:10218000A22E21E0B22E33243A9435EE932E45EC64
:10219000842E61E08DE00E945F0A88EF94E00E9447
:1021A000D808809156048B83DA82C98280915704C3
:1021B000909158049D838C838091590490915A0486
:1021C000A0915B04B0915C048E839F83A887B9873C
:1021D00066EB72E0CE0101960E9494048091560451
:1021E0008B83DA82C98280915704909158049D8331
:1021F0008C838091590490915A04A0915B04B09112
:102200005C048E839F83A887B98762E972E0CE0160
:1022100001960E9411064090A6025090A70260907D
:10222000A8027090A902A3019201C301B2010E9409
:102230002817811114C020E030E040E252ECC301C5
:10224000B2010E94921487FD0AC020E030E040EA0B
:1022500052E4C301B2010E94231718162CF487EC34
:1022600093E00E94D80809C08AEE93E00E94D80843
:1022700042E0C301B2010E94490989E393E00E9450
:10228000DB0380915F048B83BA82A9828091600412
:10229000909161049D838C8380916204909163048A
:1022A000A0916404B09165048E839F83A887B98749
:1022B00066EB72E0CE0101960E94160480915F04E5
:1022C0008B83BA82A98280916004909161049D837E
:1022D0008C838091620490916304A0916404B09116
:1022E00065048E839F83A887B98762E972E0CE0177
:1022F00001960E9492054090A6025090A70260901D
:10230000A8027090A902A3019201C301B2010E9428
:102310002817811113C020E030E0A901C301B201E8
:102320000E94921487FD0AC020E030E048EC52E49D
:10233000C301B2010E94231718162CF486E094E022
:102340000E94D80809C086E294E00E94D80842E0C2
:10235000C301B2010E94490989E393E00E94DB03B3
:102360008091380490913904892B49F48EE394E0EC
:102370000E94FA0860E070E080E090EC3DC10091BE
:1023800032040E9427052B013C0110912F031123D9
:1023900039F18091310390913203A0913303B091D0
:1023A0003403892B8A2B8B2B81F30E9427052091E4
:1023B0003103309132034091330350913403DC01F7
:1023C000CB0184199509A609B709281739074A07C7
:1023D0005B07D8F6809130030E94AC0A10E08DC0F4
:1023E00081E080932F0380932E0330922D0310926F
:1023F0002C0380932B0380930A0390910A03802F70
:10240000880F892B80930A0380910903813091F50D
:10241000109209030E9427052B013C0180910A03B9
:102420008093BB008091310390913203A0913303DC
:10243000B0913403892B8A2B8B2BA9F00E9427059E
:102440002091310330913203409133035091340392
:10245000DC01CB0184199509A609B70928173907AA
:102460004A075B0790F18091BC0083FDD7CF809233
:10247000BC0002C09092BC000E9427052B013C01C9
:1024800080912F03813031F5809131039091320397
:10249000A0913303B0913403892B8A2B8B2B81F3CA
:1024A0000E9427052091310330913203409133037C
:1024B00050913403DC01CB0184199509A609B709B1
:1024C000281739074A075B07D8F6809130030E9426
:1024D000AC0A13C080912C03823018F480912C0335
:1024E00001C082E0EBE0F3E0A7EEB2E010E01817E5
:1024F00021F091919D931F5FFACF109208031093E2
:102500000703123011F580913A0490913B04DC01ED
:10251000ED91FC910284F385E02D0995F82EE12CD4
:1025200080913A0490913B04DC01ED91FC9102848E
:10253000F385E02D09958E299F29BC0180E090E06C
:102540000E9497142B013C0106C0412C512C80E8BD
:10255000682E8FEB782E0E94860560933C04709362
:102560003D0480933E0490933F0420E030E040E837
:102570005FEBC301B2010E9492148823C9F16091FC
:1025800033046534A9F070E080E090E00E94971475
:102590009B01AC0160E070E08AE892E40E94821640
:1025A0009B01AC01C301B2010E94F8142B013C0154
:1025B00080913804909139048132910511F041974E
:1025C00051F420E030E040E05FE3C301B2010E943B
:1025D000F8142B013C0120913404309135044091D2
:1025E000360450913704C301B2010E94821604C020
:1025F00060E070E080E89FEB0E94F4162B01612CF4
:10260000712CC301B2010E9497149B01AC010E947E
:102610002817882329F081E694E00E94D80809C091
:1026200080E894E00E94D8084AE0C301B2010E9409
:10263000080989E393E00E94DB038EE00E94E00238
:102640008C012C01612C712CC301B2010E949714E2
:102650009B01AC010E942817882329F088E994E0A7
:102660000E94D8082BC00339B4E01B0790F4E6E0C1
:10267000F1E060E070E0819191918017910710F096
:10268000162F08C06F5F7F4F6C307105A1F71FEFE9
:1026900001C01CE08EEB94E00E94D8084AE0C30120
:1026A000B2010E94080980E692E00E94C608612FEC
:1026B00070E080E090E04AE00E94080989E393E03E
:1026C0000E94DB038FE00E94E0028C018DED94E01C
:1026D0000E94D808B801110F880B990B0E94991419
:1026E00020E030E040EA50E40E94F81420E030E0BE
:1026F00040E85AE30E94F8142EE830E441ED5EE32E
:102700000E94821642E00E94490989E393E00E94F8
:10271000DB0360E08DE00E945F0A68E873E180E01F
:1027200090E00E944C050E94FD0333CD82E294E0CC
:102730000E940A048AE194E00E940A0482E194E083
:102740000E940A048CE094E00E940A0486E094E06F
:102750000E940A0480E094E00E940A048AEF93E059
:102760000E940A0484EF93E00E940A048EEE93E034
:102770000E940A0488EE93E00E940A0482EE93E02D
:102780000E940A048BE294E00C940A04CF93DF9336
:10279000CAECD4E01B821A8288EE93E0A0E0B0E09D
:1027A0008C839D83AE83BF8322E231E0398328830B
:1027B000E9E3F3E01382128284839583A683B783CF
:1027C00084E391E09183808385EC90E09587848712
:1027D00084EC90E09787868780EC90E0918B808BEB
:1027E00081EC90E0938B828B82EC90E0958B848BD4
:1027F00086EC90E0978B868B118E128E138E148E42
:10280000A0E4B4E089E015968C93159786E11696BE
:102810008C931697ECE5F5E0E4911796EC931797F7
:10282000E8E4F5E0E4911896EC93189740E85EE34D
:1028300060E070E01D964D935D936D937C9350978F
:1028400053968C93539784E591E055969C938E9381
:1028500054970A2E1B2E58961C920E9211245797AD
:102860004FEF5FEFBA0159964D935D936D937C9353
:102870005C9786E491E05E969C938E935D970A2E1A
:102880001B2E91961C920E921124909792964D9326
:102890005D936D937C939597E2E3F4E085E4818307
:1028A0008AE999E9A9E9BFE382839383A483B58385
:1028B0001782168283E28083D187C0878BE294E0FF
:1028C0000E94B9081092310482EE93E00E94B90888
:1028D00088EE93E00E94B9088EEE93E00E94B9085A
:1028E00084EF93E00E94B9088AEF93E00E94B90850
:1028F00080E094E00E94B90886E094E00E94B90864
:102900008CE094E00E94B90882E194E00E94B9084A
:102910008AE194E00E94B90882E294E0DF91CF91CD
:102920000C94B9080E94D41408F481E00895E89446
:1029300009C097FB3EF490958095709561957F4F07
:102940008F4F9F4F9923A9F0F92F96E9BB279395B5
:10295000F695879577956795B795F111F8CFFAF4C5
:10296000BB0F11F460FF1BC06F5F7F4F8F4F9F4FF6
:1029700016C0882311F096E911C0772321F09EE854
:10298000872F762F05C0662371F096E8862F70E0BA
:1029900060E02AF09A95660F771F881FDAF7880F94
:1029A0009695879597F90895990F0008550FAA0BEA
:1029B000E0E8FEEF16161706E807F907C0F0121652
:1029C0001306E407F50798F0621B730B840B950B55
:1029D00039F40A2661F0232B242B252B21F40895AA
:1029E0000A2609F4A140A6958FEF811D811D089547
:1029F0000E940B150C947C150E946E1538F00E94F5
:102A0000751520F0952311F00C9465150C946B1539
:102A100011240C94B0150E948D1570F3959FC1F38D
:102A2000950F50E0551F629FF001729FBB27F00D7C
:102A3000B11D639FAA27F00DB11DAA1F649F6627D1
:102A4000B00DA11D661F829F2227B00DA11D621F20
:102A5000739FB00DA11D621F839FA00D611D221FDA
:102A6000749F3327A00D611D231F849F600D211DBE
:102A7000822F762F6A2F11249F5750409AF0F1F041
:102A800088234AF0EE0FFF1FBB1F661F771F881FAA
:102A900091505040A9F79E3F510580F00C94651568
:102AA0000C94B0155F3FE4F3983ED4F38695779588
:102AB0006795B795F795E7959F5FC1F7FE2B880F50
:102AC000911D9695879597F9089597F99F6780E8E6
:102AD00070E060E008959FEF80EC089500240A9470
:102AE0001616170618060906089500240A941216E9
:102AF0001306140605060895092E0394000C11F41C
:102B0000882352F0BB0F40F4BF2B11F460FF04C0C8
:102B10006F5F7F4F8F4F9F4F089557FD9058440F21
:102B2000551F59F05F3F71F04795880F97FB991F2C
:102B300061F09F3F79F087950895121613061406E9
:102B4000551FF2CF4695F1DF08C016161706180676
:102B5000991FF1CF86957105610508940895E89451
:102B6000BB2766277727CB0197F908952F923F92CD
:102B70004F925F926F927F928F929F92AF92BF928D
:102B8000CF92DF92EF92FF920F931F93CF93DF9339
:102B9000CDB7DEB7CA1BDB0B0FB6F894DEBF0FBE96
:102BA000CDBF09942A88398848885F846E847D84E3
:102BB0008C849B84AA84B984C884DF80EE80FD80E5
:102BC0000C811B81AA81B981CE0FD11D0FB6F8945B
:102BD000DEBF0FBECDBFED010895A1E21A2EAA1BE4
:102BE000BB1BFD010DC0AA1FBB1FEE1FFF1FA217BD
:102BF000B307E407F50720F0A21BB30BE40BF50BBA
:102C0000661F771F881F991F1A9469F76095709542
:102C1000809590959B01AC01BD01CF010895EE0F09
:102C2000FF1F0590F491E02D09945058BB27AA2767
:102C30000E942D160C947C150E946E1538F00E948F
:102C4000751520F039F49F3F19F426F40C946B1598
:102C50000EF4E095E7FB0C946515E92F0E948D15A5
:102C600058F3BA17620773078407950720F079F4C1
:102C7000A6F50C94AF150EF4E0950B2EBA2FA02DEF
:102C80000B01B90190010C01CA01A0011124FF2719
:102C9000591B99F0593F50F4503E68F11A16F04014
:102CA000A22F232F342F4427585FF3CF4695379513
:102CB0002795A795F0405395C9F77EF41F16BA0BD8
:102CC000620B730B840BBAF09150A1F0FF0FBB1F86
:102CD000661F771F881FC2F70EC0BA0F621F731FCF
:102CE000841F48F4879577956795B795F7959E3F2C
:102CF00008F0B0CF9395880F08F09927EE0F9795BD
:102D0000879508950E9496160C947C150E9475155F
:102D100058F00E946E1540F029F45F3F29F00C94A2
:102D2000651551110C94B0150C946B150E948D15FE
:102D300068F39923B1F3552391F3951B550BBB27EA
:102D4000AA2762177307840738F09F5F5F4F220F2F
:102D5000331F441FAA1FA9F335D00E2E3AF0E0E826
:102D600032D091505040E695001CCAF72BD0FE2F70
:102D700029D0660F771F881FBB1F26173707480704
:102D8000AB07B0E809F0BB0B802DBF01FF279358BC
:102D90005F4F3AF09E3F510578F00C9465150C9406
:102DA000B0155F3FE4F3983ED4F386957795679529
:102DB000B795F7959F5FC9F7880F911D96958795F1
:102DC00097F90895E1E0660F771F881FBB1F621710
:102DD00073078407BA0720F0621B730B840BBA0BCE
:102DE000EE1F88F7E09508950E94951588F09F578B
:102DF00098F0B92F9927B751B0F0E1F0660F771F1F
:102E0000881F991F1AF0BA95C9F714C0B13091F014
:102E10000E94AF15B1E008950C94AF15672F782F7D
:102E20008827B85F39F0B93FCCF3869577956795D9
:102E3000B395D9F73EF490958095709561957F4F45
:102E40008F4F9F4F08950E94D41408F48FEF089578
:102E50000E94D414880B990B08950F931F93CF935E
:102E6000DF938230910510F482E090E0E091D80485
:102E7000F091D90420E030E0A0E0B0E0309719F103
:102E8000408151810281138148175907C8F0841786
:102E9000950769F4109731F012960C9312971396D8
:102EA0001C9327C00093D8041093D90422C0211585
:102EB000310519F04217530718F49A01BD01EF01CB
:102EC000DF01F801DBCF21153105F9F0281B390BA3
:102ED0002430310580F48A819B816115710521F0D0
:102EE000FB019383828304C09093D9048093D80418
:102EF000FE01329644C0FE01E20FF31F81939193CD
:102F000022503109398328833AC02091D604309168
:102F1000D704232B41F42091020130910301309317
:102F2000D7042093D604209100013091010121158E
:102F3000310541F42DB73EB7409104015091050190
:102F4000241B350BE091D604F091D704E217F30768
:102F5000A0F42E1B3F0B2817390778F0AC014E5F09
:102F60005F4F2417350748F04E0F5F1F5093D7046B
:102F70004093D6048193919302C0E0E0F0E0CF014A
:102F8000DF91CF911F910F910895CF93DF93009719
:102F900009F481C0FC01329713821282A091D804F7
:102FA000B091D904109781F420813181820F931F51
:102FB0002091D6043091D7042817390751F5F093A2
:102FC000D704E093D60467C0ED0120E030E0CE17CF
:102FD000DF0740F44A815B819E0141155105F1F004
:102FE000EA01F5CFD383C28340815181840F951FBD
:102FF000C817D90759F488819981840F951F0296C3
:10300000918380838A819B819383828321153105FB
:1030100029F4F093D904E093D8043DC0E901FB837F
:10302000EA8349915991C40FD51FEC17FD0761F44C
:1030300080819181840F951F0296E901998388838D
:10304000828193819B838A83E0E0F0E012968D91E8
:103050009C911397009719F0FD01DC01F7CF8D913A
:103060009C9111979D012E5F3F4F820F931F2091DE
:10307000D6043091D7042817390769F4309729F41A
:103080001092D9041092D80402C013821282B09315
:10309000D704A093D604DF91CF910895A0E0B0E0CB
:1030A000E4E5F8E10C94BA15EC01009721F4CB01AA
:1030B0000E942D17B4C0FC01E60FF71F9C0122509F
:1030C0003109E217F30708F4A8C0D9010D911C914A
:1030D000119706171707B0F00530110508F49BC0CB
:1030E000C80104978617970708F495C00250110984
:1030F000061B170B019311936D937C93CF010E94D4
:10310000C51789C05B01A01AB10A4C01800E911E3F
:10311000A091D804B091D904612C712CE12CF12C30
:10312000109709F446C08D919C911197A815B90587
:10313000B1F56C0142E0C40ED11CCA14DB0478F175
:103140004C018A189B08640142E0C40ED11C1296FF
:10315000BC9012971396AC91B5E0CB16D10440F019
:10316000B282A38391828082D9016D937C9309C03E
:103170000E5F1F4F800F911FF90191838083EB2D0C
:10318000FA2FE114F10431F0D7011396FC93EE937A
:10319000129741C0F093D904E093D8043CC068165C
:1031A000790608F43C017D0112960D90BC91A02D8A
:1031B000B7CF8091D6049091D70488169906E1F490
:1031C00066167706C8F4809100019091010100977E
:1031D00041F48DB79EB74091040150910501841BC5
:1031E000950BE817F907C8F4F093D704E093D604D9
:1031F000F901718360830FC0CB010E942D177C0100
:10320000009759F0A801BE010E941919CE010E9431
:10321000C517C70104C0CE0102C080E090E0CDB761
:10322000DEB7EEE00C94D61581E090E0F8940C94B3
:103230003819FB01DC0102C001900D924150504051
:10324000D8F70895FB01DC0101900D920020E1F711
:103250000895FB01DC014150504048F001900D926F
:103260000020C9F701C01D9241505040E0F7089579
:1032700012E0C5EBD2E004C0FE010E940F162196B9
:0A328000C63BD107C9F7F894FFCF51
:10328A000000DA0420003200E3003E019801F70151
:10329A005E02B8021B037103D003370492040000D4
:1032AA0000008A085D0822033108550841083208DF
:1032BA00000000008E03F7022503DB0356033403E4
:1032CA00480300000000CA07120407049205160406
:1032DA0000000000CB071404070411069404000040
:1032EA000000000000000704080408044172647525
:1032FA00696E6F2050726F204D696E692041746D3E
:10330A00656761333238702035562031364D487A38
:10331A00004C6F5261202D20524846304D303033D8
:10332A0000312E302E300044485432322C20475976
:10333A0033302C2055564D333041006E6F6E650088
:10334A003931372E32003931372E39003932332E9E
:10335A00330030304230374335384435434336370B
:10336A004230003730423344353745443030323505
:10337A004636440032363033313845410033343230
:10338A00423930393730433739454133443136329F
:10339A004444364442344644313330434100414484
:1033AA003946413137353044384333313036413686
:1033BA003442343944324230414532383345003997
:1033CA003744463733374346353731333344343954
:1033DA0045363235393542443635323631333600A0
:1033EA00203D3E20000D0A006E616E00696E660087
:1033FA006F766600444854313100444854313200F3
:10340A004448543231004448543232004448543F0C
:02341A000000B0
:00000001FF
