:100000000C94F2010C941A020C941A020C94880DB0
:100010000C94880D0C94880D0C941A020C941A02FE
:100020000C941A020C941A020C941A020C941A02E0
:100030000C941A020C941A020C941A020C941A02D0
:100040000C9448080C941A020C94560D0C94300D24
:100050000C941A020C941A020C941A020C941A02B0
:100060000C94F5040C941A020000000024002700F0
:100070002A0000000008000201000003040700003D
:1000800000000000000000000000230026002900FE
:1000900000000000250028002B00040404040404D0
:1000A0000404020202020202030303030303010227
:1000B00004081020408001020408102001020408F6
:1000C00010200A094163747561746F72206C697342
:1000D000742E2E2E2E2E2E2E2E2E3A20000A09534E
:1000E000656E736F72206C6973742E2E2E2E2E2EF9
:1000F0002E2E2E2E2E3A20000A094669726D776147
:1001000072652076657273696F6E2E2E2E2E2E2EDE
:100110003A20000A09436F6D6D756E6963617469F9
:100120006F6E206465766963652E2E3A20000A0999
:100130004D43552064657669636520626F61726422
:100140002E2E2E2E2E2E3A20005374617274696E5C
:1001500067204154532D30312E2E2E00232323238C
:10016000232323232323232323232323232323235F
:10017000232323232323232323232323232323234F
:100180002323232323230A00232020202020202090
:10019000204167726F546563684C6162202849464C
:1001A00053432F4C61676573292020202020202095
:1001B00020230A00232020204167726F5465636862
:1001C0002053746174696F6E203031202854696E39
:1001D000792076657273696F6E29202020230A00CA
:1001E000232020202020202020202020202020200C
:1001F000204154532D303120202020202020202049
:10020000202020202020202020230A000A2323232E
:1002100023232323232323232323232323232323AE
:10022000232323232323232323232323232323239E
:10023000232323232323230A005B4F4B5D000A095A
:10024000496E697469616C697A696E67206C696767
:1002500068742073656E736F722E2E2E20005B4FB4
:100260004B5D000A09496E697469616C697A696E4F
:1002700067204448542073656E736F722E2E2E20B3
:10028000000A094572726F722072656164696E6757
:10029000206169722074656D706572617475726534
:1002A000212121000A094169722074656D7065720F
:1002B00061747572652028696E206F43293A2000A9
:1002C0000A094572726F722072656164696E6720F7
:1002D0006169722068756D696469747921212100F2
:1002E0000A094169722068756D696469747920280A
:1002F000696E2025293A20005B4248313735305D50
:1003000020446576696365206973206E6F7420638D
:100310006F6E6669677572656421000A09457272BD
:100320006F722072656164696E67206C69676874BA
:10033000206C6576656C212121000A094C756D6978
:100340006E6F736974792028696E204C5558293A6C
:1003500020000A094572726F722072656164696ECD
:100360006720555620726164696174696F6E2069F7
:100370006E646578212121000A0955562072616456
:10038000696174696F6E2028696E20555620696E08
:10039000646578293A20000A0942617474657279AB
:1003A00020766F6C746167652028696E2056293A43
:1003B00020000A50726F636573732074696D652045
:1003C00028696E206D73293A20000A5265616469BC
:1003D0006E672073656E736F72732E2E2E2E000063
:1003E0001A0EE21311241FBECFEFD8E0DEBFCDBF3F
:1003F00025E0A4EAB2E001C01D92AA34B207E1F7F9
:1004000012E0A0E0B1E0E6E0F2E302C005900D9258
:10041000A43AB107D9F711E0C1EFD1E004C02197A8
:10042000FE010E94CD15C03FD107C9F70E94F20E10
:100430000C94F6180C940000CF92DF92EF92FF928A
:100440001F93CF93DF93EC011F81662311F0912F4F
:1004500001C090E0288530E0220F331F2A573F4F1C
:10046000A0E0B0E0F90145915491FA018081812327
:10047000AD0160E070E089130FC01196CD84DE8479
:10048000EF84F8884C155D056E057F0558F33FEF46
:100490002FEF8FEF9FEF03C03A2F252FCB01632F54
:1004A000722FDF91CF911F91FF90EF90DF90CF904F
:1004B000089540918604262F30E0240F311D21320B
:1004C0003105DCF42091D4022430C9F4FC0180E031
:1004D00090E0861758F4309186042191DC01AA59E6
:1004E000BB4FA30FB11D2C930196F3CF80918604CF
:1004F000680F6093860480E0089581E0089582E0AB
:1005000008950895E091CD028091CC02E81730F46F
:10051000F0E0E455FD4F808190E008958FEF9FEF6C
:1005200008959091CD028091CC02981750F4E92F54
:10053000F0E0E455FD4F208130E09F5F9093CD02C5
:1005400002C02FEF3FEFC90108958091CC0290E0E7
:100550002091CD02821B91090895CF93DF93CB01A7
:10056000EA01642F0E945902CE01DF91CF910895D4
:10057000CF93DF931F92CDB7DEB7698361E0CE01E1
:1005800001960E94590281E090E00F90DF91CF9197
:100590000895FC0111821082138212821582148246
:1005A00040E050E06DE972E00C9492088F929F92C7
:1005B000AF92BF920F931F93CF93DF93CDB7DEB768
:1005C000A1970FB6F894DEBF0FBECDBF19A242307F
:1005D00008F44AE08E010F5D1F4F842E912CA12C50
:1005E000B12CA50194010E949715E62FB901CA010B
:1005F00001501109EA3014F4E05D01C0E95CD80152
:10060000EC93232B242B252B61F7B80187E993E08A
:100610000E941B0DA1960FB6F894DEBF0FBECDBF92
:10062000DF91CF911F910F91BF90AF909F908F90CE
:1006300008958F929F92AF92BF92CF92DF92EF92E6
:10064000FF920F931F93CF93DF936B017C01142FC5
:100650009B01AC010E94E616882319F06EE771E059
:1006600027C046015701E894B7F82FEF3FEF4FE757
:100670005FE7C501B4010E94E61681110DC02FEF9E
:100680003FEF4FE75FE7C501B4010E942814181639
:100690001CF462E871E00CC02FEF3FEF4FE75FE41E
:1006A000C701B6010E94E116181694F466E871E0DD
:1006B00087E993E0DF91CF911F910F91FF90EF9029
:1006C000DF90CF90BF90AF909F908F900C941B0DB8
:1006D0002FEF3FEF4FE75FECC701B6010E942814F0
:1006E00087FDE4CF20E030E0A901C701B6010E94F8
:1006F000281487FF0BC06DE287E993E00E941F0A70
:10070000EC01F7FAF094F7F8F09402C0C0E0D0E002
:1007100000E060E070E080E09FE3101741F020E02F
:1007200030E040E251E40E9440160F5FF6CFA7018F
:1007300096010E94D4156B017C010E94B2164B01F8
:100740005C014AE00E94D602C80FD91F1123B9F1FB
:10075000C501B4010E942D149B01AC01C701B60173
:100760000E94D3156B017C016EE287E993E00E9441
:100770001F0AC80FD91F20E030E040E251E4C70152
:10078000B6010E948E144B015C010E94B2166B01EF
:10079000E12CF12C4AE0C701B6010E94D602C80F35
:1007A000D91FC701B6010E942D149B01AC01C501E0
:1007B000B4010E94D3156B017C011150E1F6CE010A
:1007C000DF91CF911F910F91FF90EF90DF90CF902D
:1007D000BF90AF909F908F900895FB01DC015396DE
:1007E0008C918C3041F038F48B3029F480E492E421
:1007F000AFE0B0E004C080E894E8AEE1B0E084A3EC
:1008000095A3A6A3B7A30895CF93DF93EB01FC01B3
:1008100083898C3089F038F48B30C1F44BE050E0A0
:100820006AE871E017C0853161F0863179F44BE0F8
:1008300050E06CE971E00EC04BE050E060E971E01F
:1008400009C04BE050E066E971E004C04BE050E0C5
:1008500062EA71E0CE010E94E7181B86DF91CF911A
:10086000089590E0FC01EE58FF4F2491FC01E25501
:10087000FF4F3491FC01E656FF4FE491EE2309F45B
:100880003CC0222339F1233091F038F42130A9F013
:10089000223001F584B58F7D12C0273091F02830C9
:1008A000A1F02430B9F4809180008F7D03C0809145
:1008B00080008F77809380000DC084B58F7784BDD2
:1008C00009C08091B0008F7703C08091B0008F7D08
:1008D0008093B000F0E0EE0FFF1FE057FF4FA591AF
:1008E000B4919FB7F894611104C08C91309538236E
:1008F00002C0EC913E2B3C939FBF08951F93CF9372
:10090000DF93C1E0C0936504882399F1D091B800CA
:100910001091BA008091BC008A7B8093BC0060E09B
:1009200082E10E94310460E083E10E943104109270
:10093000D402C093D6021092D50261E082E10E94F7
:10094000310461E083E10E9431048091B9008E7F1F
:100950008093B9008091B9008D7F8093B90088E4BD
:100960008093B80085E48093BC001093BA00D093C4
:10097000B800DF91CF911F91089585ED8093BC0061
:100980008091CF029091D002A091D102B091D20279
:100990000796A11DB11D23E0B695A795979587955C
:1009A0002A95D1F72091BC0024FF1CC04091CF02B2
:1009B0005091D0026091D1027091D202452B462B0A
:1009C000472B81F30097A105B10541F025E32A9556
:1009D000F1F700000197A109B109E4CF8091CE029F
:1009E0000C947E041092D40208951F920F920FB6B9
:1009F0000F9211242F933F934F935F936F937F93A5
:100A00008F939F93AF93BF93EF93FF938091B90020
:100A1000887F803609F49CC068F5883209F45BC091
:100A200090F4803109F454C038F4882309F4F2C0FA
:100A3000883009F44DC0F2C0883109F44CC08032CE
:100A400009F45DC0EBC0803409F468C048F4803319
:100A500009F455C0883309F0E1C08093D302D4C0B3
:100A6000803509F44FC0883509F45DC0883409F039
:100A7000D5C0D2C0883909F4C3C0A8F4883709F4B6
:100A800067C038F4883609F463C0803709F460C061
:100A9000C5C0883809F4B4C0803909F45FC0803813
:100AA00009F0BCC05BC0803B09F484C038F4803AD4
:100AB00009F466C0883A09F47DC0B0C0803C09F4EE
:100AC000A3C0883C09F4A0C0883B09F486C0A6C036
:100AD0008091F90210C09091F8028091F702981766
:100AE00070F5E091F80281E08E0F8093F802F0E05B
:100AF000E952FD4F80818093BB0085EC82C08093DA
:100B0000D3028AC0E091F80281E08E0F8093F80250
:100B10008091BB00F0E0E952FD4F80839091F80294
:100B20008091F7026AC0E091F80281E08E0F809315
:100B3000F8028091BB00F0E0E952FD4F8083809184
:100B4000D602811169C081E08093D50284EA5DC03C
:100B500083E08093D4021092A804CFCF8091A804A0
:100B6000803208F04DC0E091A80481E08E0F8093A0
:100B7000A8048091BB00F0E0E857FB4F8083BDCF15
:100B800085EC8093BC001092D4028091A80480323E
:100B900030F4E091A804F0E0E857FB4F1082609138
:100BA000A80470E088E894E0E0E0F0E00995109295
:100BB000A80434C084E08093D40210928704109279
:100BC0008604E0E0F0E0099580918604811105C07B
:100BD00081E08093860410926604E091870481E0AE
:100BE0008E0F80938704F0E0EA59FB4F8081809359
:100BF000BB009091870480918604981708F47DCFFC
:100C000085E88093BC000AC085EC8093BC001092FC
:100C1000D40204C01092D3020E94BD04FF91EF9150
:100C2000BF91AF919F918F917F916F915F914F9104
:100C30003F912F910F900FBE0F901F901895CF935B
:100C4000DF9390E0FC01E255FF4F2491FC01E65652
:100C5000FF4F8491882361F190E0880F991FFC0178
:100C6000E859FF4FC591D491FC01E057FF4FA59182
:100C7000B491611109C09FB7F894888120958223AF
:100C80008883EC912E230BC0623061F49FB7F894F7
:100C90008881322F309583238883EC912E2B2C93DF
:100CA0009FBF06C08FB7F894E8812E2B28838FBF93
:100CB000DF91CF9108950F931F93CF93DF93EC01B2
:100CC000162F042F1B821A8288EE93E0A0E0B0E07A
:100CD0008C839D83AE83BF838AE091E09983888370
:100CE0001F8A1E8A198E188E1B8E1A8E1D8E1C8EC0
:100CF0006E8D6E7F6D7F6E8F6695617081E0682767
:100D0000842F0E94310461E0802F0E941F06802FF3
:100D100090E0FC01E255FF4FE491E88BFC01E656C0
:100D2000FF4FE491F0E0EE0FFF1FE057FF4F85917A
:100D300094919A8B898B60E0812F0E941F068E8D83
:100D400081FD04C061E0812F0E9431041C87812F46
:100D500090E0FC01E255FF4FE491ED87FC01E6567F
:100D6000FF4FE491F0E0EE0FFF1FEA57FF4F859130
:100D700094919F878E87DF91CF911F910F91089556
:100D80008E3008F08E508770806480937C00809154
:100D90007A00806480937A0080917A0086FDFCCF8F
:100DA000809178002091790090E0922B08953FB7D0
:100DB000F8948091A8029091A902A091AA02B09102
:100DC000AB0226B5A89B05C02F3F19F00196A11DC7
:100DD000B11D3FBFBA2FA92F982F8827820F911DD1
:100DE000A11DB11DBC01CD0142E0660F771F881F18
:100DF000991F4A95D1F708958F929F92AF92BF9213
:100E0000CF92DF92EF92FF926B017C010E94D70696
:100E10004B015C01C114D104E104F104F1F00E9422
:100E2000D706DC01CB0188199909AA09BB09883EBC
:100E30009340A105B10570F321E0C21AD108E10881
:100E4000F10888EE880E83E0981EA11CB11CC11425
:100E5000D104E104F10419F7DDCFFF90EF90DF90AA
:100E6000CF90BF90AF909F908F9008952FB7F89438
:100E70006091A4027091A5028091A6029091A702B0
:100E80002FBF08958F929F92AF92BF92CF92DF9221
:100E9000EF92FF920F931F93CF93DF93CDB7DEB7FF
:100EA000C054D1400FB6F894DEBF0FBECDBF8C0149
:100EB0000E943607F801C184D284E384F4849B0144
:100EC000AC012C193D094E095F0969017A0130ED29
:100ED000C31637E0D306E104F10410F48189C2C0DF
:100EE000F801618772878387948714821382128244
:100EF0001182108262E085810E941F0661E070E02D
:100F000080E090E00E94FC0661E0F80185810E948B
:100F10001F0660E0F80185810E943104F801868196
:100F20008551823028F48BE291E10197F1F706C0F8
:100F300064E170E080E090E00E94FC0662E0F8016D
:100F400085810E941F06F801828990E08230910518
:100F500038F0880F991F880F991F05970197F1F7AF
:100F6000F89460E0C8010E941C026F3F7F4F8F4FD2
:100F70009F4F21F4F801118A789445C061E0C801BF
:100F80000E941C026F3F7F4F8F4F9F4F99F39E012E
:100F90002F5F3F4F79015E013FEBA31A3EEFB30A8B
:100FA000670160E0C8010E941C02F6016083718342
:100FB0008283938361E0C8010E941C02F60164836E
:100FC000758386839783F8E0CF0ED11CCA14DB04A7
:100FD00041F7789420E030E0F70180809180A28092
:100FE000B3804481558166817781FFEF8F169F061C
:100FF000AF06BF0631F04F3F8FEF580768077807FD
:1010000021F4F801118A80E02DC0F90183E0F59503
:10101000E7958A95E1F7E00FF11F8081880F84162C
:101020009506A606B70608F4816080832F5F3F4FC0
:10103000F8E0EF0EF11C2832310571F6F801248139
:1010400030E04081818190E0840F911D4281840FC6
:10105000911D4381840F911D99272817390789F61F
:1010600081E0818BC05CDE4F0FB6F894DEBF0FBE0F
:10107000CDBFDF91CF911F910F91FF90EF90DF9047
:10108000CF90BF90AF909F908F9008950E94D218FC
:101090001F920F920FB60F9211242F933F938F93AD
:1010A0009F93AF93BF938091A4029091A502A091CA
:1010B000A602B091A7023091050523E0230F2D373A
:1010C00020F40196A11DB11D05C026E8230F02964C
:1010D000A11DB11D209305058093A4029093A50244
:1010E000A093A602B093A7028091A8029091A902B2
:1010F000A091AA02B091AB020196A11DB11D8093EF
:10110000A8029093A902A093AA02B093AB02BF9148
:10111000AF919F918F913F912F910F900FBE0F90A4
:101120001F901895EF92FF920F931F93CF93DF9329
:10113000EC017B018A0188819981009729F02A813D
:101140003B8124173507F8F4B8016F5F7F4F0E9489
:101150000C18009759F0998388831B830A832C818C
:101160003D81232B81F4FC0110820DC0888199817F
:10117000009711F00E948317198218821D821C8229
:101180001B821A8207C01D830C83B7018881998155
:101190000E94E018CE01DF91CF911F910F91FF9037
:1011A000EF900895CF93DF93EC016115710559F02D
:1011B000FB0101900020E9F73197AF01461B570B67
:1011C0000E9492080CC088819981009711F00E94BA
:1011D0008317198218821D821C821B821A82CE01FB
:1011E000DF91CF910895FC0180819181009711F0EA
:1011F0000C9483170895CF92DF92EF92FF920F9392
:101200001F93CF93DF936C017A018B01C0E0D0E094
:10121000CE15DF0581F0D8016D918D01D601ED91DC
:10122000FC910190F081E02DC6010995892B11F008
:101230002196EECF7E01C701DF91CF911F910F91D3
:10124000FF90EF90DF90CF900895FC01538D448D77
:10125000252F30E0842F90E0821B930B541710F061
:10126000CF96089501970895FC01918D828D98176E
:1012700061F0828DDF01A80FB11D5D968C91928D7A
:101280009F5F9F73928F90E008958FEF9FEF089577
:10129000FC01918D828D981731F0828DE80FF11D40
:1012A000858D90E008958FEF9FEF0895FC01918D5B
:1012B000228D892F90E0805C9F4F821B91098F7354
:1012C000992708958AEF92E00E94560921E0892B20
:1012D00009F420E0822F0895FC01848DDF01A80F1E
:1012E000B11DA35ABF4F2C91848D90E001968F734E
:1012F0009927848FA689B7892C93A089B1898C916D
:10130000837080648C93938D848D981306C00288BB
:10131000F389E02D80818F7D80830895EF92FF9285
:101320000F931F93CF93DF93EC0181E0888F9B8D08
:101330008C8D981305C0E889F989808185FD26C0C8
:10134000F62E0B8D10E00F5F1F4F0F731127E02E4D
:101350008C8DE8120CC00FB607FCFACFE889F9892A
:10136000808185FFF5CFCE010E946C09F1CF8B8D76
:10137000FE01E80FF11DE35AFF4FF0829FB7F8948A
:101380000B8FEA89FB89808180620AC09FB7F8943D
:10139000EE89FF896083E889F989808183708064A0
:1013A00080839FBF81E090E0DF91CF911F910F91EB
:1013B000FF90EF900895CF93DF93EC01888D882301
:1013C000C9F0EA89FB89808185FD05C0A889B989B2
:1013D0008C9186FD0FC00FB607FCF5CF808185FF8D
:1013E000F2CFA889B9898C9185FFEDCFCE010E94FB
:1013F0006C09E7CFDF91CF91089580E090E0892BD1
:1014000029F00E94620981110C9400000895209136
:10141000B7043091B8042817390771F49091B504D6
:101420008091B604981741F0E091B504F0E0EA5FCE
:10143000FA4F808190E008958FEF9FEF08951F93FA
:10144000CF93DF93DC015C968D919C915D97009723
:1014500039F421E030E013963C932E9312973BC071
:101460005196ED91FC91529750962C915097322FB6
:1014700030951FB75E964C915E97742F727041FD48
:101480006095F8944081772311F0422B01C04323EB
:101490004083EC012197F1F748E0508160FF02C0E2
:1014A000522B01C053235083EC012197F1F766952D
:1014B000415099F78081772319F08323808302C0FC
:1014C000282B20831FBF5C968D919C915D9701977F
:1014D000F1F781E090E0DF91CF911F910895209185
:1014E000B7043091B8042817390771F48091B60415
:1014F0002091B50490E0805C9F4F821B910960E4CD
:1015000070E00E948315089580E090E00895209196
:10151000B7043091B80428173907B9F49091B5048D
:101520008091B604981789F0E091B504F0E0EA5F85
:10153000FA4F80812091B50430E02F5F3F4F2F7329
:1015400033272093B50490E008958FEF9FEF08951F
:10155000089580E090E0089508950F931F93CF932E
:10156000DF938C01EB0188E2DB011D928A95E9F79C
:10157000F801838194810E94040481E090E0A0E05E
:10158000B0E08C879D87AE87BF87F8018581968103
:10159000A781B085888B998BAA8BBB8B8CE090E060
:1015A000A0E0B0E08C8B9D8BAE8BBF8BBE018381A6
:1015B00094810E94ED03D8011396ED91FC9114974C
:1015C00083898C3069F038F48B30A1F580E090E0AD
:1015D000A0EAB2E409C08531C1F08631B1F02AC079
:1015E00080E090E0AEEBB2E4888F998FAA8FBB8F3A
:1015F00080E090E0A0EAB1E48C8F9D8FAE8FBF8F2A
:1016000080E090E0A0EAB0E410C080E090E0A8ECB8
:10161000B2E4888F998FAA8FBB8F1C8E1D8E1E8E71
:101620001F8E8DEC9CECACECBDE388A399A3AAA320
:10163000BBA30CC0188E198E1A8E1B8E1C8E1D8E8D
:101640001E8E1F8E18A219A21AA21BA2DF91CF9183
:101650001F910F9108950F931F93CF93DF938C01E8
:10166000EB0188E2DB011D928A95E9F7F80183819D
:1016700094810E94040481E090E0A0E0B0E08C87B7
:101680009D87AE87BF87F80185819681A781B08548
:10169000888B998BAA8BBB8B8DE090E0A0E0B0E0AB
:1016A0008C8B9D8BAE8BBF8BBE01838194810E94FE
:1016B000ED03D8011396ED91FC91149783898C303A
:1016C000F1F0A0F48B3009F048C080E090E0A8E48D
:1016D000B2E4888F998FAA8FBB8F1C8E1D8E1E8EB1
:1016E0001F8E80E090E0A0E0B0E432C08531E1F0F0
:1016F000863199F580E090E0AAEFB2E419C080E06D
:1017000090E0A0E7B2E4888F998FAA8FBB8F80E02A
:1017100090E0A0EAB1EC8C8F9D8FAE8FBF8F80E000
:1017200090E0A0E0BFE314C080E090E0A0EAB2E463
:10173000888F998FAA8FBB8F80E090E0A0E2B2ECF7
:101740008C8F9D8FAE8FBF8F8DEC9CECACECBDE38E
:1017500088A399A3AAA3BBA30CC0188E198E1A8EB6
:101760001B8E1C8E1D8E1E8E1F8E18A219A21AA2F1
:101770001BA2DF91CF911F910F910895CF92DF921D
:10178000EF92FF920F931F93CF93DF938C01EB01A6
:1017900084E2FB0111928A95E9F784E290E0A0E0EF
:1017A000B0E088839983AA83BB83F8018581968101
:1017B000A781B0858C839D83AE83BF838CE090E04E
:1017C000A0E0B0E088879987AA87BB870E94360788
:1017D000688B798B8A8B9B8BF80103811481C801FC
:1017E0000E9442078823B9F1F80186818B3098F175
:1017F0008D30A0F08551823070F5F80160817181E3
:1018000076276727762780E090E00E942D142DEC44
:101810003CEC4CEC5DE30E948E1421C0F801618128
:1018200070E080E090E00E942F142DEC3CEC4CEC3A
:101830005DE30E948E146B017C01F801608170E011
:1018400080E090E00E942F149B01AC01C701B6011B
:101850000E94D41504C060E070E080EC9FE76C8BC0
:101860007D8B8E8B9F8B81E0DF91CF911F910F91AC
:10187000FF90EF90DF90CF9008958F929F92AF925C
:10188000BF92EF92FF921F93CF93DF937C01EB0106
:1018900084E2FB0111928A95E9F784E290E0A0E0EE
:1018A000B0E088839983AA83BB83F7018581968101
:1018B000A781B0858C839D83AE83BF838DE090E04C
:1018C000A0E0B0E088879987AA87BB870E94360787
:1018D000688B798B8A8B9B8BF701E380F480C7013F
:1018E0000E944207882309F46BC0F70186818C307F
:1018F00009F445C018F48B30C9F062C085518230BC
:1019000008F05EC0F7011281612F6F7770E0762FCB
:1019100066278381682B80E090E00E942D142DECD7
:101920003CEC4CEC5DE30E948E1446C0F7016281F2
:1019300070E080E090E00E942D144B015C01F70103
:10194000138117FF0AC09B01AC0160E070E080E8E2
:101950009FEB0E94D3154B015C01612F6F7070E00B
:1019600080E090E00E942F142DEC3CEC4CEC5DE309
:101970000E948E14A50194010E94D41525C0F70180
:10198000128163816F7070E080E090E00E942F14FC
:101990002DEC3CEC4CEC5DE30E948E144B015C01A1
:1019A000612F70E080E090E00E942D149B01AC015B
:1019B000C501B4010E94D41517FF06C0905804C099
:1019C00060E070E080EC9FE76C8B7D8B8E8B9F8B53
:1019D00081E0DF91CF911F91FF90EF90BF90AF908A
:1019E0009F908F9008950C9483170C948317EF9217
:1019F000FF920F931F93CF93DF938C017B01C0E085
:101A0000D0E0F701EC0FFD1F6491662361F0D8016F
:101A1000ED91FC910190F081E02DC8010995892B91
:101A200011F02196EECFCE01DF91CF911F910F9152
:101A3000FF90EF9008956115710579F0FB01019019
:101A40000020E9F73197AF01461B570BDC01ED9100
:101A5000FC910280F381E02D099480E090E00895EC
:101A60001F920F920FB60F9211242F933F934F9313
:101A70005F936F937F938F939F93AF93BF93EF93F6
:101A8000FF938AEF92E00E946C09FF91EF91BF9162
:101A9000AF919F918F917F916F915F914F913F9106
:101AA0002F910F900FBE0F901F9018951F920F92BD
:101AB0000FB60F9211242F938F939F93EF93FF9361
:101AC000E0910A03F0910B038081E0911003F09103
:101AD000110382FD12C09081809113038F5F8F7379
:101AE00020911403821751F0E0911303F0E0E650C7
:101AF000FD4F958F8093130301C08081FF91EF917B
:101B00009F918F912F910F900FBE0F901F9018955E
:101B10001F920F920FB60F9211242F933F934F9362
:101B20005F936F937F938F939F93AF93BF93EF9345
:101B3000FF93E091B704F091B804309709F451C0D5
:101B4000968DA685B785858591FF04C09C918923D4
:101B500029F447C09C91892309F043C0A389B48923
:101B60009C918589809589238C9386899789019793
:101B7000F1F7608D718DA685B785558538E020E039
:101B8000CB010197F1F7822F90E095958795282F4B
:101B90004C91452309F02068315091F7868D81FDE5
:101BA00020958091B60490E001968F73992730912B
:101BB000B504381749F0A091B604B0E0AA5FBA4F57
:101BC0002C938093B60403C0868D8160868F828DAE
:101BD000938D0197F1F7A389B4899C918589892B0D
:101BE0008C93FF91EF91BF91AF919F918F917F91D6
:101BF0006F915F914F913F912F910F900FBE0F907A
:101C00001F901895E091B704F091B804E817F90710
:101C100069F4A389B4899C918589809589238C93E3
:101C20001092B8041092B70481E0089580E00895FE
:101C300008950895CF93DF93C9EAD4E01B821A82F6
:101C400088EE93E0A0E0B0E08C839D83AE83BF83F9
:101C50002CE131E039832883EAEFF2E0138212822B
:101C600084839583A683B7838EE291E091838083FA
:101C700085EC90E09587848784EC90E09787868751
:101C800080EC90E0918B808B81EC90E0938B828B49
:101C900082EC90E0958B848B86EC90E0978B868B22
:101CA000118E128E138E148EAFE3B4E089E0159678
:101CB0008C93159786E116968C931697E7EBF0E0D8
:101CC000E4911796EC931797E3EAF0E0E491189605
:101CD000EC93189740E85EE360E070E01D964D934A
:101CE0005D936D937C93509753968C9353978EE4AA
:101CF00091E055969C938E9354970A2E1B2E5896DE
:101D00001C920E92112457974FEF5FEFBA0159962C
:101D10004D935D936D937C935C9780E491E05E9628
:101D20009C938E935D970A2E1B2E91961C920E9279
:101D30001124909792964D935D936D937C93959714
:101D4000E1E3F4E085E481838AE999E9A9E9BFE365
:101D500082839383A483B5831782168283E2808370
:101D6000D187C0878AE294E00E94C90210923004B1
:101D700081EE93E00E94C90287EE93E00E94C902BF
:101D80008DEE93E00E94C90283EF93E00E94C902A6
:101D900089EF93E00E94C9028FEF93E00E94C9028D
:101DA00085E094E00E94C9028BE094E00E94C902A1
:101DB00081E194E00E94C90289E194E00E94C90295
:101DC00081E294E00E94C90247E066E086EB93E07E
:101DD0000E945B0645E064E087E993E0DF91CF91E4
:101DE0000C945B06CF93DF93CDB7DEB729970FB680
:101DF000F894DEBF0FBECDBF789484B5826084BDF9
:101E000084B5816084BD85B5826085BD85B58160FE
:101E100085BD80916E00816080936E00109281007C
:101E20008091810082608093810080918100816037
:101E300080938100809180008160809380008091F8
:101E4000B10084608093B1008091B0008160809384
:101E5000B00080917A00846080937A0080917A004B
:101E6000826080937A0080917A00816080937A000A
:101E700080917A00806880937A001092C10061E0BE
:101E80008DE00E941F0661E08DE00E9431041092F7
:101E9000B2031092B1031092B0031092AF031092EC
:101EA000AE031092AD038FE190E09093B403809362
:101EB000B3039091A303963108F058C021E030E0BD
:101EC0003093AE032093AD032DE130E03093B003A7
:101ED0002093AF032DE030E03093B2032093B103A1
:101EE00040916800983058F031E09E3008F430E0BE
:101EF00021E0822F01C0880F3A95EAF701C084E003
:101F0000842B80936800983038F09E3040F09631F2
:101F100048F020E030E008C02DE630E005C02BE6B8
:101F200030E002C02CE630E03093AB032093AA03EC
:101F3000983030F481E001C0880F9A95EAF70EC01E
:101F4000292F30E09E3018F42850310902C02E505D
:101F5000310981E001C0880F2A95EAF78093AC032C
:101F60008091B3039091B4030197F1F78091B1038D
:101F70009091B203892B21F18091B7049091B8041C
:101F800023E087399207E1F0009711F00E94020EDA
:101F90008091B5038E7F8093B5031092B6041092A2
:101FA000B50487E993E09093B8048093B704E09177
:101FB000AA03F091AB0390818091AC03892B8083BD
:101FC0006CE072E087E993E00E94F70C60EE71E04C
:101FD00087E993E00E94F70C64EB71E087E993E0F6
:101FE0000E94F70C68E871E087E993E00E94F70C23
:101FF0006CE571E087E993E00E94F70C69E471E019
:1020000087E993E00E94F70C6EE271E087E993E0C4
:102010000E94F70C67EA71E087E993E00E941B0DCC
:1020200063E171E087E993E00E94F70C6CEC71E0EA
:1020300087E993E00E941B0D68EF70E087E993E069
:102040000E94F70C6CED71E087E993E00E941B0D94
:102050006DED70E087E993E00E94F70C62EE71E0AD
:1020600087E993E00E941B0D62EC70E087E993E042
:102070000E94F70C66EF71E087E993E00E941B0D68
:1020800060E089E00E941F0663E672E087E993E062
:102090000E94F70C62E0809144040E941F060E9497
:1020A0003607DC01CB01805D9740A109B10980931F
:1020B000480490934904A0934A04B0934B0487E3E7
:1020C000809351046EE572E087E993E00E94F70C7B
:1020D0006EE372E087E993E00E94F70C69E372E037
:1020E00087E993E00E94F70C82E090E09093D6039A
:1020F0008093D5031092D8031092D70308E010E024
:102100001093DA030093D9031092DC031092DB03DF
:102110006BEF71E089E194E00E94D20810922004F4
:1021200010921F0461E072E081E294E00E94D20804
:10213000109228041092270467E072E081E194E095
:102140000E94D208109318040093170481E090E0D5
:102150009093DE038093DD031092E0031092DF037F
:102160006DE072E081EE93E00E94D2086EE172E0D1
:1021700087EE93E00E94D2086FEF71E08DEE93E05E
:102180000E94D2086BE072E083EF93E00E94D208D5
:102190006FE272E089EF93E00E94D20868E372E098
:1021A0008FEF93E00E94D20869E572E085E094E049
:1021B0000E94D2086AE772E08BE094E00E94D208A5
:1021C00081E08093290460E08DE00E94310490E476
:1021D000892E91E0992E6AEC73E087E993E00E94E2
:1021E000F70C0E9436072B013C0161E08DE00E9454
:1021F0003104809155048B838EE491E09A83898326
:1022000080915604909157049D838C83809158044B
:1022100090915904A0915A04B0915B048E839F83DE
:10222000A887B9876DED74E0CE0101960E942B0B53
:10223000809155048B83AEE4B1E0BA83A983809189
:102240005604909157049D838C83809158049091FB
:102250005904A0915A04B0915B048E839F83A88790
:10226000B98769EB74E0CE0101960E943D0CC090E5
:10227000CD04D090CE04E090CF04F090D004A7011C
:102280009601C701B6010E94E616811115C020E033
:1022900030E040E252ECC701B6010E94281487FDED
:1022A0000BC020E030E040EA52E4C701B6010E94D2
:1022B000E11618160CF064C061E872E087E993E05B
:1022C0000E94F70C80915E048B839A8289828091B0
:1022D0005F04909160049D838C8380916104909150
:1022E0006204A0916304B09164048E839F83A887E5
:1022F000B9876DED74E0CE0101960E94AD0A809120
:102300005E048B839A82898280915F04909160043D
:102310009D838C838091610490916204A0916304F9
:10232000B09164048E839F83A887B98769EB74E0BA
:10233000CE0101960E94BE0BC090CD04D090CE0479
:10234000E090CF04F090D004A7019601C701B60138
:102350000E94E616811120C020E030E0A901C701EB
:10236000B6010E94281487FD17C020E030E048EC39
:1023700052E4C701B6010E94E11618166CF016C2AD
:1023800064EA72E087E993E00E94F70C42E0C7013B
:10239000B6010E94190396CF60EC72E087E993E0E2
:1023A0000E94F70C8091370490913804892B89F4AE
:1023B00068EF72E08AEF92E00E94F70C6BE972E03E
:1023C0008AEF92E00E941B0D60E070E080E090ECEC
:1023D0003FC1009131040E94D7066B017C0110912E
:1023E000D402112339F18091CF029091D002A091B3
:1023F000D102B091D202892B8A2B8B2B81F30E94C0
:10240000D7062091CF023091D0024091D102509155
:10241000D202DC01CB018C199D09AE09BF09281736
:1024200039074A075B07D8F68091CE020E947E04E6
:1024300010E08FC081E08093D4028093D602BFEF7A
:10244000B093D3021092F8028093F7028093F902BE
:102450008091F902000F082B0093F9028091D502B8
:10246000813099F51092D5020E94D7066B017C014C
:102470008091F9028093BB008091CF029091D002AD
:10248000A091D102B091D202892B8A2B8B2BA9F07B
:102490000E94D7062091CF023091D0024091D10204
:1024A0005091D202DC01CB018C199D09AE09BF0904
:1024B000281739074A075B07A0F18091BC0083FD0C
:1024C000D7CF25EC2093BC0003C085EE8093BC00E1
:1024D0000E94D7066B017C018091D402813031F5D6
:1024E0008091CF029091D002A091D102B091D202FE
:1024F000892B8A2B8B2B81F30E94D7062091CF0248
:102500003091D0024091D1025091D202DC01CB0136
:102510008C199D09AE09BF09281739074A075B07BF
:10252000D8F68091CE020E947E0413C08091F802FA
:10253000823018F48091F80201C082E0E7EDF2E009
:10254000ACEAB2E010E0181721F091919D931F5F63
:10255000FACF1092CD021093CC02123011F5809177
:10256000390490913A04DC01ED91FC910284F385E9
:10257000E02D0995382E212C8091390490913A0450
:10258000DC01ED91FC910284F385E02D099582290F
:102590009329BC0180E090E00E942D146B017C0126
:1025A00006C0C12CD12C80E8E82E8FEBF82E0E94BB
:1025B000360760933B0470933C0480933D049093F2
:1025C0003E0420E030E040E85FEBC701B6010E9426
:1025D00028148823C9F1609132046534A9F070E0B1
:1025E00080E090E00E942D149B01AC0160E070E05F
:1025F0008AE892E40E9440169B01AC01C701B60133
:102600000E948E146B017C018091370490913804F4
:102610008132910511F0419751F420E030E040E023
:102620005FE3C701B6010E948E146B017C0120910B
:102630003304309134044091350450913604C7017D
:10264000B6010E94401604C060E070E080E89FEB95
:102650000E94B2166B01E12CF12CC701B6010E9459
:102660002D149B01AC010E94E616882339F06BE122
:1026700073E087E993E00E94F70C0BC06AE373E014
:1026800087E993E00E94F70C4AE0C701B6010E9477
:10269000D6028EE00E94C0067C015C01C12CD12CC8
:1026A000C601B5010E942D149B01AC010E94E616E3
:1026B000882339F062E573E087E993E00E94F70C24
:1026C00030C0B3E9EB16B4E0FB0690F4E6E6F1E0C7
:1026D00060E070E0819191918E159F0510F0162FAA
:1026E00008C06F5F7F4F6C307105A1F71FEF01C00D
:1026F0001CE068E773E087E993E00E94F70C4AE08A
:10270000C601B5010E94D6026EE972E087E993E046
:102710000E941B0D612F70E080E090E04AE00E9473
:10272000D6028FE00E94C0067C0167E973E087E96A
:1027300093E00E94F70CB701FF0C880B990B0E94E5
:102740002F1420E030E040EA50E40E948E1420E094
:1027500030E040E85AE30E948E142EE830E441ED68
:102760005EE30E94401642E00E94190360E08DE0A3
:102770000E9431040E9436076B017C0162EB73E01A
:1027800087E993E00E94F70CC701B6016419750947
:10279000860997094AE00E94D60268E873E180E062
:1027A00090E00E94FC060E94FD0915CD60EE72E0EB
:1027B00087E993E00E94F70C42E0C701B6010E944E
:1027C0001903F0CDCF93DF93CAE0D1E0D093980303
:1027D000C093970387E993E00E94020ED093B7035A
:1027E000C093B60386EB93E00E94020E81E294E070
:1027F0000E94F30889E194E00E94F30881E194E0EB
:102800000E94F3088BE094E00E94F30885E094E0D6
:102810000E94F3088FEF93E00E94F30889EF93E0A2
:102820000E94F30883EF93E00E94F3088DEE93E09B
:102830000E94F30887EE93E00E94F30881EE93E094
:102840000E94F3088AE294E0DF91CF910C94F308A0
:102850000E946A1408F481E00895E89409C097FB87
:102860003EF490958095709561957F4F8F4F9F4F67
:102870009923A9F0F92F96E9BB279395F6958795AB
:1028800077956795B795F111F8CFFAF4BB0F11F46E
:1028900060FF1BC06F5F7F4F8F4F9F4F16C0882315
:1028A00011F096E911C0772321F09EE8872F762F4B
:1028B00005C0662371F096E8862F70E060E02AF08C
:1028C0009A95660F771F881FDAF7880F9695879578
:1028D00097F90895990F0008550FAA0BE0E8FEEF4D
:1028E00016161706E807F907C0F012161306E407D4
:1028F000F50798F0621B730B840B950B39F40A26CD
:1029000061F0232B242B252B21F408950A2609F4AA
:10291000A140A6958FEF811D811D08950E94A114ED
:102920000C9412150E94041538F00E940B1520F02B
:10293000952311F00C94FB140C94011511240C94A4
:1029400046150E94231570F3959FC1F3950F50E033
:10295000551F629FF001729FBB27F00DB11D639F51
:10296000AA27F00DB11DAA1F649F6627B00DA11DF7
:10297000661F829F2227B00DA11D621F739FB00D9D
:10298000A11D621F839FA00D611D221F749F33270D
:10299000A00D611D231F849F600D211D822F762FA6
:1029A0006A2F11249F5750409AF0F1F088234AF083
:1029B000EE0FFF1FBB1F661F771F881F91505040EF
:1029C000A9F79E3F510580F00C94FB140C9446151A
:1029D0005F3FE4F3983ED4F3869577956795B79576
:1029E000F795E7959F5FC1F7FE2B880F911D969590
:1029F000879597F9089597F99F6780E870E060E000
:102A000008959FEF80EC089500240A941616170687
:102A100018060906089500240A94121613061406CF
:102A200005060895092E0394000C11F4882352F032
:102A3000BB0F40F4BF2B11F460FF04C06F5F7F4FEA
:102A40008F4F9F4F089557FD9058440F551F59F0D1
:102A50005F3F71F04795880F97FB991F61F09F3F8B
:102A600079F087950895121613061406551FF2CFB4
:102A70004695F1DF08C0161617061806991FF1CF04
:102A800086957105610508940895E894BB2766272B
:102A90007727CB0197F908952F923F924F925F923B
:102AA0006F927F928F929F92AF92BF92CF92DF925E
:102AB000EF92FF920F931F93CF93DF93CDB7DEB7C3
:102AC000CA1BDB0B0FB6F894DEBF0FBECDBF099457
:102AD0002A88398848885F846E847D848C849B84AE
:102AE000AA84B984C884DF80EE80FD800C811B81BC
:102AF000AA81B981CE0FD11D0FB6F894DEBF0FBEEB
:102B0000CDBFED01089597FB072E16F4009407D072
:102B100077FD09D00E94B91507FC05D03EF49095C9
:102B200081959F4F0895709561957F4F0895A1E21B
:102B30001A2EAA1BBB1BFD010DC0AA1FBB1FEE1F37
:102B4000FF1FA217B307E407F50720F0A21BB30B82
:102B5000E40BF50B661F771F881F991F1A9469F7FE
:102B600060957095809590959B01AC01BD01CF015A
:102B70000895AA1BBB1B51E107C0AA1FBB1FA617C4
:102B8000B70710F0A61BB70B881F991F5A95A9F716
:102B900080959095BC01CD010895EE0FFF1F059023
:102BA000F491E02D09945058BB27AA270E94EB15F9
:102BB0000C9412150E94041538F00E940B1520F099
:102BC00039F49F3F19F426F40C9401150EF4E095A6
:102BD000E7FB0C94FB14E92F0E94231558F3BA1756
:102BE000620773078407950720F079F4A6F50C9423
:102BF00045150EF4E0950B2EBA2FA02D0B01B9014F
:102C000090010C01CA01A0011124FF27591B99F062
:102C1000593F50F4503E68F11A16F040A22F232F6E
:102C2000342F4427585FF3CF469537952795A795BE
:102C3000F0405395C9F77EF41F16BA0B620B730B65
:102C4000840BBAF09150A1F0FF0FBB1F661F771FD6
:102C5000881FC2F70EC0BA0F621F731F841F48F48B
:102C6000879577956795B795F7959E3F08F0B0CF14
:102C70009395880F08F09927EE0F979587950895FB
:102C80000E9454160C9412150E940B1558F00E94C5
:102C9000041540F029F45F3F29F00C94FB14511106
:102CA0000C9446150C9401150E94231568F3992382
:102CB000B1F3552391F3951B550BBB27AA27621738
:102CC0007307840738F09F5F5F4F220F331F441F45
:102CD000AA1FA9F335D00E2E3AF0E0E832D0915079
:102CE0005040E695001CCAF72BD0FE2F29D0660F66
:102CF000771F881FBB1F261737074807AB07B0E8A9
:102D000009F0BB0B802DBF01FF2793585F4F3AF0AE
:102D10009E3F510578F00C94FB140C9446155F3FD0
:102D2000E4F3983ED4F3869577956795B795F79534
:102D30009F5FC9F7880F911D9695879597F908951C
:102D4000E1E0660F771F881FBB1F621773078407B8
:102D5000BA0720F0621B730B840BBA0BEE1F88F7C7
:102D6000E09508950E942B1588F09F5798F0B92F91
:102D70009927B751B0F0E1F0660F771F881F991FB0
:102D80001AF0BA95C9F714C0B13091F00E944515F8
:102D9000B1E008950C944515672F782F8827B85F08
:102DA00039F0B93FCCF3869577956795B395D9F708
:102DB0003EF490958095709561957F4F8F4F9F4F12
:102DC00008950E946A1408F48FEF08950E946A140F
:102DD000880B990B08950F931F93CF93DF93823045
:102DE000910510F482E090E0E0914805F0914905EA
:102DF00020E030E0A0E0B0E0309719F1408151814F
:102E00000281138148175907C8F08417950769F4A0
:102E1000109731F012960C93129713961C9327C0BB
:102E2000009348051093490522C02115310519F07A
:102E30004217530718F49A01BD01EF01DF01F801B1
:102E4000DBCF21153105F9F0281B390B2430310572
:102E500080F48A819B816115710521F0FB019383C8
:102E6000828304C09093490580934805FE01329601
:102E700044C0FE01E20FF31F819391932250310968
:102E8000398328833AC02091460530914705232B8A
:102E900041F42091020130910301309347052093C2
:102EA000460520910001309101012115310541F4C1
:102EB0002DB73EB74091040150910501241B350BFD
:102EC000E0914605F0914705E217F307A0F42E1BA9
:102ED0003F0B2817390778F0AC014E5F5F4F24177E
:102EE000350748F04E0F5F1F509347054093460546
:102EF0008193919302C0E0E0F0E0CF01DF91CF91A8
:102F00001F910F910895CF93DF93009709F481C02B
:102F1000FC01329713821282A0914805B0914905B5
:102F2000109781F420813181820F931F20914605F3
:102F3000309147052817390751F5F0934705E0937D
:102F4000460567C0ED0120E030E0CE17DF0740F412
:102F50004A815B819E0141155105F1F0EA01F5CFEF
:102F6000D383C28340815181840F951FC817D9072D
:102F700059F488819981840F951F029691838083EB
:102F80008A819B81938382832115310529F4F093F3
:102F90004905E09348053DC0E901FB83EA83499177
:102FA0005991C40FD51FEC17FD0761F48081918101
:102FB000840F951F0296E90199838883828193810A
:102FC0009B838A83E0E0F0E012968D919C911397A9
:102FD000009719F0FD01DC01F7CF8D919C911197BD
:102FE0009D012E5F3F4F820F931F20914605309128
:102FF00047052817390769F4309729F410924905D5
:103000001092480502C013821282B0934705A09324
:103010004605DF91CF910895A0E0B0E0E2E1F8E14C
:103020000C945015EC01009721F4CB010E94EB1693
:10303000B4C0FC01E60FF71F9C0122503109E217D2
:10304000F30708F4A8C0D9010D911C911197061738
:103050001707B0F00530110508F49BC0C8010497AC
:103060008617970708F495C002501109061B170B25
:10307000019311936D937C93CF010E94831789C0B4
:103080005B01A01AB10A4C01800E911EA091480567
:10309000B0914905612C712CE12CF12C109709F4A9
:1030A00046C08D919C911197A815B905B1F56C0199
:1030B00042E0C40ED11CCA14DB0478F14C018A181A
:1030C0009B08640142E0C40ED11C1296BC9012977A
:1030D0001396AC91B5E0CB16D10440F0B282A38335
:1030E00091828082D9016D937C9309C00E5F1F4F3E
:1030F000800F911FF90191838083EB2DFA2FE1144A
:10310000F10431F0D7011396FC93EE93129741C06E
:10311000F0934905E09348053CC06816790608F429
:103120003C017D0112960D90BC91A02DB7CF8091EE
:1031300046059091470588169906E1F466167706CC
:10314000C8F48091000190910101009741F48DB77E
:103150009EB74091040150910501841B950BE8171F
:10316000F907C8F4F0934705E0934605F901718328
:1031700060830FC0CB010E94EB167C01009759F0D1
:10318000A801BE010E94D718CE010E948317C70173
:1031900004C0CE0102C080E090E0CDB7DEB7EEE023
:1031A0000C946C1581E090E0F8940C94F618FB01F7
:1031B000DC0102C001900D9241505040D8F70895B3
:1031C000FB01DC0101900D920020E1F70895FB0165
:1031D000DC014150504048F001900D920020C9F7A9
:1031E00001C01D9241505040E0F7089511E0C1EF39
:1031F000D1E004C0FE010E94CD152196C23FD10747
:06320000C9F7F894FFCFAE
:1032060000004A052000000000001F0AFB08A90A6A
:1032160081026F0A870A070A00000000B802AD02A1
:10322600A90A8102A50291028202000000008E090D
:10323600FB082509DB095609340948090000000086
:10324600180EF30CAC0ABE0BAD0A00000000190EF6
:10325600F50CAC0A3D0C2B0B000000000000000032
:10326600AC0A460846083200E3003E019801F70121
:103276005E02B8021B037103D003370492046E6129
:103286006E00696E66006F76660044485431310000
:103296004448543132004448543231004448543290
:1032A60032004448543F0041726475696E6F205085
:1032B600726F204D696E692041746D6567613332A6
:1032C60038702035562031364D487A004C6F5261A1
:1032D600202D20524846304D30303300302E312ECE
:1032E600300044485432322C20475933302C205574
:1032F600564D333041006E6F6E65003931372E32D0
:10330600003931372E39003932332E33003030420E
:10331600303743353844354343363742300037304B
:103326004233443537454430303235463644003230
:10333600363033313845410033343242393039374B
:1033460030433739454133443136324444364442BA
:1033560034464431333043410041443946413137E4
:1033660035304438433331303641363442343944CB
:1033760032423041453238334500393744463733D7
:1033860037434635373133334434394536323539A8
:1033960035424436353236313336000D0A00203D8B
:0433A6003E200000C5
:00000001FF
