:100000000C94B6020C94DE020C94DE020C94D80719
:100010000C94D8070C94D8070C94DE020C94DE02E2
:100020000C94DE020C94DE020C94DE020C94DE02D0
:100030000C94DE020C94DE020C94DE020C94DE02C0
:100040000C945F0F0C94DE020C94A6070C948007AE
:100050000C94DE020C94DE020C94DE020C94DE02A0
:100060000C940C0A0C94DE020A09416374756174E5
:100070006F72206C6973742E2E2E2E2E2E2E2E2E25
:100080003A20000A0953656E736F72206C697374AD
:100090002E2E2E2E2E2E2E2E2E2E2E3A20000A09F9
:1000A0004669726D776172652076657273696F6EED
:1000B0002E2E2E2E2E2E3A20000A09436F6D6D75BE
:1000C0006E69636174696F6E206465766963652E1D
:1000D0002E3A20000A094D43552064657669636510
:1000E00020626F6172642E2E2E2E2E2E3A20005327
:1000F00074617274696E67204154532D30312E2E15
:100100002E002323232323232323232323232323D7
:1001100023232323232323232323232323232323AF
:100120002323232323232323232323230A002320DE
:10013000202020202020204167726F546563684C86
:1001400061622028494653432F4C6167657329201B
:1001500020202020202020230A0023202020416767
:10016000726F546563682053746174696F6E2030D8
:1001700031202854696E792076657273696F6E2913
:10018000202020230A00232020202020202020209F
:10019000202020202020204154532D3031202020A9
:1001A000202020202020202020202020202020234C
:1001B0000A000A2323232323232323232323232364
:1001C00023232323232323232323232323232323FF
:1001D000232323232323232323232323230A005BF3
:1001E0004248313735305D204552524F523A2075E2
:1001F0006E646566696E6564206572726F72005B1D
:100200004248313735305D204552524F523A206FC7
:1002100074686572206572726F72005B4248313794
:1002200035305D204552524F523A20726563656900
:10023000766564204E41434B206F6E207472616E70
:10024000736D6974206F662064617461005B42485D
:10025000313735305D204552524F523A2072656336
:100260006569766564204E41434B206F6E20747241
:10027000616E736D6974206F66206164647265736A
:1002800073005B4248313735305D204552524F5242
:100290003A20746F6F206C6F6E6720666F722074E7
:1002A00072616E736D697420627566666572005B5B
:1002B0004248313735305D204552524F523A207511
:1002C0006E646566696E6564206572726F72005B4C
:1002D0004248313735305D204552524F523A206FF7
:1002E00074686572206572726F72005B42483137C4
:1002F00035305D204552524F523A20726563656930
:10030000766564204E41434B206F6E207472616E9F
:10031000736D6974206F662064617461005B42488C
:10032000313735305D204552524F523A2072656365
:100330006569766564204E41434B206F6E20747270
:10034000616E736D6974206F662061646472657399
:1003500073005B4248313735305D204552524F5271
:100360003A20746F6F206C6F6E6720666F72207416
:1003700072616E736D697420627566666572005B8A
:100380004F4B5D000A09496E697469616C697A694D
:100390006E67206C696768742073656E736F722E68
:1003A0002E2E20005B4F4B5D000A09496E6974696F
:1003B000616C697A696E67204448542073656E7376
:1003C0006F722E2E2E20000A094572726F722072F3
:1003D000656164696E67206169722074656D70651E
:1003E000726174757265212121000A0941697220C8
:1003F00074656D70657261747572652028696E2010
:100400006F43293A20000A094572726F72207265A3
:100410006164696E67206169722068756D696469DD
:100420007479212121000A094169722068756D697A
:10043000646974792028696E2025293A20005B427E
:1004400048313735305D20446576696365206973CE
:10045000206E6F7420636F6E6669677572656421C4
:10046000000A094572726F722072656164696E6775
:10047000206C69676874206C6576656C21212100A9
:100480000A094C756D696E6F736974792028696EFD
:10049000204C5558293A20000A094572726F722083
:1004A00072656164696E6720555620726164696186
:1004B00074696F6E20696E646578212121000A09D4
:1004C000555620726164696174696F6E2028696E87
:1004D00020555620696E646578293A20000A094241
:1004E00061747465727920766F6C74616765202819
:1004F000696E2056293A20000A52656164696E6768
:100500002073656E736F72732E2E2E2E0000000006
:1005100000240027002A000000000800020100005B
:10052000030407000000000000000000000000239A
:10053000002600290000000000250028002B0004F0
:10054000040404040404040202020202020303037A
:100550000303030102040810204080010204081074
:1005600020010204081020009215471511241FBE17
:10057000CFEFD8E0DEBFCDBF25E0A4EAB2E001C0F6
:100580001D92AF34B207E1F712E0A0E0B1E0E2E97A
:10059000F7E302C005900D92A43AB107D9F712E033
:1005A000C5EBD2E004C02197FE010E949318C43B22
:1005B000D107C9F70E94A90F0C94BC1B0C94000032
:1005C000CF92DF92EF92FF920F931F93CF93DF931F
:1005D0006C017A018B01C0E0D0E0CE15DF0581F01F
:1005E000D8016D918D01D601ED91FC910190F081C2
:1005F000E02DC6010995892B11F02196EECF7E01E1
:10060000C701DF91CF911F910F91FF90EF90DF9085
:10061000CF900895FC01538D448D252F30E0842F19
:1006200090E0821B930B541710F0CF96089501971A
:100630000895FC01918D828D981761F0828DDF0104
:10064000A80FB11D5D968C91928D9F5F9F73928FC5
:1006500090E008958FEF9FEF0895FC01918D828DBA
:10066000981731F0828DE80FF11D858D90E0089587
:100670008FEF9FEF0895FC01918D228D892F90E0DF
:10068000805C9F4F821B91098F739927089582EF99
:1006900093E00E943B0321E0892B09F420E0822FA4
:1006A0000895FC01848DDF01A80FB11DA35ABF4F2F
:1006B0002C91848D90E001968F739927848FA68961
:1006C000B7892C93A089B1898C91837080648C93B5
:1006D000938D848D981306C00288F389E02D808164
:1006E0008F7D80830895EF92FF920F931F93CF9396
:1006F000DF93EC0181E0888F9B8D8C8D981305C072
:10070000E889F989808185FD26C0F62E0B8D10E0E1
:100710000F5F1F4F0F731127E02E8C8DE8120CC056
:100720000FB607FCFACFE889F989808185FFF5CFFC
:10073000CE010E945103F1CF8B8DFE01E80FF11D18
:10074000E35AFF4FF0829FB7F8940B8FEA89FB8939
:10075000808180620AC09FB7F894EE89FF89608328
:10076000E889F98980818370806480839FBF81E0FC
:1007700090E0DF91CF911F910F91FF90EF9008953E
:10078000CF93DF93EC01888D8823C9F0EA89FB8938
:10079000808185FD05C0A889B9898C9186FD0FC02F
:1007A0000FB607FCF5CF808185FFF2CFA889B98904
:1007B0008C9185FFEDCFCE010E945103E7CFDF91F1
:1007C000CF91089580E090E0892B29F00E944703A3
:1007D00081110C94000008952091A6023091A70287
:1007E0002817390771F49091A4028091A5029817F7
:1007F00041F0E091A402F0E0EC50FD4F808190E0E8
:1008000008958FEF9FEF08951F93CF93DF93DC013F
:100810005C968D919C915D97009739F421E030E0D2
:1008200013963C932E9312973BC05196ED91FC91F9
:10083000529750962C915097322F30951FB75E9655
:100840004C915E97742F727041FD6095F8944081D1
:10085000772311F0422B01C043234083EC01219701
:10086000F1F748E0508160FF02C0522B01C05323D2
:100870005083EC012197F1F76695415099F78081FB
:10088000772319F08323808302C0282B20831FBF86
:100890005C968D919C915D970197F1F781E090E0D6
:1008A000DF91CF911F9108952091A6023091A70268
:1008B0002817390771F48091A5022091A40290E0D5
:1008C000805C9F4F821B910960E470E00E94491890
:1008D000089580E090E008952091A6023091A7024B
:1008E00028173907B9F49091A4028091A5029817AE
:1008F00089F0E091A402F0E0EC50FD4F808120915E
:10090000A40230E02F5F3F4F2F7333272093A402C0
:1009100090E008958FEF9FEF0895089580E090E0B4
:10092000089508950E94981BFC0180819181009791
:1009300011F00C94491A08950C94491A0C94491A10
:100940000F931F93CF93DF938C01EB0188E2DB01C0
:100950001D928A95E9F7F801838194810E941B0911
:1009600081E090E0A0E0B0E08C879D87AE87BF87F4
:10097000F80185819681A781B085888B998BAA8B98
:10098000BB8B8CE090E0A0E0B0E08C8B9D8BAE8BBD
:10099000BF8BBE01838194810E940409D801139604
:1009A000ED91FC91149783898C3069F038F48B3089
:1009B000A1F580E090E0A0EAB2E409C08531C1F081
:1009C0008631B1F02AC080E090E0AEEBB2E4888FCF
:1009D000998FAA8FBB8F80E090E0A0EAB1E48C8F62
:1009E0009D8FAE8FBF8F80E090E0A0EAB0E410C092
:1009F00080E090E0A8ECB2E4888F998FAA8FBB8F3B
:100A00001C8E1D8E1E8E1F8E8DEC9CECACECBDE3FF
:100A100088A399A3AAA3BBA30CC0188E198E1A8E03
:100A20001B8E1C8E1D8E1E8E1F8E18A219A21AA23E
:100A30001BA2DF91CF911F910F9108950F931F93E8
:100A4000CF93DF938C01EB0188E2DB011D928A9545
:100A5000E9F7F801838194810E941B0981E090E00D
:100A6000A0E0B0E08C879D87AE87BF87F8018581C5
:100A70009681A781B085888B998BAA8BBB8B8DE0E3
:100A800090E0A0E0B0E08C8B9D8BAE8BBF8BBE0165
:100A9000838194810E940409D8011396ED91FC9101
:100AA000149783898C30F1F0A0F48B3009F048C0A2
:100AB00080E090E0A8E4B2E4888F998FAA8FBB8F82
:100AC0001C8E1D8E1E8E1F8E80E090E0A0E0B0E494
:100AD00032C08531E1F0863199F580E090E0AAEFEF
:100AE000B2E419C080E090E0A0E7B2E4888F998F6B
:100AF000AA8FBB8F80E090E0A0EAB1EC8C8F9D8F35
:100B0000AE8FBF8F80E090E0A0E0BFE314C080E034
:100B100090E0A0EAB2E4888F998FAA8FBB8F80E023
:100B200090E0A0E2B2EC8C8F9D8FAE8FBF8F8DECEA
:100B30009CECACECBDE388A399A3AAA3BBA30CC017
:100B4000188E198E1A8E1B8E1C8E1D8E1E8E1F8E59
:100B500018A219A21AA21BA2DF91CF911F910F9187
:100B60000895CF92DF92EF92FF920F931F93CF934E
:100B7000DF938C01EB0184E2FB0111928A95E9F786
:100B800084E290E0A0E0B0E088839983AA83BB83ED
:100B9000F80185819681A781B0858C839D83AE8382
:100BA000BF838CE090E0A0E0B0E088879987AA87B7
:100BB000BB870E94E80B688B798B8A8B9B8BF80133
:100BC00003811481C8010E94F40B8823B9F1F80154
:100BD00086818B3098F18D30A0F08551823070F590
:100BE000F8016081718176276727762780E090E0A1
:100BF0000E94F3162DEC3CEC4CEC5DE30E94541784
:100C000021C0F801618170E080E090E00E94F5165B
:100C10002DEC3CEC4CEC5DE30E9454176B017C0125
:100C2000F801608170E080E090E00E94F5169B0181
:100C3000AC01C701B6010E949A1804C060E070E0E0
:100C400080EC9FE76C8B7D8B8E8B9F8B81E0DF919F
:100C5000CF911F910F91FF90EF90DF90CF9008956B
:100C60008F929F92AF92BF92EF92FF921F93CF937A
:100C7000DF937C01EB0184E2FB0111928A95E9F795
:100C800084E290E0A0E0B0E088839983AA83BB83EC
:100C9000F70185819681A781B0858C839D83AE8382
:100CA000BF838DE090E0A0E0B0E088879987AA87B5
:100CB000BB870E94E80B688B798B8A8B9B8BF70133
:100CC000E380F480C7010E94F40B882309F46BC011
:100CD000F70186818C3009F445C018F48B30C9F0D7
:100CE00062C08551823008F05EC0F7011281612F29
:100CF0006F7770E0762F66278381682B80E090E025
:100D00000E94F3162DEC3CEC4CEC5DE30E94541772
:100D100046C0F701628170E080E090E00E94F31627
:100D20004B015C01F701138117FF0AC09B01AC0165
:100D300060E070E080E89FEB0E9499184B015C0135
:100D4000612F6F7070E080E090E00E94F5162DEC4E
:100D50003CEC4CEC5DE30E945417A50194010E9409
:100D60009A1825C0F701128163816F7070E080E0EE
:100D700090E00E94F5162DEC3CEC4CEC5DE30E94FB
:100D800054174B015C01612F70E080E090E00E94FD
:100D9000F3169B01AC01C501B4010E949A1817FF1C
:100DA00006C0905804C060E070E080EC9FE76C8B58
:100DB0007D8B8E8B9F8B81E0DF91CF911F91FF9078
:100DC000EF90BF90AF909F908F900895EF92FF9219
:100DD0000F931F93CF93DF93EC017B018A018881EE
:100DE0009981009729F02A813B8124173507F8F46F
:100DF000B8016F5F7F4F0E94D21A009759F0998314
:100E000088831B830A832C813D81232B81F4FC0181
:100E100010820DC088819981009711F00E94491AB3
:100E2000198218821D821C821B821A8207C01D83B0
:100E30000C83B701888199810E94A61BCE01DF91A6
:100E4000CF911F910F91FF90EF900895CF93DF9373
:100E5000EC016115710559F0FB0101900020E9F7E3
:100E60003197AF01461B570B0E94E6060CC08881E4
:100E70009981009711F00E94491A198218821D82E7
:100E80001C821B821A82CE01DF91CF910895EF92CE
:100E9000FF920F931F93CF93DF938C017B01C0E0F0
:100EA000D0E0F701EC0FFD1F6491662361F0D801DB
:100EB000ED91FC910190F081E02DC8010995892BFD
:100EC00011F02196EECFCE01DF91CF911F910F91BE
:100ED000FF90EF9008956115710579F0FB01019085
:100EE0000020E9F73197AF01461B570BDC01ED916C
:100EF000FC910280F381E02D099480E090E0089558
:100F00001F920F920FB60F9211242F933F934F937E
:100F10005F936F937F938F939F93AF93BF93EF9361
:100F2000FF9382EF93E00E945103FF91EF91BF91F5
:100F3000AF919F918F917F916F915F914F913F9171
:100F40002F910F900FBE0F901F9018951F920F9228
:100F50000FB60F9211242F938F939F93EF93FF93CC
:100F6000E0910204F09103048081E0910804F09183
:100F7000090482FD12C0908180910B048F5F8F73F2
:100F800020910C04821751F0E0910B04F0E0EE5038
:100F9000FC4F958F80930B0401C08081FF91EF91EE
:100FA0009F918F912F910F900FBE0F901F901895CA
:100FB0001F920F920FB60F9211242F933F934F93CE
:100FC0005F936F937F938F939F93AF93BF93EF93B1
:100FD000FF93E091A602F091A702309709F451C067
:100FE000968DA685B785858591FF04C09C91892340
:100FF00029F447C09C91892309F043C0A389B4898F
:101000009C918589809589238C93868997890197FE
:10101000F1F7608D718DA685B785558538E020E0A4
:10102000CB010197F1F7822F90E095958795282FB6
:101030004C91452309F02068315091F7868D81FD50
:1010400020958091A50290E001968F7399273091A9
:10105000A402381749F0A091A502B0E0AC50BD4FF2
:101060002C938093A50203C0868D8160868F828D2C
:10107000938D0197F1F7A389B4899C918589892B78
:101080008C93FF91EF91BF91AF919F918F917F9141
:101090006F915F914F913F912F910F900FBE0F90E5
:1010A0001F9018950895089540917F03262F30E0F2
:1010B000240F311D21323105DCF42091C803243086
:1010C000C9F4FC0180E090E0861758F430917F036A
:1010D0002191DC01A15ABC4FA30FB11D2C930196A5
:1010E000F3CF80917F03680F60937F0380E00895C2
:1010F00081E0089582E008950895E0915D03809174
:101100005C03E81730F4F0E0E45CFC4F808190E091
:1011100008958FEF9FEF089590915D0380915C0398
:10112000981750F4E92FF0E0E45CFC4F208130E0A8
:101130009F5F90935D0302C02FEF3FEFC9010895B9
:1011400080915C0390E020915D03821B91090895DA
:10115000CF92DF92EF92FF920F931F93CF93DF9383
:101160007C01CB018A012091CE03222389F0EB017F
:101170006B01C40ED51ECC15DD0569F06991D70150
:10118000ED91FC910190F081E02DC7010995F3CF1D
:10119000642F0E945408C801DF91CF911F910F91D5
:1011A000FF90EF90DF90CF900895CF93DF931F9241
:1011B000CDB7DEB769832091CE032223D1F02091F1
:1011C000F103203240F021E030E0FC013383228340
:1011D00080E090E015C08091CF03E82FF0E0E0536D
:1011E000FC4F998190838F5F8093CF038093F103AD
:1011F00005C061E0CE0101960E94540881E090E0B4
:101200000F90DF91CF910895FB01DC0153968C91F3
:101210008C3041F038F48B3029F480E492E4AFE074
:10122000B0E004C080E894E8AEE1B0E084A395A308
:10123000A6A3B7A30895CF93DF93EB01FC018389A5
:101240008C3089F038F48B30C1F44BE050E067E724
:1012500072E017C0853161F0863179F44BE050E0DF
:1012600069E872E00EC04BE050E06DE772E009C043
:101270004BE050E063E872E004C04BE050E06FE800
:1012800072E0CE010E94AD1B1B86DF91CF910895C5
:1012900090E0FC01E95EFA4F2491FC01ED5AFA4F0F
:1012A0003491FC01E15CFA4FE491EE2309F43CC077
:1012B000222339F1233091F038F42130A9F0223083
:1012C00001F584B58F7D12C0273091F02830A1F050
:1012D0002430B9F4809180008F7D03C0809180001C
:1012E0008F77809380000DC084B58F7784BD09C04F
:1012F0008091B0008F7703C08091B0008F7D809384
:10130000B000F0E0EE0FFF1FEB5CFA4FA591B49137
:101310009FB7F894611104C08C913095382302C0B6
:10132000EC913E2B3C939FBF08951F93CF93DF9387
:10133000C1E0C0935E03882399F1D091B800109169
:10134000BA008091BC008A7B8093BC0060E082E19F
:101350000E94480960E083E10E9448091092C80396
:10136000C093C7031092A20361E082E10E94480982
:1013700061E083E10E9448098091B9008E7F8093EB
:10138000B9008091B9008D7F8093B90088E4809383
:10139000B80085E48093BC001093BA00D093B800E5
:1013A000DF91CF911F91089585ED8093BC008091CE
:1013B000CA039091CB03A091CC03B091CD030796C3
:1013C000A11DB11D23E0B695A795979587952A9500
:1013D000D1F72091BC0024FF1CC04091CA0350915A
:1013E000CB036091CC037091CD03452B462B472B4B
:1013F00081F30097A105B10541F025E32A95F1F7A6
:1014000000000197A109B109E4CF8091C9030C94B0
:1014100095091092C80308951F920F920FB60F926C
:1014200011242F933F934F935F936F937F938F93E9
:101430009F93AF93BF93EF93FF938091B900887F01
:10144000803609F49CC068F5883209F45BC090F4DA
:10145000803109F454C038F4882309F4F2C088308C
:1014600009F44DC0F2C0883109F44CC0803209F44F
:101470005DC0EBC0803409F468C048F4803309F4DF
:1014800055C0883309F0E1C08093C603D4C08035CD
:1014900009F44FC0883509F45DC0883409F0D5C01F
:1014A000D2C0883909F4C3C0A8F4883709F467C0EA
:1014B00038F4883609F463C0803709F460C0C5C0C9
:1014C000883809F4B4C0803909F45FC0803809F065
:1014D000BCC05BC0803B09F484C038F4803A09F496
:1014E00066C0883A09F47DC0B0C0803C09F4A3C04E
:1014F000883C09F4A0C0883B09F486C0A6C080914E
:10150000A30310C09091C5038091C403981770F590
:10151000E091C50381E08E0F8093C503F0E0EC55A8
:10152000FC4F80818093BB0085EC82C08093C60312
:101530008AC0E091C50381E08E0F8093C50380913E
:10154000BB00F0E0EC55FC4F80839091C503809187
:10155000C4036AC0E091C50381E08E0F8093C50388
:101560008091BB00F0E0EC55FC4F80838091C70375
:10157000811169C081E08093A20384EA5DC083E0A9
:101580008093C8031092A103CFCF8091A103803232
:1015900008F04DC0E091A10381E08E0F8093A1037C
:1015A0008091BB00F0E0EF57FC4F8083BDCF85EC0E
:1015B0008093BC001092C8038091A103803230F464
:1015C000E091A103F0E0EF57FC4F10826091A1037E
:1015D00070E081E893E0E0E0F0E009951092A1036B
:1015E00034C084E08093C8031092800310927F037C
:1015F000E0E0F0E0099580917F03811105C081E072
:1016000080937F0310925F03E091800381E08E0F4F
:1016100080938003F0E0E15AFC4F80818093BB000F
:101620009091800380917F03981708F47DCF85E81F
:101630008093BC000AC085EC8093BC001092C80364
:1016400004C01092C6030E94D409FF91EF91BF918C
:10165000AF919F918F917F916F915F914F913F914A
:101660002F910F900FBE0F901F901895CF93DF937F
:1016700090E0FC01ED5AFA4F2491FC01E15CFA4F35
:101680008491882361F190E0880F991FFC01E35F4A
:10169000FA4FC591D491FC01EB5CFA4FA591B4913E
:1016A000611109C09FB7F8948881209582238883AF
:1016B000EC912E230BC0623061F49FB7F8948881BF
:1016C000322F309583238883EC912E2B2C939FBF50
:1016D00006C08FB7F894E8812E2B28838FBFDF9147
:1016E000CF9108958E3008F08E508770806480937B
:1016F0007C0080917A00806480937A0080917A00E7
:1017000086FDFCCF809178002091790090E0922BAB
:1017100008953FB7F8948091380390913903A091D0
:101720003A03B0913B0326B5A89B05C02F3F19F0A3
:101730000196A11DB11D3FBFBA2FA92F982F882751
:10174000820F911DA11DB11DBC01CD0142E0660FAC
:10175000771F881F991F4A95D1F708958F929F92FE
:10176000AF92BF92CF92DF92EF92FF926B017C011A
:101770000E94890B4B015C01C114D104E104F10406
:10178000F1F00E94890BDC01CB0188199909AA09A3
:10179000BB09883E9340A105B10570F321E0C21A50
:1017A000D108E108F10888EE880E83E0981EA11C9C
:1017B000B11CC114D104E104F10419F7DDCFFF908D
:1017C000EF90DF90CF90BF90AF909F908F90089553
:1017D0002FB7F894609134037091350380913603EC
:1017E000909137032FBF08958F929F92AF92BF922F
:1017F000CF92DF92EF92FF920F931F93CF93DF93DD
:10180000CDB7DEB7C054D1400FB6F894DEBF0FBEDF
:10181000CDBF8C010E94E80BF801C184D284E3841F
:10182000F4849B01AC012C193D094E095F09690143
:101830007A0130EDC31637E0D306E104F10410F469
:101840008189C2C0F8016187728783879487148277
:10185000138212821182108262E085810E94360B0F
:1018600061E070E080E090E00E94AE0B61E0F80182
:1018700085810E94360B60E0F80185810E9448094D
:10188000F80186818551823028F48BE291E101973D
:10189000F1F706C064E170E080E090E00E94AE0BDA
:1018A00062E0F80185810E94360BF801828990E0A0
:1018B0008230910538F0880F991F880F991F05977E
:1018C0000197F1F7F89460E0C8010E94220F6F3F82
:1018D0007F4F8F4F9F4F21F4F801118A789445C0B4
:1018E00061E0C8010E94220F6F3F7F4F8F4F9F4FD3
:1018F00099F39E012F5F3F4F79015E013FEBA31AE1
:101900003EEFB30A670160E0C8010E94220FF601B2
:10191000608371838283938361E0C8010E94220FF8
:10192000F6016483758386839783F8E0CF0ED11C1C
:10193000CA14DB0441F7789420E030E0F70180809E
:101940009180A280B3804481558166817781FFEFC9
:101950008F169F06AF06BF0631F04F3F8FEF580737
:101960006807780721F4F801118A80E02DC0F90199
:1019700083E0F595E7958A95E1F7E00FF11F808107
:10198000880F84169506A606B70608F48160808342
:101990002F5F3F4FF8E0EF0EF11C2832310571F652
:1019A000F801248130E04081818190E0840F911D15
:1019B0004281840F911D4381840F911D992728171F
:1019C000390789F681E0818BC05CDE4F0FB6F89451
:1019D000DEBF0FBECDBFDF91CF911F910F91FF9062
:1019E000EF90DF90CF90BF90AF909F908F90089531
:1019F000FC0111821082138212821582148240E04F
:101A000050E066E972E00C94E606DC01ED91FC9191
:101A10000190F081E02D09948F929F92AF92BF9236
:101A2000CF92DF92EF92FF920F931F93CF93DF93AA
:101A30001091F103113208F0C2C0D091F0030E945E
:101A4000890B6B017C01C091C803CC2311F18091FB
:101A5000CA039091CB03A091CC03B091CD03892B05
:101A60008A2B8B2B81F30E94890B8090CA03909064
:101A7000CB03A090CC03B090CD03DC01CB018C193B
:101A80009D09AE09BF0988169906AA06BB06D8F6B5
:101A900082C082E08093C80381E08093C7038FEF08
:101AA0008093C6031092C5031093C403A0EDB3E066
:101AB000E4EAF3E080E0181721F09D9191938F5FA5
:101AC000FACF1092A3039091A3038D2F880F892B37
:101AD0008093A3038091A203813089F51092A20321
:101AE0000E94890B6B017C018091A3038093BB0052
:101AF0008091CA039091CB03A091CC03B091CD0308
:101B0000892B8A2B8B2BA9F00E94890B0091CA0389
:101B10001091CB032091CC033091CD03DC01CB019C
:101B20008C199D09AE09BF09081719072A073B0739
:101B300090F18091BC0083FDD7CF85EC01C085EE8C
:101B40008093BC000E94890B6B017C018091C803CB
:101B5000823039F58091CA039091CB03A091CC03D8
:101B6000B091CD03892B8A2B8B2B81F30E94890B9B
:101B70000091CA031091CB032091CC033091CD0387
:101B8000DC01CB018C199D09AE09BF0908171907A3
:101B90002A073B07D8F68091C9030E949509C5E042
:101BA00013C08091C6038F3F79F08091C6038032C5
:101BB00041F08091C603803331F0C4E005C0C1E03C
:101BC00003C0C2E001C0C3E01092CF031092F10342
:101BD0001092CE038C2FDF91CF911F910F91FF9028
:101BE000EF90DF90CF90BF90AF909F908F9008952F
:101BF000CF93DF93BC0182EF93E00E944707EC0193
:101C000064E972E082EF93E00E946B078C0F9D1FE6
:101C1000DF91CF9108958F929F92AF92BF920F93D1
:101C20001F93CF93DF93CDB7DEB7A1970FB6F8948C
:101C3000DEBF0FBECDBF19A2423008F44AE08E01CC
:101C40000F5D1F4F842E912CA12CB12CA501940166
:101C50000E945D18E62FB901CA0101501109EA304E
:101C600014F4E05D01C0E95CD801EC93232B242B34
:101C7000252B61F7B8018FE894E00E946B07A196CD
:101C80000FB6F894DEBF0FBECDBFDF91CF911F918D
:101C90000F91BF90AF909F908F9008958F929F92D9
:101CA000AF92BF92CF92DF92EF92FF920F931F936A
:101CB000CF93DF936B017C01142F9B01AC010E9439
:101CC000AC19882319F067E972E027C04601570173
:101CD000E894B7F82FEF3FEF4FE75FE7C501B40196
:101CE0000E94AC1981110DC02FEF3FEF4FE75FE766
:101CF000C501B4010E94EE1618161CF46BE972E0DF
:101D00000CC02FEF3FEF4FE75FE4C701B6010E9421
:101D1000A719181694F46FE972E08FE894E0DF9148
:101D2000CF911F910F91FF90EF90DF90CF90BF90D8
:101D3000AF909F908F900C946B072FEF3FEF4FE782
:101D40005FECC701B6010E94EE1687FDE4CF20E0EC
:101D500030E0A901C701B6010E94EE1687FF0BC053
:101D60006DE28FE894E00E940404EC01F7FAF0942D
:101D7000F7F8F09402C0C0E0D0E000E060E070E06E
:101D800080E09FE3101741F020E030E040E251E4B2
:101D90000E9406190F5FF6CFA70196010E949A18BC
:101DA0006B017C010E9478194B015C014AE00E94A2
:101DB0000B0EC80FD91F1123B9F1C501B4010E9440
:101DC000F3169B01AC01C701B6010E9499186B0183
:101DD0007C016EE28FE894E00E940404C80FD91FD2
:101DE00020E030E040E251E4C701B6010E94541700
:101DF0004B015C010E9478196B01E12CF12C4AE047
:101E0000C701B6010E940B0EC80FD91FC701B6014A
:101E10000E94F3169B01AC01C501B4010E94991800
:101E20006B017C011150E1F6CE01DF91CF911F9142
:101E30000F91FF90EF90DF90CF90BF90AF909F9069
:101E40008F900895CF92DF92EF92FF921F93CF93DE
:101E5000DF93EC011F81662311F0912F01C090E008
:101E6000288530E0220F331F255D3A4FA0E0B0E017
:101E7000F90145915491FA0180818123AD0160E01F
:101E800070E089130FC01196CD84DE84EF84F8884A
:101E90004C155D056E057F0558F33FEF2FEF8FEF73
:101EA0009FEF03C03A2F252FCB01632F722FDF91B5
:101EB000CF911F91FF90EF90DF90CF9008951F92E8
:101EC0000F920FB60F9211242F933F938F939F93EE
:101ED000AF93BF938091340390913503A091360363
:101EE000B091370330914A0523E0230F2D3720F4BA
:101EF0000196A11DB11D05C026E8230F0296A11D64
:101F0000B11D20934A058093340390933503A09329
:101F10003603B09337038091380390913903A09131
:101F20003A03B0913B030196A11DB11D8093380384
:101F300090933903A0933A03B0933B03BF91AF91C1
:101F40009F918F913F912F910F900FBE0F901F90F7
:101F50001895CF93DF93CDB7DEB729970FB6F894D6
:101F6000DEBF0FBECDBF789484B5826084BD84B5DA
:101F7000816084BD85B5826085BD85B5816085BD84
:101F800080916E00816080936E001092810080913C
:101F900081008260809381008091810081608093C4
:101FA0008100809180008160809380008091B100E9
:101FB00084608093B1008091B00081608093B00014
:101FC00080917A00846080937A0080917A008260A8
:101FD00080937A0080917A00816080937A0080916A
:101FE0007A00806880937A001092C10061E08DE0F1
:101FF0000E94360B61E08DE00E9448091092AA040D
:102000001092A9041092A8041092A7041092A6049A
:102010001092A5048FE190E09093AC048093AB0400
:1020200090919B04963108F058C021E030E0309345
:10203000A6042093A5042DE130E03093A80420935A
:10204000A7042DE030E03093AA042093A904409126
:102050006800983058F031E09E3008F430E021E01C
:10206000822F01C0880F3A95EAF701C084E0842BE3
:1020700080936800983038F09E3040F0963148F0F8
:1020800020E030E008C02DE630E005C02BE630E06F
:1020900002C02CE630E03093A3042093A2049830D1
:1020A00030F481E001C0880F9A95EAF70EC0292F1D
:1020B00030E09E3018F42850310902C02E5031090A
:1020C00081E001C0880F2A95EAF78093A4048091EB
:1020D000AB049091AC040197F1F78091A904909121
:1020E000AA04892B49F1E091A602F091A70284E0AD
:1020F000EF38F80709F1309739F0A389B4899C913A
:102100008589809589238C938091AD048E7F8093FF
:10211000AD041092A5021092A4028FE894E090936F
:10212000A7028093A602E091A204F091A3049081FB
:102130008091A404892B808362EB71E08FE894E0A6
:102140000E94470766E871E08FE894E00E94470725
:102150006AE571E08FE894E00E9447076EE271E063
:102160008FE894E00E94470762E071E08FE894E016
:102170000E9447076FEE70E08FE894E00E944707E7
:1021800064ED70E08FE894E00E9447076EE771E02D
:102190008FE894E00E946B0769EB70E08FE894E0B1
:1021A0000E94470763EA71E08FE894E00E946B07A2
:1021B0006EE970E08FE894E00E94470763EB71E0FE
:1021C0008FE894E00E946B0763E870E08FE894E08A
:1021D0000E94470769EB71E08FE894E00E946B076B
:1021E00068E670E08FE894E00E9447076DEC71E0CC
:1021F0008FE894E00E946B0760E089E00E94360B54
:1022000069EA73E08FE894E00E94470762E08091FA
:102210001D050E94360B0E94E80BDC01CB01805D9E
:102220009740A109B1098093210590932205A093BD
:102230002305B093240587E380932A0564EA73E0BD
:102240008FE894E00E94470764E873E08FE894E029
:102250000E94470783E280930A0501E00093CE03C2
:102260008093F0031092CF031092F1038091120536
:1022700090911305DC01ED91FC910190F081E02D2E
:1022800060E1099580911205909113050E940C0D53
:10229000182F6AE070E080E090E00E94AE0B1230F0
:1022A00009F486C040F4112379F0113009F086C09A
:1022B00082E593E092C0133009F47DC0143009F038
:1022C0007DC08FEC92E089C080E190E09093110591
:1022D000809310050E94E80B609314057093150518
:1022E000809316059093170580910A050093CE03FD
:1022F0008093F0031092CF031092F10362E470E038
:1023000080911205909113050E94050D8091120590
:10231000909113050E940C0D182F80910A050093CF
:10232000CE038093F0031092CF031092F10365E681
:1023300070E080911205909113050E94050D809127
:102340001205909113050E940C0D182B80910A051F
:102350000093CE038093F0031092CF031092F10309
:1023600060911005709111058091120590911305EF
:102370000E94050D80911205909113050E940C0D8D
:10238000182B6AE070E080E090E00E94AE0B123003
:10239000E1F038F41123A9F01130E9F482E892E079
:1023A0001CC01330A9F01430B1F48FEF91E015C0C8
:1023B0008DE193E012C08BEE92E00FC08FEA92E0C5
:1023C0000CC085E480930B050AC08DE492E005C043
:1023D0008BE192E002C08FED91E00E94F80D6FE773
:1023E00073E08FE894E00E94470782E090E09093CA
:1023F000AF048093AE041092B1041092B00408E0D0
:1024000010E01093B3040093B2041092B50410923C
:10241000B40462ED71E082EF94E00E94260710920E
:10242000F9041092F80468ED71E08AEF94E00E94DC
:10243000260710920105109200056EED71E08AEEFC
:1024400094E00E9426071093F1040093F00481E0C9
:1024500090E09093B7048093B6041092B904109260
:10246000B80464EE71E08AEB94E00E94260765EF01
:1024700071E080EC94E00E94260766ED71E086EC46
:1024800094E00E94260762EE71E08CEC94E00E94DA
:10249000260766E072E082ED94E00E9426076FE076
:1024A00072E088ED94E00E94260760E372E08EED12
:1024B00094E00E94260761E572E084EE94E00E94B9
:1024C000260781E08093020560E08DE00E944809C4
:1024D00096E6C92E91E0D92E28E5A22E21E0B22E53
:1024E00033243A9435EE932E45EC842E61E08DE052
:1024F0000E94480968EF74E08FE894E00E94470763
:1025000080912E058B83DA82C98280912F0590916C
:1025100030059D838C838091310590913205A09187
:102520003305B09134058E839F83A887B9876CECFF
:1025300072E0CE0101960E941E0580912E058B83CC
:10254000DA82C98280912F05909130059D838C831A
:102550008091310590913205A0913305B0913405F9
:102560008E839F83A887B98768EA72E0CE010196BF
:102570000E9430064090BC025090BD026090BE02A6
:102580007090BF02A3019201C301B2010E94AC1975
:10259000811115C020E030E040E252ECC301B201ED
:1025A0000E94EE1687FD0BC020E030E040EA52E4C6
:1025B000C301B2010E94A71918160CF064C067ECA1
:1025C00073E08FE894E00E944707809137058B8382
:1025D000BA82A98280913805909139059D838C83B8
:1025E00080913A0590913B05A0913C05B0913D0545
:1025F0008E839F83A887B9876CEC72E0CE01019629
:102600000E94A004809137058B83BA82A9828091B1
:102610003805909139059D838C8380913A0590917E
:102620003B05A0913C05B0913D058E839F83A88713
:10263000B98768EA72E0CE0101960E94B105409028
:10264000BC025090BD026090BE027090BF02A30118
:102650009201C301B2010E94AC19811120C020E097
:1026600030E0A901C301B2010E94EE1687FD17C038
:1026700020E030E048EC52E4C301B2010E94A71907
:1026800018166CF0F8C16AEE73E08FE894E00E94CF
:10269000470742E0C301B2010E944E0E96CF66E0AA
:1026A00074E08FE894E00E944707809110059091B4
:1026B0001105892B49F48EE394E00E94F80D60E047
:1026C00070E080E090EC3DC100910A050E94890B0A
:1026D0002B013C011091C803112339F18091CA03E9
:1026E0009091CB03A091CC03B091CD03892B8A2B81
:1026F0008B2B81F30E94890B2091CA033091CB036D
:102700004091CC035091CD03DC01CB018419950994
:10271000A609B709281739074A075B07D8F6809139
:10272000C9030E94950910E08DC081E08093C80321
:102730008093C7033092C6031092C5038093C403ED
:102740008093A3039091A303802F880F892B8093FC
:10275000A3038091A203813091F51092A2030E94FD
:10276000890B2B013C018091A3038093BB008091D6
:10277000CA039091CB03A091CC03B091CD03892BD8
:102780008A2B8B2BA9F00E94890B2091CA033091D0
:10279000CB034091CC035091CD03DC01CB018419D4
:1027A0009509A609B709281739074A075B0790F169
:1027B0008091BC0083FDD7CF8092BC0002C0909274
:1027C000BC000E94890B2B013C018091C803813021
:1027D00031F58091CA039091CB03A091CC03B091C5
:1027E000CD03892B8A2B8B2B81F30E94890B20919F
:1027F000CA033091CB034091CC035091CD03DC014F
:10280000CB0184199509A609B709281739074A0782
:102810005B07D8F68091C9030E94950913C0809187
:10282000C503823018F48091C50301C082E0E4EA58
:10283000F3E0ACE3B3E010E0181721F091919D9321
:102840001F5FFACF10925D0310935C03123011F5F5
:102850008091120590911305DC01ED91FC910284A9
:10286000F385E02D0995F82EE12C809112059091C9
:102870001305DC01ED91FC910284F385E02D0995AF
:102880008E299F29BC0180E090E00E94F3162B0165
:102890003C0106C0412C512C80E8682E8FEB782E2D
:1028A0000E94E80B6093140570931505809316053C
:1028B0009093170520E030E040E85FEBC301B201E0
:1028C0000E94EE168823C9F160910B056534A9F0CA
:1028D00070E080E090E00E94F3169B01AC0160E0A4
:1028E00070E08AE892E40E9406199B01AC01C301E2
:1028F000B2010E9454172B013C0180911005909168
:1029000011058132910511F0419751F420E030E03A
:1029100040E05FE3C301B2010E9454172B013C0168
:1029200020910C0530910D0540910E0550910F0539
:10293000C301B2010E94061904C060E070E080E8A3
:102940009FEB0E9478192B01612C712CC301B201FD
:102950000E94F3169B01AC010E94AC19882339F048
:1029600061E674E08FE894E00E9447070BC060E8DE
:1029700074E08FE894E00E9447074AE0C301B20187
:102980000E940B0E8EE00E94720B8C012C01612CB8
:10299000712CC301B2010E94F3169B01AC010E948D
:1029A000AC19882339F068E974E08FE894E00E945C
:1029B00047072FC00339B4E01B0790F4E6E0F1E0CD
:1029C00060E070E0819191918017910710F0162FCF
:1029D00008C06F5F7F4F6C307105A1F71FEF01C01A
:1029E0001CE06EEB74E08FE894E00E9447074AE039
:1029F000C301B2010E940B0E62E772E08FE894E01F
:102A00000E946B07612F70E080E090E04AE00E9436
:102A10000B0E8FE00E94720B8C016DED74E08FE85D
:102A200094E00E944707B801110F880B990B0E9490
:102A3000F51620E030E040EA50E40E94541720E010
:102A400030E040E85AE30E9454172EE830E441EDAC
:102A50005EE30E94061942E00E944E0E60E08DE0A7
:102A60000E94480968E873E180E090E00E94AE0BA4
:102A70000E94E2033BCD66E274E08FE894E00E949E
:102A8000470742E0C301B2010E944E0E0ECE86E41B
:102A900091E09093900480938F048091A60290918E
:102AA000A7028F58944071F4E091A204F091A3041E
:102AB00090818091A4048095892380831092A7023D
:102AC0001092A6028AEF94E00E94940482EF94E0B0
:102AD0000E9494048AEE94E00E94940484EE94E0B0
:102AE0000E9494048EED94E00E94940488ED94E09A
:102AF0000E94940482ED94E00E9494048CEC94E093
:102B00000E94940486EC94E00E94940480EC94E08B
:102B10000E9494048AEB94E00E94940483E095E080
:102B20000C949404CF92DF92EF92FF9210924105A1
:102B30001092400598EEC92E93E0D92EE12CF12C8D
:102B4000C0924205D0924305E0924405F0924505BB
:102B500082E291E090933F0580933E051092F50349
:102B60001092F403C092F603D092F703E092F803B8
:102B7000F092F90384E391E09093F3038093F203DE
:102B800085EC90E09093FF038093FE0384EC90E04B
:102B9000909301048093000480EC90E090930304F0
:102BA0008093020481EC90E09093050480930404E8
:102BB00082EC90E0909307048093060486EC90E00A
:102BC000909309048093080410920B0410920C0453
:102BD00010920D0410920E0428E135E089E08093F4
:102BE0001D0586E180931E05ECE5F5E0E491E09398
:102BF0001F05E8E4F5E0E491E093200540E85EE39A
:102C000060E070E04093250550932605609327050A
:102C10007093280580932B0586E691E090932D050F
:102C200080932C053093300520932F058FEF9FEF75
:102C3000DC018093310590933205A0933305B09366
:102C4000340548E551E050933605409335053093FF
:102C500039052093380580933A0590933B05A0935E
:102C60003C05B0933D0585E480930B058AE999E91D
:102C7000A9E9BFE380930C0590930D05A0930E0581
:102C8000B0930F05109211051092100583E2809306
:102C90000A058EE395E0909313058093120583E077
:102CA00095E00E94F80C109209058AEB94E00E94CE
:102CB000F80C80EC94E00E94F80C86EC94E00E9402
:102CC000F80C8CEC94E00E94F80C82ED94E00E94E9
:102CD000F80C88ED94E00E94F80C8EED94E00E94D0
:102CE000F80C84EE94E00E94F80C8AEE94E00E94C6
:102CF000F80C82EF94E00E94F80C8AEF94E00E94B6
:102D0000F80C1092920410929104C0929304D09205
:102D10009404E0929504F092960486E491E09093F6
:102D2000900480938F041092A6041092A504109230
:102D3000A8041092A7041092AA041092A904109259
:102D4000AC041092AB046091AD046E7F6D7F609314
:102D5000AD046695617081E0682783E00E944809B0
:102D600061E083E00E94360BE6E5F5E0E491E09354
:102D70009F04E2E4F5E0E491F0E0EE0FFF1FEB5C6E
:102D8000FA4F859194919093A1048093A00460E000
:102D900082E00E94360B8091AD0481FD04C061E0A9
:102DA00082E00E94480982E080939B04E5E5F5E01B
:102DB000E491E0939C04E1E4F5E0E491F0E0EE0FAF
:102DC000FF1FE55DFA4F8591949190939E04809347
:102DD0009D04FF90EF90DF90CF9008950E943017F0
:102DE00008F481E00895E89409C097FB3EF49095BB
:102DF0008095709561957F4F8F4F9F4F9923A9F0D4
:102E0000F92F96E9BB279395F69587957795679562
:102E1000B795F111F8CFFAF4BB0F11F460FF1BC0A6
:102E20006F5F7F4F8F4F9F4F16C0882311F096E939
:102E300011C0772321F09EE8872F762F05C06623E7
:102E400071F096E8862F70E060E02AF09A95660FA0
:102E5000771F881FDAF7880F9695879597F9089559
:102E6000990F0008550FAA0BE0E8FEEF161617069B
:102E7000E807F907C0F012161306E407F50798F003
:102E8000621B730B840B950B39F40A2661F0232B1C
:102E9000242B252B21F408950A2609F4A140A69598
:102EA0008FEF811D811D08950E9467170C94D8171C
:102EB0000E94CA1738F00E94D11720F0952311F014
:102EC0000C94C1170C94C71711240C940C180E9471
:102ED000E91770F3959FC1F3950F50E0551F629F5E
:102EE000F001729FBB27F00DB11D639FAA27F00D63
:102EF000B11DAA1F649F6627B00DA11D661F829F8A
:102F00002227B00DA11D621F739FB00DA11D621F6E
:102F1000839FA00D611D221F749F3327A00D611D8B
:102F2000231F849F600D211D822F762F6A2F11246D
:102F30009F5750409AF0F1F088234AF0EE0FFF1FA0
:102F4000BB1F661F771F881F91505040A9F79E3FF7
:102F5000510580F00C94C1170C940C185F3FE4F3FA
:102F6000983ED4F3869577956795B795F795E7954D
:102F70009F5FC1F7FE2B880F911D9695879597F956
:102F8000089597F99F6780E870E060E008959FEFEB
:102F900080EC089500240A941616170618060906F0
:102FA000089500240A9412161306140605060895BF
:102FB000092E0394000C11F4882352F0BB0F40F447
:102FC000BF2B11F460FF04C06F5F7F4F8F4F9F4F87
:102FD000089557FD9058440F551F59F05F3F71F009
:102FE0004795880F97FB991F61F09F3F79F0879570
:102FF0000895121613061406551FF2CF4695F1DFF9
:1030000008C0161617061806991FF1CF8695710588
:10301000610508940895E894BB2766277727CB01BC
:1030200097F908952F923F924F925F926F927F92FD
:103030008F929F92AF92BF92CF92DF92EF92FF92C8
:103040000F931F93CF93DF93CDB7DEB7CA1BDB0B74
:103050000FB6F894DEBF0FBECDBF09942A88398819
:1030600048885F846E847D848C849B84AA84B98420
:10307000C884DF80EE80FD800C811B81AA81B9812C
:10308000CE0FD11D0FB6F894DEBF0FBECDBFED0140
:10309000089597FB072E16F4009407D077FD09D00A
:1030A0000E947F1807FC05D03EF4909581959F4FB4
:1030B0000895709561957F4F0895A1E21A2EAA1B7D
:1030C000BB1BFD010DC0AA1FBB1FEE1FFF1FA217D8
:1030D000B307E407F50720F0A21BB30BE40BF50BD5
:1030E000661F771F881F991F1A9469F7609570955E
:1030F000809590959B01AC01BD01CF010895AA1B5D
:10310000BB1B51E107C0AA1FBB1FA617B70710F0D2
:10311000A61BB70B881F991F5A95A9F78095909504
:10312000BC01CD010895EE0FFF1F0590F491E02D35
:1031300009945058BB27AA270E94B1180C94D8179D
:103140000E94CA1738F00E94D11720F039F49F3F2F
:1031500019F426F40C94C7170EF4E095E7FB0C94D1
:10316000C117E92F0E94E91758F3BA1762077307CE
:103170008407950720F079F4A6F50C940B180EF44B
:10318000E0950B2EBA2FA02D0B01B90190010C0177
:10319000CA01A0011124FF27591B99F0593F50F48F
:1031A000503E68F11A16F040A22F232F342F4427E7
:1031B000585FF3CF469537952795A795F0405395DF
:1031C000C9F77EF41F16BA0B620B730B840BBAF0AF
:1031D0009150A1F0FF0FBB1F661F771F881FC2F71A
:1031E0000EC0BA0F621F731F841F48F4879577952E
:1031F0006795B795F7959E3F08F0B0CF9395880FE8
:1032000008F09927EE0F9795879508950E941A194F
:103210000C94D8170E94D11758F00E94CA1740F09A
:1032200029F45F3F29F00C94C11751110C940C182C
:103230000C94C7170E94E91768F39923B1F355233B
:1032400091F3951B550BBB27AA27621773078407B9
:1032500038F09F5F5F4F220F331F441FAA1FA9F34F
:1032600035D00E2E3AF0E0E832D091505040E6953D
:10327000001CCAF72BD0FE2F29D0660F771F881F9E
:10328000BB1F261737074807AB07B0E809F0BB0B91
:10329000802DBF01FF2793585F4F3AF09E3F5105A5
:1032A00078F00C94C1170C940C185F3FE4F3983E2F
:1032B000D4F3869577956795B795F7959F5FC9F78E
:1032C000880F911D9695879597F90895E1E0660F0F
:1032D000771F881FBB1F621773078407BA0720F088
:1032E000621B730B840BBA0BEE1F88F7E0950895F1
:1032F0000E94F11788F09F5798F0B92F9927B7517E
:10330000B0F0E1F0660F771F881F991F1AF0BA9589
:10331000C9F714C0B13091F00E940B18B1E00895C4
:103320000C940B18672F782F8827B85F39F0B93FB6
:10333000CCF3869577956795B395D9F73EF490953C
:103340008095709561957F4F8F4F9F4F08950E9494
:10335000301708F48FEF08950E943017880B990BEF
:1033600008950F931F93CF93DF938230910510F44C
:1033700082E090E0E0914D05F0914E0520E030E0D4
:10338000A0E0B0E0309719F14081518102811381B2
:1033900048175907C8F08417950769F4109731F05A
:1033A00012960C93129713961C9327C000934D0509
:1033B00010934E0522C02115310519F0421753070D
:1033C00018F49A01BD01EF01DF01F801DBCF2115EF
:1033D0003105F9F0281B390B2430310580F48A813E
:1033E0009B816115710521F0FB019383828304C0E9
:1033F00090934E0580934D05FE01329644C0FE0128
:10340000E20FF31F8193919322503109398328836E
:103410003AC020914B0530914C05232B41F420916B
:1034200002013091030130934C0520934B0520910C
:103430000001309101012115310541F42DB73EB74E
:103440004091040150910501241B350BE0914B057F
:10345000F0914C05E217F307A0F42E1B3F0B281741
:10346000390778F0AC014E5F5F4F2417350748F0FD
:103470004E0F5F1F50934C0540934B0581939193E2
:1034800002C0E0E0F0E0CF01DF91CF911F910F91FA
:103490000895CF93DF93009709F481C0FC01329720
:1034A00013821282A0914D05B0914E05109781F4C0
:1034B00020813181820F931F20914B0530914C0563
:1034C0002817390751F5F0934C05E0934B0567C079
:1034D000ED0120E030E0CE17DF0740F44A815B8148
:1034E0009E0141155105F1F0EA01F5CFD383C28366
:1034F00040815181840F951FC817D90759F48881DD
:103500009981840F951F0296918380838A819B8184
:10351000938382832115310529F4F0934E05E093BE
:103520004D053DC0E901FB83EA8349915991C40FE0
:10353000D51FEC17FD0761F480819181840F951FE1
:103540000296E90199838883828193819B838A8390
:10355000E0E0F0E012968D919C911397009719F09E
:10356000FD01DC01F7CF8D919C9111979D012E5F9C
:103570003F4F820F931F20914B0530914C05281728
:10358000390769F4309729F410924E0510924D05D1
:1035900002C013821282B0934C05A0934B05DF91B9
:1035A000CF910895A0E0B0E0E8EDFAE10C94161890
:1035B000EC01009721F4CB010E94B119B4C0FC01C9
:1035C000E60FF71F9C0122503109E217F30708F4B8
:1035D000A8C0D9010D911C91119706171707B0F0DB
:1035E0000530110508F49BC0C8010497861797079A
:1035F00008F495C002501109061B170B0193119393
:103600006D937C93CF010E94491A89C05B01A01A77
:10361000B10A4C01800E911EA0914D05B0914E054E
:10362000612C712CE12CF12C109709F446C08D917E
:103630009C911197A815B905B1F56C0142E0C40E33
:10364000D11CCA14DB0478F14C018A189B08640170
:1036500042E0C40ED11C1296BC9012971396AC9106
:10366000B5E0CB16D10440F0B282A3839182808270
:10367000D9016D937C9309C00E5F1F4F800F911F7E
:10368000F90191838083EB2DFA2FE114F10431F0DD
:10369000D7011396FC93EE93129741C0F0934E0519
:1036A000E0934D053CC06816790608F43C017D01A5
:1036B00012960D90BC91A02DB7CF80914B059091A3
:1036C0004C0588169906E1F466167706C8F48091D1
:1036D000000190910101009741F48DB79EB7409190
:1036E000040150910501841B950BE817F907C8F4F4
:1036F000F0934C05E0934B05F901718360830FC093
:10370000CB010E94B1197C01009759F0A801BE01BC
:103710000E949D1BCE010E94491AC70104C0CE0120
:1037200002C080E090E0CDB7DEB7EEE00C94321836
:1037300081E090E0F8940C94BC1BFB01DC0102C01A
:1037400001900D9241505040D8F70895FB01DC01E3
:1037500001900D920020E1F70895FB01DC0141503A
:10376000504048F001900D920020C9F701C01D9211
:1037700041505040E0F7089512E0C5EBD2E004C09C
:10378000FE010E9493182196C63BD107C9F7F89411
:02379000FFCF69
:1037920000004F0520003200E3003E019801F701CE
:1037A2005E02B8021B037103D003370492040000C7
:1037B2000000D508A8088E047C08A0088C087D08A3
:1037C200000000007303E0020A03C0033B03190375
:1037D2002D03000000000404E0028E047C0854045F
:1037E2006C04EC030000000052089C049104B10533
:1037F200A0040000000053089E04910430061E0538
:103802000000000000000000910492049204417242
:103812006475696E6F2050726F204D696E69204128
:10382200746D656761333238702035562031364DFC
:10383200487A004C6F5261202D20524846304D305C
:10384200303300312E302E300044485432322C2096
:10385200475933302C2055564D333041006E6F6E30
:1038620065003931372E32003931372E390039327D
:10387200332E3300303042303743353844354343FA
:1038820036374230003730423344353745443030E2
:103892003235463644003236303331384541003312
:1038A2003432423930393730433739454133443184
:1038B2003632444436444234464431333043410084
:1038C200414439464131373530443843333130365B
:1038D200413634423439443242304145323833453C
:1038E200003937444637333743463537313333446B
:1038F200343945363235393542443635323631334C
:103902003600203D3E2000444854313100444854A2
:103912003132004448543231004448543232004477
:1039220048543F000D0A006E616E00696E66006FBA
:0439320076660000B5
:00000001FF
