:100000000C9462000C948A000C948A000C948A0070
:100010000C948A000C948A000C948A000C948A0038
:100020000C948A000C948A000C948A000C948A0028
:100030000C948A000C948A000C948A000C948A0018
:100040000C941C040C948A000C948C040C9466048C
:100050000C948A000C948A000C948A000C948A00F8
:100060000C947C070C948A000000000024002700F8
:100070002A0000000000250028002B0000000008D6
:10008000000201000003040700000000000000005F
:1000900000000000230026002900040404040404D6
:1000A0000404020202020202030303030303010227
:1000B00004081020408001020408102001020408F6
:1000C0001020B10C11241FBECFEFD8E0DEBFCDBF92
:1000D00025E0A0E3B4E001C01D92A63EB207E1F71F
:1000E00014E0A0E0B1E0EEECF1E202C005900D9268
:1000F000A033B107D9F710E0C2E6D0E004C02197E1
:10010000FE010E94920EC136D107C9F70E94270A4C
:100110000C94E5100C940000CF92DF92EF92FF92C6
:100120000F931F93CF93DF936C017A018B01C0E093
:10013000D0E0CE15DF0581F0D8016D918D01D6019B
:10014000ED91FC910190F081E02DC6010995892B7C
:1001500011F02196EECF7E01C701DF91CF911F9163
:100160000F91FF90EF90DF90CF900895089580E079
:1001700090E00895FC01538D448D252F30E0842FAD
:1001800090E0821B930B541710F0CF9608950197BF
:100190000895FC01918D828D981761F0828DDF01A9
:1001A000A80FB11D5D968C91928D9F5F9F73928F6A
:1001B00090E008958FEF9FEF0895FC01918D828D5F
:1001C000981731F0828DE80FF11D858D90E008952C
:1001D0008FEF9FEF0895FC01918D228D892F90E084
:1001E000805C9F4F821B91098F739927089584E942
:1001F00094E00E94EB0021E0892B09F420E0822F9B
:100200000895FC01848DDF01A80FB11DA35ABF4FD3
:100210002C91848D90E001968F739927848FA68905
:10022000B7892C93A089B1898C91837080648C9359
:10023000938D848D981306C00288F389E02D808108
:100240008F7D80830895EF92FF920F931F93CF933A
:10025000DF93EC0181E0888F9B8D8C8D981305C016
:10026000E889F989808185FD26C0F62E0B8D10E086
:100270000F5F1F4F0F731127E02E8C8DE8120CC0FB
:100280000FB607FCFACFE889F989808185FFF5CFA1
:10029000CE010E940101F1CF8B8DFE01E80FF11D0F
:1002A000E35AFF4FF0829FB7F8940B8FEA89FB89DE
:1002B000808180620AC09FB7F894EE89FF896083CD
:1002C000E889F98980818370806480839FBF81E0A1
:1002D00090E0DF91CF911F910F91FF90EF900895E3
:1002E000CF93DF93EC01888D8823C9F0EA89FB89DD
:1002F000808185FD05C0A889B9898C9186FD0FC0D4
:100300000FB607FCF5CF808185FFF2CFA889B989A8
:100310008C9185FFEDCFCE010E940101E7CFDF91E7
:10032000CF91089580E090E0892B29F00E94F7009A
:1003300081110C940000089508950E94D1100F932C
:100340001F93CF93DF938C01EB0188E2DB011D92B9
:100350008A95E9F7F801838194810E948D0681E0F6
:1003600090E0A0E0B0E08C879D87AE87BF87F80162
:1003700085819681A781B085888B998BAA8BBB8B51
:100380008CE090E0A0E0B0E08C8B9D8BAE8BBF8BBF
:10039000BE01838194810E947606D8011396ED9167
:1003A000FC91149783898C3069F038F48B30A1F577
:1003B00080E090E0A0EAB2E409C08531C1F0863166
:1003C000B1F02AC080E090E0AEEBB2E4888F998F64
:1003D000AA8FBB8F80E090E0A0EAB1E48C8F9D8F64
:1003E000AE8FBF8F80E090E0A0EAB0E410C080E064
:1003F00090E0A8ECB2E4888F998FAA8FBB8F1C8EF7
:100400001D8E1E8E1F8E8DEC9CECACECBDE388A384
:1004100099A3AAA3BBA30CC0188E198E1A8E1B8E8B
:100420001C8E1D8E1E8E1F8E18A219A21AA21BA230
:10043000DF91CF911F910F9108950F931F93CF9349
:10044000DF938C01EB0188E2DB011D928A95E9F7CD
:10045000F801838194810E948D0681E090E0A0E004
:10046000B0E08C879D87AE87BF87F8018581968134
:10047000A781B085888B998BAA8BBB8B8DE090E090
:10048000A0E0B0E08C8B9D8BAE8BBF8BBE018381D7
:1004900094810E947606D8011396ED91FC911497F1
:1004A00083898C30F1F0A0F48B3009F048C080E0F3
:1004B00090E0A8E4B2E4888F998FAA8FBB8F1C8E3E
:1004C0001D8E1E8E1F8E80E090E0A0E0B0E432C052
:1004D0008531E1F0863199F580E090E0AAEFB2E451
:1004E00019C080E090E0A0E7B2E4888F998FAA8FCE
:1004F000BB8F80E090E0A0EAB1EC8C8F9D8FAE8F37
:10050000BF8F80E090E0A0E0BFE314C080E090E007
:10051000A0EAB2E4888F998FAA8FBB8F80E090E029
:10052000A0E2B2EC8C8F9D8FAE8FBF8F8DEC9CECD8
:10053000ACECBDE388A399A3AAA3BBA30CC0188EFF
:10054000198E1A8E1B8E1C8E1D8E1E8E1F8E18A24B
:1005500019A21AA21BA2DF91CF911F910F910895AA
:10056000CF92DF92EF92FF920F931F93CF93DF937F
:10057000EB0124E2FB0111922A95E9F744E250E0F5
:1005800060E070E0488359836A837B83FC01458186
:100590005681678170854C835D836E837F834CE0D9
:1005A00050E060E070E0488759876A877B872FB703
:1005B000F89440919004509191046091920470914C
:1005C00093042FBF488B598B6A8B7B8B03811481DB
:1005D000C8010E941C098823B9F1F80186818B307B
:1005E00098F18D30A0F08551823070F5F80160816E
:1005F000718176276727762780E090E00E94510D71
:100600002DEC3CEC4CEC5DE30E94B20D21C0F801F6
:10061000618170E080E090E00E94530D2DEC3CEC95
:100620004CEC5DE30E94B20D6B017C01F80160812E
:1006300070E080E090E00E94530D9B01AC01C70187
:10064000B6010E94990E04C060E070E080EC9FE764
:100650006C8B7D8B8E8B9F8B81E0DF91CF911F9177
:100660000F91FF90EF90DF90CF9008958F929F921F
:10067000AF92BF92EF92FF921F93CF93DF93EB0164
:1006800024E2FB0111922A95E9F744E250E060E090
:1006900070E0488359836A837B83FC0145815681DE
:1006A000678170854C835D836E837F834DE050E06E
:1006B00060E070E0488759876A877B872FB7F89496
:1006C0004091900450919104609192047091930430
:1006D0002FBF488B598B6A8B7B8BE380F480C701DB
:1006E0000E941C09882309F46BC0F70186818C30B5
:1006F00009F445C018F48B30C9F062C085518230CE
:1007000008F05EC0F7011281612F6F7770E0762FDD
:1007100066278381682B80E090E00E94510D2DECCC
:100720003CEC4CEC5DE30E94B20D46C0F7016281E7
:1007300070E080E090E00E94510D4B015C01F701F8
:10074000138117FF0AC09B01AC0160E070E080E8F4
:100750009FEB0E94980E4B015C01612F6F7070E05F
:1007600080E090E00E94530D2DEC3CEC4CEC5DE3FE
:100770000E94B20DA50194010E94990E25C0F701B7
:10078000128163816F7070E080E090E00E94530DF1
:100790002DEC3CEC4CEC5DE30E94B20D4B015C0196
:1007A000612F70E080E090E00E94510D9B01AC0150
:1007B000C501B4010E94990E17FF06C0905804C0ED
:1007C00060E070E080EC9FE76C8B7D8B8E8B9F8B65
:1007D00081E0DF91CF911F91FF90EF90BF90AF909C
:1007E0009F908F9008950C9448100C9448103FB738
:1007F000F89480918C0490918D04A0918E04B09116
:100800008F0426B5A89B05C02F3F19F00196A11DA6
:10081000B11D3FBFBA2FA92F982F8827820F911D96
:10082000A11DB11DBC01CD0142E0660F771F881FDD
:10083000991F4A95D1F708951F920F920FB60F9204
:1008400011242F933F938F939F93AF93BF938091E6
:10085000900490919104A0919204B09193043091EE
:100860008B0423E0230F2D3720F40196A11DB11D29
:1008700005C026E8230F0296A11DB11D20938B040D
:100880008093900490939104A0939204B093930466
:1008900080918C0490918D04A0918E04B0918F046E
:1008A0000196A11DB11D80938C0490938D04A0939B
:1008B0008E04B0938F04BF91AF919F918F913F9120
:1008C0002F910F900FBE0F901F9018951F920F92AF
:1008D0000FB60F9211242F933F934F935F936F9313
:1008E0007F938F939F93AF93BF93EF93FF9384E98D
:1008F00094E00E940101FF91EF91BF91AF919F9110
:100900008F917F916F915F914F913F912F910F90B8
:100910000FBE0F901F9018951F920F920FB60F9257
:1009200011242F938F939F93EF93FF93E091A4044F
:10093000F091A5048081E091AA04F091AB0482FDBE
:1009400012C090818091AD048F5F8F732091AE04AF
:10095000821751F0E091AD04F0E0EC56FB4F958F1B
:100960008093AD0401C08081FF91EF919F918F91A1
:100970002F910F900FBE0F901F9018950895089516
:10098000CF92DF92EF92FF921F93CF93DF93EC0110
:100990001F81662311F0912F01C090E0288530E07F
:1009A000220F331F20573F4FA0E0B0E0F9014591DF
:1009B0005491FA0180818123AD0160E070E08913D8
:1009C0000FC01196CD84DE84EF84F8884C155D0548
:1009D0006E057F0558F33FEF2FEF8FEF9FEF03C0BA
:1009E0003A2F252FCB01632F722FDF91CF911F91CB
:1009F000FF90EF90DF90CF90089540917E05262FD5
:100A000030E0240F311D21323105DCF42091A205A4
:100A10002430C9F4FC0180E090E0861758F430914E
:100A20007E052191DC01A25ABA4FA30FB11D2C9370
:100A30000196F3CF80917E05680F60937E0580E07C
:100A4000089581E0089582E0089508958FEF9FEF63
:100A500008958FEF9FEF08958091570590E091954D
:100A6000819591090895CF93DF93CB01EA01642F1B
:100A70000E94FD04CE01DF91CF910895CF93DF93C3
:100A80001F92CDB7DEB7698361E0CE0101960E9467
:100A9000FD0481E090E00F90DF91CF9108950097E1
:100AA00069F0FC0101900020E9F73197AF01481B84
:100AB000590BBC0184E994E00C948C0080E090E038
:100AC00008958F929F92AF92BF920F931F93CF93EF
:100AD000DF93CDB7DEB7A1970FB6F894DEBF0FBE98
:100AE000CDBF19A2423008F44AE08E010F5D1F4FBE
:100AF000842E912CA12CB12CA50194010E94700E82
:100B0000E62FB901CA0101501109EA3014F4E05D81
:100B100001C0E95CD801EC93232B242B252B61F732
:100B2000C8010E944F05A1960FB6F894DEBF0FBE14
:100B3000CDBFDF91CF911F910F91BF90AF909F904C
:100B40008F9008950C944F058F929F92AF92BF9211
:100B5000CF92DF92EF92FF920F931F93CF93DF9389
:100B60006B017C01142F9B01AC010E94AB0F882309
:100B700019F087E094E027C046015701E894B7F8E0
:100B80002FEF3FEF4FE75FE7C501B4010E94AB0FC6
:100B900081110DC02FEF3FEF4FE75FE7C501B401B3
:100BA0000E944C0D18161CF48BE094E00CC02FEF43
:100BB0003FEF4FE75FE4C701B6010E94A60F18168A
:100BC00084F48FE094E0DF91CF911F910F91FF901B
:100BD000EF90DF90CF90BF90AF909F908F900C944C
:100BE0004F052FEF3FEF4FE75FECC701B6010E94C3
:100BF0004C0D87FDE6CF20E030E0A901C701B6012A
:100C00000E944C0D87FF0BC06DE284E994E00E94C6
:100C10002301EC01F7FAF094F7F8F09402C0C0E079
:100C2000D0E000E060E070E080E09FE3101741F06A
:100C300020E030E040E251E40E94050F0F5FF6CF64
:100C4000A70196010E94990E6B017C010E94770F0B
:100C50004B015C014AE00E946105C80FD91F1123B6
:100C6000B9F1C501B4010E94510D9B01AC01C7014E
:100C7000B6010E94980E6B017C016EE284E994E05B
:100C80000E942301C80FD91F20E030E040E251E468
:100C9000C701B6010E94B20D4B015C010E94770FA3
:100CA0006B01E12CF12C4AE0C701B6010E946105FD
:100CB000C80FD91FC701B6010E94510D9B01AC019D
:100CC000C501B4010E94980E6B017C011150E1F640
:100CD000CE01DF91CF911F910F91FF90EF90DF90A8
:100CE000CF90BF90AF909F908F900895FB01DC0153
:100CF00053968C918C3041F038F48B3029F480E499
:100D000092E4AFE0B0E004C080E894E8AEE1B0E087
:100D100084A395A3A6A3B7A30895CF93DF93EB0174
:100D2000FC0183898C3089F038F48B30C1F44BE0BE
:100D300050E063E174E017C0853161F0863179F4E9
:100D40004BE050E065E274E00EC04BE050E069E13A
:100D500074E009C04BE050E06FE174E004C04BE088
:100D600050E06BE274E0CE010E94D6101B86DF914A
:100D7000CF91089590E0FC01E458FF4F2491FC01CD
:100D8000E255FF4F3491FC01E656FF4FE491EE230C
:100D900009F43CC0222339F1233091F038F421309A
:100DA000A9F0223001F584B58F7D12C0273091F073
:100DB0002830A1F02430B9F4809180008F7D03C0E9
:100DC000809180008F77809380000DC084B58F77ED
:100DD00084BD09C08091B0008F7703C08091B000BE
:100DE0008F7D8093B000F0E0EE0FFF1FEE58FF4FB5
:100DF000A591B4919FB7F894611104C08C9130957E
:100E0000382302C0EC913E2B3C939FBF08951F9363
:100E1000CF93DF9385ED8093BC0080915A0590912C
:100E20005B05A0915C05B0915D050796A11DB11D04
:100E300023E0B695A795979587952A95D1F72091A8
:100E4000BC0024FF53C040915A0550915B0560914E
:100E50005C0570915D05452B462B472B81F3009770
:100E6000A105B10541F025E32A95F1F700000197AE
:100E7000A109B109E4CF80915905C1E0C09358059B
:100E80008823B1F1D091B8001091BA008091BC00D4
:100E90008A7B8093BC0060E082E10E94BA0660E039
:100EA00083E10E94BA061092A205C093A405109295
:100EB000A30561E082E10E94BA0661E083E10E943D
:100EC000BA068091B9008E7F8093B9008091B900F5
:100ED0008D7F8093B90088E48093B80085E4809387
:100EE000BC001093BA00D093B80002C01092A205C3
:100EF000DF91CF911F9108951F920F920FB60F921D
:100F000011242F933F934F935F936F937F938F930E
:100F10009F93AF93BF93EF93FF938091B900887F26
:100F2000803609F49CC068F5883209F45BC090F4FF
:100F3000803109F454C038F4882309F4F2C08830B1
:100F400009F44DC0F2C0883109F44CC0803209F474
:100F50005DC0EBC0803409F468C048F4803309F404
:100F600055C0883309F0E1C08093A105D4C0803515
:100F700009F44FC0883509F45DC0883409F0D5C044
:100F8000D2C0883909F4C3C0A8F4883709F467C00F
:100F900038F4883609F463C0803709F460C0C5C0EE
:100FA000883809F4B4C0803909F45FC0803809F08A
:100FB000BCC05BC0803B09F484C038F4803A09F4BB
:100FC00066C0883A09F47DC0B0C0803C09F4A3C073
:100FD000883C09F4A0C0883B09F486C0A6C0809173
:100FE000C70510C09091C6058091C505981770F58A
:100FF000E091C60581E08E0F8093C605F0E0EB55C9
:10100000FA4F80818093BB0085EC82C08093A1055C
:101010008AC0E091C60581E08E0F8093C60580915D
:10102000BB00F0E0EB55FA4F80839091C6058091AC
:10103000C5056AC0E091C60581E08E0F8093C605A4
:101040008091BB00F0E0EB55FA4F80838091A405BE
:10105000811169C081E08093A30584EA5DC083E0CB
:101060008093A2051092A005CFCF8091A005803279
:1010700008F04DC0E091A00581E08E0F8093A0059F
:101080008091BB00F0E0E058FA4F8083BDCF85EC43
:101090008093BC001092A2058091A005803230F4AC
:1010A000E091A005F0E0E058FA4F10826091A005B1
:1010B00070E080E895E0E0E0F0E009951092A0058E
:1010C00034C084E08093A20510927F0510927E05C3
:1010D000E0E0F0E0099580917E05811105C081E096
:1010E00080937E0510925E05E0917F0581E08E0F72
:1010F00080937F05F0E0E25AFA4F80818093BB0035
:1011000090917F0580917E05981708F47DCF85E842
:101110008093BC000AC085EC8093BC001092A205AD
:1011200004C01092A1050E940707FF91EF91BF91A3
:10113000AF919F918F917F916F915F914F913F916F
:101140002F910F900FBE0F901F901895CF93DF93A4
:1011500090E0FC01E255FF4F2491FC01E656FF4F61
:101160008491882361F190E0880F991FFC01E85970
:10117000FF4FC591D491FC01EE58FF4FA591B4915A
:10118000611109C09FB7F8948881209582238883D4
:10119000EC912E230BC0623061F49FB7F8948881E4
:1011A000322F309583238883EC912E2B2C939FBF75
:1011B00006C08FB7F894E8812E2B28838FBFDF916C
:1011C000CF9108958F929F92AF92BF92CF92DF926C
:1011D000EF92FF926B017C010E94F7034B015C01CF
:1011E000C114D104E104F104F1F00E94F703DC0121
:1011F000CB0188199909AA09BB09883E9340A1052A
:10120000B10570F321E0C21AD108E108F10888EEB7
:10121000880E83E0981EA11CB11CC114D104E10406
:10122000F10419F7DDCFFF90EF90DF90CF90BF90E2
:10123000AF909F908F9008958F929F92AF92BF92A0
:10124000CF92DF92EF92FF920F931F93CF93DF9392
:10125000CDB7DEB7C054D1400FB6F894DEBF0FBE95
:10126000CDBF2FB7F89440919004509191046091B4
:101270009204709193042FBFFC0101851285238590
:1012800034856A017B01C01AD10AE20AF30AE0ED53
:10129000CE16E7E0DE06E104F10418F4FC018189D2
:1012A000C2C08C01FC014187528763877487148216
:1012B000138212821182108262E085810E94A60848
:1012C00061E070E080E090E00E94E20861E0F801F7
:1012D00085810E94A60860E0F80185810E94BA0617
:1012E000F80186818551823028F48BE291E10197E3
:1012F000F1F706C064E170E080E090E00E94E2084F
:1013000062E0F80185810E94A608F801828990E0D8
:101310008230910538F0880F991F880F991F059723
:101320000197F1F7F89460E0C8010E94C0046F3F94
:101330007F4F8F4F9F4F21F4F801118A789444C05A
:1013400061E0C8010E94C0046F3F7F4F8F4F9F4FE5
:1013500099F3CE0101967C015E019FEBA91A9EEFE5
:10136000B90A670160E0C8010E94C004F601608309
:1013700071838283938361E0C8010E94C004F601F7
:101380006483758386839783F8E0CF0ED11CCA14DB
:10139000DB0441F7789420E030E0F7018080918011
:1013A000A280B3804481558166817781FFEF8F16DB
:1013B0009F06AF06BF0631F04F3F8FEF5807680713
:1013C000780721F4F801118A80E02DC0F90183E04B
:1013D000F595E7958A95E1F7E00FF11F8081880F79
:1013E00084169506A606B70608F4816080832F5FF1
:1013F0003F4FF8E0EF0EF11C2832310571F6F8018D
:10140000248130E04081818190E0840F911D4281F0
:10141000840F911D4381840F911D99272817390747
:1014200089F681E0818BC05CDE4F0FB6F894DEBF99
:101430000FBECDBFDF91CF911F910F91FF90EF9025
:10144000DF90CF90BF90AF909F908F900895CF93F3
:10145000DF93CDB7DEB729970FB6F894DEBF0FBE86
:10146000CDBF789484B5826084BD84B5816084BD2D
:1014700085B5826085BD85B5816085BD80916E0032
:10148000816080936E001092810080918100826063
:1014900080938100809181008160809381008091A0
:1014A00080008160809380008091B100846080938F
:1014B000B1008091B00081608093B00080917A008B
:1014C000846080937A0080917A00826080937A00B1
:1014D00080917A00816080937A0080917A008068A0
:1014E00080937A001092C10061E08DE00E94A6080E
:1014F00061E08DE00E94BA06E091A404F091A50499
:1015000082E08083E091A004F091A1041082E09138
:10151000A204F091A30480E180831092AC04E091D6
:10152000A804F091A90486E08083E091A604F091DC
:10153000A704808180618083E091A604F091A704D4
:10154000808188608083E091A604F091A704808167
:1015500080688083E091A604F091A70480818F7D4C
:1015600080838CE691E00E94A20589E991E00E94C7
:10157000A20585EC91E00E94A20581EF91E00E9416
:10158000A2058DE691E00E94A2058DE192E00E9405
:10159000A20580E392E00E94A2058BE492E00E9403
:1015A000A20580E792E00E94A2058BE892E00E94EB
:1015B000A2058EE992E00E94A20589EB92E00E94CA
:1015C000A2058FEB92E00E94A2058AED92E00E94B4
:1015D000A2058EEE92E00E94A20589E093E00E94AF
:1015E000A20584E994E00E94700160E089E00E9415
:1015F000A6088EE093E00E94A20584E994E00E9490
:10160000700162E0809136050E94A6082FB7F89419
:101610008091900490919104A0919204B0919304D0
:101620002FBF805D9740A109B10980933A0590933F
:101630003B05A0933C05B0933D0587E380934305AC
:101640008CE293E00E94A20584E994E00E9470017C
:1016500060E08DE00E94BA0684E5E82E81E0F82E75
:1016600088248A94982C9FE7A92EBA2C26E4C22EAF
:1016700021E0D22E30E4332E4CE0242E61E08DE0C8
:101680000E94BA0681E393E00E94A205809147057B
:101690008B83FA82E98280914805909149059D8368
:1016A0008C8380914A0590914B05A0914C05B09197
:1016B0004D058E839F83A887B98763E674E0CE01CA
:1016C00001960E941D02809147058B83FA82E98270
:1016D00080914805909149059D838C8380914A05AE
:1016E00090914B05A0914C05B0914D058E839F8341
:1016F000A887B9876FE374E0CE0101960E94360394
:1017000040905304509054046090550470905604D7
:10171000A3019201C301B2010E94AB0F811114C059
:1017200020E030E040E252ECC301B2010E944C0DD7
:1017300087FD0AC020E030E040EA52E4C301B20174
:101740000E94A60F18166CF4809230049092310417
:10175000A0923204B092330480E993E00E94A20583
:1017600017C040923004509231046092320470925B
:10177000330483EB93E00E94A205609130047091E2
:101780003104809132049091330442E00E94A40518
:1017900084E994E00E947001809150058B83DA8285
:1017A000C98280915105909152059D838C838091CF
:1017B000530590915405A0915505B09156058E831F
:1017C0009F83A887B98763E674E0CE0101960E94E3
:1017D0009F01809150058B83DA82C98280915105E7
:1017E000909152059D838C8380915305909154056F
:1017F000A0915505B09156058E839F83A887B98720
:101800006FE374E0CE0101960E94B0024090530451
:10181000509054046090550470905604A3019201B6
:10182000C301B2010E94AB0F811113C020E030E070
:10183000A901C301B2010E944C0D87FD0AC020E03E
:1018400030E048EC52E4C301B2010E94A60F181622
:101850006CF48092340490923504A0923604B092D5
:1018600037048FEC93E00E94A20517C04092340425
:101870005092350460923604709237048FEE93E0F4
:101880000E94A20560913404709135048091360461
:101890009091370442E00E94A40584E994E00E94FC
:1018A000700130927C0080917A00806480937A008D
:1018B00080917A0086FDFCCF0091780080917900BC
:1018C00010E0182B2801612C712CC301B2010E9479
:1018D000510D9B01AC010E94AB0F882329F086E4D7
:1018E00093E00E94A2052CC0033984E0180718F089
:1018F00020923A0410C0E6E0F1E080E090E021910F
:1019000031912017310718F080933A0404C00196F2
:101910008C309105A1F78CE693E00E94A2054AE085
:10192000C301B2010E9461058BE893E00E94A20509
:1019300060913A0470E080E090E04AE00E94610526
:1019400084E994E00E94700160E08DE00E94BA0694
:1019500068E873E180E090E00E94E2080E94920152
:101960008DCECF93DF93C8ECD5E01B821A8288EE30
:1019700093E0A0E0B0E08C839D83AE83BF8322E23E
:1019800031E039832883E4E9F4E01382128284830E
:101990009583A683B78384E391E09183808385EC6C
:1019A00090E09587848784EC90E09787868780EC29
:1019B00090E0918B808B81EC90E0938B828B82EC1A
:1019C00090E0958B848B86EC90E0978B868B118EC4
:1019D000128E138E148EA1E3B5E089E015968C93D8
:1019E000159786E116968C931697E7EBF0E0E49155
:1019F0001796EC931797E3EAF0E0E4911896EC93CE
:101A0000189740E85EE360E070E01D964D935D93AB
:101A10006D937C93509753968C93539784E591E004
:101A200055969C938E9354970A2E1B2E58961C9273
:101A30000E92112457974FEF5FEFBA0159964D93CD
:101A40005D936D937C935C9786E491E05E969C93A6
:101A50008E935D970A2E1B2E91961C920E92112446
:101A6000909792964D935D936D937C939597E4ED4B
:101A7000F5E085E481838AE999E9A9E9BFE38283F6
:101A80009383A483B5831782168283E28083D187F0
:101A9000C087DF91CF9108950E948E0D08F481E0F8
:101AA0000895E89409C097FB3EF490958095709551
:101AB00061957F4F8F4F9F4F9923A9F0F92F96E99A
:101AC000BB279395F695879577956795B795F1110F
:101AD000F8CFFAF4BB0F11F460FF1BC06F5F7F4FAC
:101AE0008F4F9F4F16C0882311F096E911C07723BE
:101AF00021F09EE8872F762F05C0662371F096E8C7
:101B0000862F70E060E02AF09A95660F771F881F95
:101B1000DAF7880F9695879597F90895990F000839
:101B2000550FAA0BE0E8FEEF16161706E807F907AF
:101B3000C0F012161306E407F50798F0621B730B4A
:101B4000840B950B39F40A2661F0232B242B252BCB
:101B500021F408950A2609F4A140A6958FEF811D6E
:101B6000811D08950E94C50D0C94360E0E94280E0A
:101B700038F00E942F0E20F0952311F00C941F0EC8
:101B80000C94250E11240C946A0E0E94470E70F3DB
:101B9000959FC1F3950F50E0551F629FF001729F12
:101BA000BB27F00DB11D639FAA27F00DB11DAA1F21
:101BB000649F6627B00DA11D661F829F2227B00D6E
:101BC000A11D621F739FB00DA11D621F839FA00DF9
:101BD000611D221F749F3327A00D611D231F849F49
:101BE000600D211D822F762F6A2F11249F575040A0
:101BF0009AF0F1F088234AF0EE0FFF1FBB1F661F1B
:101C0000771F881F91505040A9F79E3F510580F0E3
:101C10000C941F0E0C946A0E5F3FE4F3983ED4F3CD
:101C2000869577956795B795F795E7959F5FC1F787
:101C3000FE2B880F911D9695879597F9089597F932
:101C40009F6780E870E060E008959FEF80EC089562
:101C500000240A941616170618060906089500248B
:101C60000A9412161306140605060895092E039405
:101C7000000C11F4882352F0BB0F40F4BF2B11F479
:101C800060FF04C06F5F7F4F8F4F9F4F089557FDD8
:101C90009058440F551F59F05F3F71F04795880FDA
:101CA00097FB991F61F09F3F79F087950895121671
:101CB00013061406551FF2CF4695F1DF08C016161D
:101CC00017061806991FF1CF8695710561050894CE
:101CD0000895E894BB2766277727CB0197F90895E5
:101CE000A1E21A2EAA1BBB1BFD010DC0AA1FBB1F20
:101CF000EE1FFF1FA217B307E407F50720F0A21B92
:101D0000B30BE40BF50B661F771F881F991F1A94FE
:101D100069F760957095809590959B01AC01BD0128
:101D2000CF010895EE0FFF1F0590F491E02D099467
:101D30005058BB27AA270E94B00E0C94360E0E9462
:101D4000280E38F00E942F0E20F039F49F3F19F42E
:101D500026F40C94250E0EF4E095E7FB0C941F0E70
:101D6000E92F0E94470E58F3BA17620773078407DA
:101D7000950720F079F4A6F50C94690E0EF4E09521
:101D80000B2EBA2FA02D0B01B90190010C01CA0135
:101D9000A0011124FF27591B99F0593F50F4503EE0
:101DA00068F11A16F040A22F232F342F4427585FD2
:101DB000F3CF469537952795A795F0405395C9F7EA
:101DC0007EF41F16BA0B620B730B840BBAF09150A2
:101DD000A1F0FF0FBB1F661F771F881FC2F70EC041
:101DE000BA0F621F731F841F48F487957795679514
:101DF000B795F7959E3F08F0B0CF9395880F08F000
:101E00009927EE0F9795879508950E94190F0C94C6
:101E1000360E0E942F0E58F00E94280E40F029F432
:101E20005F3F29F00C941F0E51110C946A0E0C9414
:101E3000250E0E94470E68F39923B1F3552391F3C1
:101E4000951B550BBB27AA2762177307840738F029
:101E50009F5F5F4F220F331F441FAA1FA9F335D086
:101E60000E2E3AF0E0E832D091505040E695001C3A
:101E7000CAF72BD0FE2F29D0660F771F881FBB1FF4
:101E8000261737074807AB07B0E809F0BB0B802DD2
:101E9000BF01FF2793585F4F3AF09E3F510578F0FE
:101EA0000C941F0E0C946A0E5F3FE4F3983ED4F33B
:101EB000869577956795B795F7959F5FC9F7880FD2
:101EC000911D9695879597F90895E1E0660F771F24
:101ED000881FBB1F621773078407BA0720F0621BB5
:101EE000730B840BBA0BEE1F88F7E09508950E94E0
:101EF0004F0E88F09F5798F0B92F9927B751B0F03F
:101F0000E1F0660F771F881F991F1AF0BA95C9F77D
:101F100014C0B13091F00E94690EB1E008950C94A4
:101F2000690E672F782F8827B85F39F0B93FCCF357
:101F3000869577956795B395D9F73EF490958095FA
:101F4000709561957F4F8F4F9F4F08950E948E0D22
:101F500008F48FEF08950E948E0D880B990B089559
:101F60000F931F93CF93DF938230910510F482E09B
:101F700090E0E091E405F091E50520E030E0A0E09C
:101F8000B0E0309719F140815181028113814817E7
:101F90005907C8F08417950769F4109731F0129625
:101FA0000C93129713961C9327C00093E40510938B
:101FB000E50522C02115310519F04217530718F421
:101FC0009A01BD01EF01DF01F801DBCF21153105D9
:101FD000F9F0281B390B2430310580F48A819B816C
:101FE0006115710521F0FB019383828304C09093F6
:101FF000E5058093E405FE01329644C0FE01E20F40
:10200000F31F8193919322503109398328833AC079
:102010002091E2053091E305232B41F42091020148
:10202000309103013093E3052093E20520910001F4
:10203000309101012115310541F42DB73EB7409192
:10204000040150910501241B350BE091E205F0914C
:10205000E305E217F307A0F42E1B3F0B28173907FF
:1020600078F0AC014E5F5F4F2417350748F04E0FF4
:102070005F1F5093E3054093E2058193919302C063
:10208000E0E0F0E0CF01DF91CF911F910F91089533
:10209000CF93DF93009709F481C0FC01329713823C
:1020A0001282A091E405B091E505109781F420819A
:1020B0003181820F931F2091E2053091E3052817AB
:1020C000390751F5F093E305E093E20567C0ED01B0
:1020D00020E030E0CE17DF0740F44A815B819E01AB
:1020E00041155105F1F0EA01F5CFD383C283408158
:1020F0005181840F951FC817D90759F48881998198
:10210000840F951F0296918380838A819B8193839C
:1021100082832115310529F4F093E505E093E40568
:102120003DC0E901FB83EA8349915991C40FD51F52
:10213000EC17FD0761F480819181840F951F029651
:10214000E90199838883828193819B838A83E0E07C
:10215000F0E012968D919C911397009719F0FD0174
:10216000DC01F7CF8D919C9111979D012E5F3F4F20
:10217000820F931F2091E2053091E305281739075C
:1021800069F4309729F41092E5051092E40502C035
:1021900013821282B093E305A093E205DF91CF9101
:1021A000089581E090E0F8940C94E510FB01DC01C7
:1021B0004150504048F001900D920020C9F701C0F5
:0E21C0001D9241505040E0F70895F894FFCF73
:1021CE000000E60520003200E3003E019801F70111
:1021DE005E02B8021B037103D003370492040000A1
:1021EE0000003E053305B70025052C0529052605FB
:1021FE000000000023018C00BA007001EB00C90042
:10220E00DD0000000000BE04F3039C01B0029F013C
:10221E0000000000BF04F5039C0136031D02000000
:10222E000000000000009C019D019D010A23232354
:10223E002323232323232323232323232323232360
:10224E002323232323232323232323232323232350
:10225E00232323232323230A00232020202020208E
:10226E00202020202020202020204154532D3031AA
:10227E002020202020202020202020202020202050
:10228E002020230A00232020204167726F546563AB
:10229E00682053746174696F6E2030312028546940
:1022AE006E792076657273696F6E29202020230A5D
:1022BE00002320202020202020204167726F5465AB
:1022CE0063684C61622028494653432F4C61676511
:1022DE0073292020202020202020230A00537461FF
:1022EE007274696E67204154532D30312E2E2E009C
:1022FE000A094D43552064657669636520626F61F6
:10230E0072642E2E2E2E2E2E3A2000417264756986
:10231E006E6F2050726F204D696E692041746D652D
:10232E006761333238702035562031364D487A0089
:10233E000A09436F6D6D756E69636174696F6E2006
:10234E006465766963652E2E3A20004C6F526120CB
:10235E002D2052484637362D303532414D000A0970
:10236E004669726D776172652076657273696F6EFC
:10237E002E2E2E2E2E2E3A2000312E302E30000AEA
:10238E000953656E736F72206C6973742E2E2E2E28
:10239E002E2E2E2E2E2E2E3A200044485432322C23
:1023AE0020475933302C2055564D333041000A0901
:1023BE004163747561746F72206C6973742E2E2E66
:1023CE002E2E2E2E2E2E3A20006E6F6E65000A09CE
:1023DE00496E697469616C697A696E672044485404
:1023EE002073656E736F722E2E2E20005B4F4B5D29
:1023FE00000A52656164696E672073656E736F7251
:10240E00732E2E2E2E000A094572726F722072657F
:10241E006164696E672055562072616469617469E2
:10242E006F6E20696E646578212121000A09555668
:10243E0020726164696174696F6E2028696E20551F
:10244E005620696E646578293A2000203D3E2000B2
:10245E000A094572726F722072656164696E672037
:10246E006169722074656D70657261747572652133
:10247E002121000A094169722074656D70657261CF
:10248E00747572652028696E206F43293A20000A00
:10249E00094572726F722072656164696E672061A0
:1024AE0069722068756D6964697479212121000A49
:1024BE00094169722068756D6964697479202869AB
:1024CE006E2025293A20006E616E00696E66006FDF
:1024DE007666004448543131004448543132004449
:1024EE0048543231004448543232004448543F007C
:00000001FF
