:100000000C9419020C9441020C9441020C9441028C
:100010000C9441020C9441020C9441020C94410254
:100020000C9441020C9441020C9441020C94410244
:100030000C9441020C9441020C9441020C94410234
:100040000C94A0050C9441020C9410060C94EA0543
:100050000C9441020C9441020C9441020C94410214
:100060000C9490090C9441020A09416374756174FF
:100070006F72206C6973742E2E2E2E2E2E2E2E2E25
:100080003A20000A0953656E736F72206C697374AD
:100090002E2E2E2E2E2E2E2E2E2E2E3A20000A09F9
:1000A0004669726D776172652076657273696F6EED
:1000B0002E2E2E2E2E2E3A20000A09436F6D6D75BE
:1000C0006E69636174696F6E206465766963652E1D
:1000D0002E3A20000A094D43552064657669636510
:1000E00020626F6172642E2E2E2E2E2E3A20005327
:1000F00074617274696E67204154532D30312E2E15
:100100002E002323232323232323232323232323D7
:1001100023232323232323232323232323232323AF
:100120002323232323232323232323230A002320DE
:10013000202020202020204167726F546563684C86
:1001400061622028494653432F4C6167657329201B
:1001500020202020202020230A0023202020416767
:10016000726F546563682053746174696F6E2030D8
:1001700031202854696E792076657273696F6E2913
:10018000202020230A00232020202020202020209F
:10019000202020202020204154532D3031202020A9
:1001A000202020202020202020202020202020234C
:1001B0000A000A2323232323232323232323232364
:1001C00023232323232323232323232323232323FF
:1001D000232323232323232323232323230A005BF3
:1001E0004248313735305D204552524F523A2075E2
:1001F0006E646566696E6564206572726F72005B1D
:100200004248313735305D204552524F523A206FC7
:1002100074686572206572726F72005B4248313794
:1002200035305D204552524F523A20726563656900
:10023000766564204E41434B206F6E207472616E70
:10024000736D6974206F662064617461005B42485D
:10025000313735305D204552524F523A2072656336
:100260006569766564204E41434B206F6E20747241
:10027000616E736D6974206F66206164647265736A
:1002800073005B4248313735305D204552524F5242
:100290003A20746F6F206C6F6E6720666F722074E7
:1002A00072616E736D697420627566666572005B5B
:1002B0004248313735305D204552524F523A207511
:1002C0006E646566696E6564206572726F72005B4C
:1002D0004248313735305D204552524F523A206FF7
:1002E00074686572206572726F72005B42483137C4
:1002F00035305D204552524F523A20726563656930
:10030000766564204E41434B206F6E207472616E9F
:10031000736D6974206F662064617461005B42488C
:10032000313735305D204552524F523A2072656365
:100330006569766564204E41434B206F6E20747270
:10034000616E736D6974206F662061646472657399
:1003500073005B4248313735305D204552524F5271
:100360003A20746F6F206C6F6E6720666F72207416
:1003700072616E736D697420627566666572000ADB
:1003800009496E697469616C697A696E67204448CD
:10039000542073656E736F722E2E2E20005B4248C0
:1003A000313735305D204465766963652069732097
:1003B0006E6F7420636F6E66696775726564210085
:1003C0000A52656164696E672073656E736F72733C
:1003D0002E2E2E2E0000000000240027002A0000F0
:1003E000000000250028002B00000000080002018A
:1003F00000000304070000000000000000000000EF
:100400000023002600290004040404040404040258
:1004100002020202020303030303030102040810A1
:10042000204080010204081020010204081020006E
:10043000231211241FBECFEFD8E0DEBFCDBF25E0D1
:10044000AAE0B3E001C01D92A530B207E1F713E0C6
:10045000A0E0B1E0E2EBFCE202C005900D92AA3010
:10046000B107D9F712E0C9E1D2E004C02197FE013B
:100470000E940414C831D107C9F70E94510D0C9491
:1004800057160C940000CF92DF92EF92FF920F93D9
:100490001F93CF93DF936C017A018B01C0E0D0E012
:1004A000CE15DF0581F0D8016D918D01D601ED915A
:1004B000FC910190F081E02DC6010995892B11F086
:1004C0002196EECF7E01C701DF91CF911F910F9151
:1004D000FF90EF90DF90CF900895089580E090E036
:1004E0000895FC01538D448D252F30E0842F90E03A
:1004F000821B930B541710F0CF960895019708951F
:10050000FC01918D828D981761F0828DDF01A80F1B
:10051000B11D5D968C91928D9F5F9F73928F90E03D
:1005200008958FEF9FEF0895FC01918D828D9817AC
:1005300031F0828DE80FF11D858D90E008958FEFE9
:100540009FEF0895FC01918D228D892F90E0805CB2
:100550009F4F821B91098F739927089580EC93E038
:100560000E94A20221E0892B09F420E0822F089545
:10057000FC01848DDF01A80FB11DA35ABF4F2C9140
:10058000848D90E001968F739927848FA689B7890F
:100590002C93A089B1898C91837080648C93938D06
:1005A000848D981306C00288F389E02D80818F7DA9
:1005B00080830895EF92FF920F931F93CF93DF9361
:1005C000EC0181E0888F9B8D8C8D981305C0E889A4
:1005D000F989808185FD26C0F62E0B8D10E00F5F16
:1005E0001F4F0F731127E02E8C8DE8120CC00FB631
:1005F00007FCFACFE889F989808185FFF5CFCE0124
:100600000E94B802F1CF8B8DFE01E80FF11DE35A75
:10061000FF4FF0829FB7F8940B8FEA89FB898081A6
:1006200080620AC09FB7F894EE89FF896083E889E9
:10063000F98980818370806480839FBF81E090E02E
:10064000DF91CF911F910F91FF90EF900895CF937D
:10065000DF93EC01888D8823C9F0EA89FB898081CA
:1006600085FD05C0A889B9898C9186FD0FC00FB69C
:1006700007FCF5CF808185FFF2CFA889B9898C91DD
:1006800085FFEDCFCE010E94B802E7CFDF91CF9179
:10069000089580E090E0892B29F00E94AE0281113C
:1006A0000C940000089508950E9443160F931F9321
:1006B000CF93DF938C01EB0188E2DB011D928A95D9
:1006C000E9F7F801838194810E94980881E090E025
:1006D000A0E0B0E08C879D87AE87BF87F801858159
:1006E0009681A781B085888B998BAA8BBB8B8CE078
:1006F00090E0A0E0B0E08C8B9D8BAE8BBF8BBE01F9
:10070000838194810E948108D8011396ED91FC9118
:10071000149783898C3069F038F48B30A1F580E030
:1007200090E0A0EAB2E409C08531C1F08631B1F0B1
:100730002AC080E090E0AEEBB2E4888F998FAA8F58
:10074000BB8F80E090E0A0EAB1E48C8F9D8FAE8FEC
:10075000BF8F80E090E0A0EAB0E410C080E090E0BD
:10076000A8ECB2E4888F998FAA8FBB8F1C8E1D8E48
:100770001E8E1F8E8DEC9CECACECBDE388A399A380
:10078000AAA3BBA30CC0188E198E1A8E1B8E1C8EAA
:100790001D8E1E8E1F8E18A219A21AA21BA2DF91F7
:1007A000CF911F910F9108950F931F93CF93DF93D4
:1007B0008C01EB0188E2DB011D928A95E9F7F801D3
:1007C000838194810E94980881E090E0A0E0B0E0ED
:1007D0008C879D87AE87BF87F80185819681A78129
:1007E000B085888B998BAA8BBB8B8DE090E0A0E0C5
:1007F000B0E08C8B9D8BAE8BBF8BBE0183819481CF
:100800000E948108D8011396ED91FC911497838979
:100810008C30F1F0A0F48B3009F048C080E090E01B
:10082000A8E4B2E4888F998FAA8FBB8F1C8E1D8E8F
:100830001E8E1F8E80E090E0A0E0B0E432C08531D3
:10084000E1F0863199F580E090E0AAEFB2E419C0BA
:1008500080E090E0A0E7B2E4888F998FAA8FBB8FE9
:1008600080E090E0A0EAB1EC8C8F9D8FAE8FBF8FBF
:1008700080E090E0A0E0BFE314C080E090E0A0EA58
:10088000B2E4888F998FAA8FBB8F80E090E0A0E2BE
:10089000B2EC8C8F9D8FAE8FBF8F8DEC9CECACEC4F
:1008A000BDE388A399A3AAA3BBA30CC0188E198E7D
:1008B0001A8E1B8E1C8E1D8E1E8E1F8E18A219A2C4
:1008C0001AA21BA2DF91CF911F910F910895CF9291
:1008D000DF92EF92FF920F931F93CF93DF938C01E0
:1008E000EB0184E2FB0111928A95E9F784E290E042
:1008F000A0E0B0E088839983AA83BB83F801858157
:100900009681A781B0858C839D83AE83BF838CE065
:1009100090E0A0E0B0E088879987AA87BB870E9413
:10092000410C688B798B8A8B9B8BF8010381148136
:10093000C8010E944D0C8823B9F1F80186818B30E3
:1009400098F18D30A0F08551823070F5F80160810A
:10095000718176276727762780E090E00E94C31296
:100960002DEC3CEC4CEC5DE30E94241321C0F8011B
:10097000618170E080E090E00E94C5122DEC3CECBB
:100980004CEC5DE30E9424136B017C01F801608153
:1009900070E080E090E00E94C5129B01AC01C701AD
:1009A000B6010E940B1404C060E070E080EC9FE789
:1009B0006C8B7D8B8E8B9F8B81E0DF91CF911F9114
:1009C0000F91FF90EF90DF90CF9008958F929F92BC
:1009D000AF92BF92EF92FF921F93CF93DF937C0170
:1009E000EB0184E2FB0111928A95E9F784E290E041
:1009F000A0E0B0E088839983AA83BB83F701858157
:100A00009681A781B0858C839D83AE83BF838DE063
:100A100090E0A0E0B0E088879987AA87BB870E9412
:100A2000410C688B798B8A8B9B8BF701E380F48078
:100A3000C7010E944D0C882309F46BC0F701868121
:100A40008C3009F445C018F48B30C9F062C0855170
:100A5000823008F05EC0F7011281612F6F7770E07D
:100A6000762F66278381682B80E090E00E94C31276
:100A70002DEC3CEC4CEC5DE30E94241346C0F701E6
:100A8000628170E080E090E00E94C3124B015C0143
:100A9000F701138117FF0AC09B01AC0160E070E011
:100AA00080E89FEB0E940A144B015C01612F6F707C
:100AB00070E080E090E00E94C5122DEC3CEC4CEC24
:100AC0005DE30E942413A50194010E940B1425C02C
:100AD000F701128163816F7070E080E090E00E9406
:100AE000C5122DEC3CEC4CEC5DE30E9424134B0151
:100AF0005C01612F70E080E090E00E94C3129B01D6
:100B0000AC01C501B4010E940B1417FF06C0905838
:100B100004C060E070E080EC9FE76C8B7D8B8E8B77
:100B20009F8B81E0DF91CF911F91FF90EF90BF905D
:100B3000AF909F908F9008950C94BA150C94BA15AD
:100B40001F920F920FB60F9211242F933F938F9302
:100B50009F93AF93BF938091660390916703A09199
:100B60006803B09169033091650323E0230F2D37AB
:100B700020F40196A11DB11D05C026E8230F0296A1
:100B8000A11DB11D209365038093660390936703B5
:100B9000A0936803B093690380916A0390916B03FB
:100BA000A0916C03B0916D030196A11DB11D8093BE
:100BB0006A0390936B03A0936C03B0936D03BF9192
:100BC000AF919F918F913F912F910F900FBE0F90FA
:100BD0001F9018951F920F920FB60F9211242F930A
:100BE0003F934F935F936F937F938F939F93AF93B5
:100BF000BF93EF93FF9380EC93E00E94B802FF91C4
:100C0000EF91BF91AF919F918F917F916F915F9184
:100C10004F913F912F910F900FBE0F901F901895FD
:100C20001F920F920FB60F9211242F938F939F93C1
:100C3000EF93FF93E091D003F091D1038081E09195
:100C4000D603F091D70382FD12C090818091D90321
:100C50008F5F8F732091DA03821751F0E091D903EF
:100C6000F0E0E054FC4F958F8093D90301C0808160
:100C7000FF91EF919F918F912F910F900FBE0F9049
:100C80001F90189508950895CF92DF92EF92FF92EA
:100C90001F93CF93DF93EC011F81662311F0912FF7
:100CA00001C090E0288530E0220F331F23503C4FD5
:100CB000A0E0B0E0F90145915491FA0180818123CF
:100CC000AD0160E070E089130FC01196CD84DE8421
:100CD000EF84F8884C155D056E057F0558F33FEFEE
:100CE0002FEF8FEF9FEF03C03A2F252FCB01632FFC
:100CF000722FDF91CF911F91FF90EF90DF90CF90F7
:100D000008954091B204262F30E0240F311D213286
:100D10003105DCF42091B6032430C9F4FC0180E0F5
:100D200090E0861758F43091B2042191DC01AE5660
:100D3000BB4FA30FB11D2C930196F3CF8091B2044A
:100D4000680F6093B20480E0089581E0089582E026
:100D500008950895E0918F0380918E03E81730F491
:100D6000F0E0E259FC4F808190E008958FEF9FEF13
:100D7000089590918F0380918E03981750F4E92F76
:100D8000F0E0E259FC4F208130E09F5F90938F03A9
:100D900002C02FEF3FEFC901089580918E0390E0CC
:100DA00020918F03821B91090895CF92DF92EF92D9
:100DB000FF920F931F93CF93DF937C01CB018A01A6
:100DC0002091BC03222389F0EB016B01C40ED51ED8
:100DD000CC15DD0569F06991D701ED91FC91019089
:100DE000F081E02DC7010995F3CF642F0E948106A1
:100DF000C801DF91CF911F910F91FF90EF90DF908D
:100E0000CF900895CF93DF931F92CDB7DEB769835C
:100E10002091BC032223D1F02091BF03203240F067
:100E200021E030E0FC013383228380E090E015C0B4
:100E30008091BD03E82FF0E0EB52FB4F9981908346
:100E40008F5F8093BD038093BF0305C061E0CE0137
:100E500001960E94810681E090E00F90DF91CF9192
:100E60000895009769F0FC0101900020E9F731979F
:100E7000AF01481B590BBC0180EC93E00C9443027A
:100E800080E090E008958F929F92AF92BF920F936F
:100E90001F93CF93DF93CDB7DEB7A1970FB6F8942A
:100EA000DEBF0FBECDBF19A2423008F44AE08E016A
:100EB0000F5D1F4F842E912CA12CB12CA501940104
:100EC0000E94E213E62FB901CA0101501109EA306C
:100ED00014F4E05D01C0E95CD801EC93232B242BD2
:100EE000252B61F7C8010E943107A1960FB6F8942F
:100EF000DEBF0FBECDBFDF91CF911F910F91BF908D
:100F0000AF909F908F9008950C9431070F931F938B
:100F1000CF93DF938C01C0E0D0E0F801EC0FFD1F10
:100F20006491662341F080EC93E00E94DA02892B01
:100F300011F02196F2CFCE01DF91CF911F910F9149
:100F40000895CF93DF930E948607EC018DED92E028
:100F50000E9431078C0F9D1FDF91CF9108958F92D2
:100F60009F92AF92BF92CF92DF92EF92FF920F9338
:100F70001F93CF93DF936B017C01142F9B01AC0176
:100F80000E941D15882319F080EE92E027C04601CB
:100F90005701E894B7F82FEF3FEF4FE75FE7C50140
:100FA000B4010E941D1581110DC02FEF3FEF4FE7D7
:100FB0005FE7C501B4010E94BE1218161CF484EE4E
:100FC00092E00CC02FEF3FEF4FE75FE4C701B6019F
:100FD0000E941815181684F488EE92E0DF91CF91E4
:100FE0001F910F91FF90EF90DF90CF90BF90AF9047
:100FF0009F908F900C9431072FEF3FEF4FE75FECFE
:10100000C701B6010E94BE1287FDE6CF20E030E0A6
:10101000A901C701B6010E94BE1287FF0BC06DE295
:1010200080EC93E00E94DA02EC01F7FAF094F7F812
:10103000F09402C0C0E0D0E000E060E070E080E04A
:101040009FE3101741F020E030E040E251E40E94BD
:1010500077140F5FF6CFA70196010E940B146B0166
:101060007C010E94E9144B015C014AE00E944307A5
:10107000C80FD91F1123B9F1C501B4010E94C312D1
:101080009B01AC01C701B6010E940A146B017C01EF
:101090006EE280EC93E00E94DA02C80FD91F20E0D4
:1010A00030E040E251E4C701B6010E9424134B0135
:1010B0005C010E94E9146B01E12CF12C4AE0C701AC
:1010C000B6010E944307C80FD91FC701B6010E948D
:1010D000C3129B01AC01C501B4010E940A146B014B
:1010E0007C011150E1F6CE01DF91CF911F910F915C
:1010F000FF90EF90DF90CF90BF90AF909F908F9038
:101100000895FB01DC0153968C918C3041F038F44A
:101110008B3029F480E492E4AFE0B0E004C080E8D2
:1011200094E8AEE1B0E084A395A3A6A3B7A3089585
:10113000CF93DF93EB01FC0183898C3089F038F485
:101140008B30C1F44BE050E06CEE72E017C085319B
:1011500061F0863179F44BE050E06EEF72E00EC042
:101160004BE050E062EF72E009C04BE050E068EF06
:1011700072E004C04BE050E064E073E0CE010E94F6
:1011800048161B86DF91CF910895DC01ED91FC910B
:101190000190F081E02D099490E0FC01E751FC4FB3
:1011A0002491FC01E55EFB4F3491FC01E95FFB4FAC
:1011B000E491EE2309F43CC0222339F1233091F06D
:1011C00038F42130A9F0223001F584B58F7D12C0AA
:1011D000273091F02830A1F02430B9F480918000BC
:1011E0008F7D03C0809180008F77809380000DC039
:1011F00084B58F7784BD09C08091B0008F7703C01C
:101200008091B0008F7D8093B000F0E0EE0FFF1F63
:10121000E152FC4FA591B4919FB7F894611104C0BD
:101220008C913095382302C0EC913E2B3C939FBFAC
:1012300008951F93CF93DF93C1E0C0939104882357
:1012400099F1D091B8001091BA008091BC008A7BCE
:101250008093BC0060E082E10E94CC0860E083E102
:101260000E94CC081092B603C093B503109290036D
:1012700061E082E10E94CC0861E083E10E94CC0839
:101280008091B9008E7F8093B9008091B9008D7FE5
:101290008093B90088E48093B80085E48093BC0013
:1012A0001093BA00D093B800DF91CF911F910895A9
:1012B00085ED8093BC008091B8039091B903A09113
:1012C000BA03B091BB030796A11DB11D23E0B695EB
:1012D000A795979587952A95D1F72091BC0024FF73
:1012E0001CC04091B8035091B9036091BA0370914A
:1012F000BB03452B462B472B81F30097A105B10576
:1013000041F025E32A95F1F700000197A109B10901
:10131000E4CF8091B7030C9419091092B603089595
:101320001F920F920FB60F9211242F933F934F935A
:101330005F936F937F938F939F93AF93BF93EF933D
:10134000FF938091B900887F803609F49CC068F5CE
:10135000883209F45BC090F4803109F454C038F449
:10136000882309F4F2C0883009F44DC0F2C08831F6
:1013700009F44CC0803209F45DC0EBC0803409F43C
:1013800068C048F4803309F455C0883309F0E1C0DF
:101390008093B403D4C0803509F44FC0883509F474
:1013A0005DC0883409F0D5C0D2C0883909F4C3C003
:1013B000A8F4883709F467C038F4883609F463C0A4
:1013C000803709F460C0C5C0883809F4B4C08039DA
:1013D00009F45FC0803809F0BCC05BC0803B09F4F1
:1013E00084C038F4803A09F466C0883A09F47DC0B4
:1013F000B0C0803C09F4A3C0883C09F4A0C0883B7D
:1014000009F486C0A6C08091910310C09091B303E7
:101410008091B203981770F5E091B30381E08E0FCD
:101420008093B303F0E0EE56FC4F80818093BB00C5
:1014300085EC82C08093B4038AC0E091B30381E05D
:101440008E0F8093B3038091BB00F0E0EE56FC4F0B
:1014500080839091B3038091B2036AC0E091B3039B
:1014600081E08E0F8093B3038091BB00F0E0EE56D5
:10147000FC4F80838091B503811169C081E0809326
:10148000900384EA5DC083E08093B6031092D40495
:10149000CFCF8091D404803208F04DC0E091D404C5
:1014A00081E08E0F8093D4048091BB00F0E0EC5477
:1014B000FB4F8083BDCF85EC8093BC001092B603B8
:1014C0008091D404803230F4E091D404F0E0EC5404
:1014D000FB4F10826091D40470E084EB94E0E0E074
:1014E000F0E009951092D40434C084E08093B603F0
:1014F0001092B3041092B204E0E0F0E009958091FC
:10150000B204811105C081E08093B204109292046C
:10151000E091B30481E08E0F8093B304F0E0EE56C7
:10152000FB4F80818093BB009091B3048091B20403
:10153000981708F47DCF85E88093BC000AC085EC3D
:101540008093BC001092B60304C01092B4030E94B2
:101550005809FF91EF91BF91AF919F918F917F912A
:101560006F915F914F913F912F910F900FBE0F9010
:101570001F901895CF93DF9390E0FC01E55EFB4F41
:101580002491FC01E95FFB4F8491882361F190E095
:10159000880F991FFC01EB52FC4FC591D491FC01BF
:1015A000E152FC4FA591B491611109C09FB7F89425
:1015B0008881209582238883EC912E230BC0623092
:1015C00061F49FB7F8948881322F30958323888304
:1015D000EC912E2B2C939FBF06C08FB7F894E88117
:1015E0002E2B28838FBFDF91CF9108953FB7F894BA
:1015F00080916A0390916B03A0916C03B0916D038D
:1016000026B5A89B05C02F3F19F00196A11DB11D5D
:101610003FBFBA2FA92F982F8827820F911DA11D98
:10162000B11DBC01CD0142E0660F771F881F991FD5
:101630004A95D1F708958F929F92AF92BF92CF9221
:10164000DF92EF92FF920F931F93CF93DF9310914E
:10165000BF03113208F0C2C0D091BE030E94F60A47
:101660006B017C01C091B603CC2311F18091B803CA
:101670009091B903A091BA03B091BB03892B8A2B37
:101680008B2B81F30E94F60A8090B8039090B903E7
:10169000A090BA03B090BB03DC01CB018C199D096B
:1016A000AE09BF0988169906AA06BB06D8F682C0FD
:1016B00082E08093B60381E08093B5038FEF80933F
:1016C000B4031092B3031093B203A5EDB4E0E2E9C2
:1016D000F3E080E0181721F09D9191938F5FFACF8E
:1016E00010929103909191038D2F880F892B8093F5
:1016F000910380919003813089F5109290030E94AC
:10170000F60A6B017C01809191038093BB0080916C
:10171000B8039091B903A091BA03B091BB03892B90
:101720008A2B8B2BA9F00E94F60A0091B803109126
:10173000B9032091BA033091BB03DC01CB018C19B2
:101740009D09AE09BF09081719072A073B0790F141
:101750008091BC0083FDD7CF85EC01C085EE8093DE
:10176000BC000E94F60A6B017C018091B6038230B6
:1017700039F58091B8039091B903A091BA03B09163
:10178000BB03892B8A2B8B2B81F30E94F60A0091D5
:10179000B8031091B9032091BA033091BB03DC0167
:1017A000CB018C199D09AE09BF09081719072A0733
:1017B0003B07D8F68091B7030E941909C5E013C012
:1017C0008091B4038F3F79F08091B403803241F06F
:1017D0008091B403803331F0C4E005C0C1E003C0A0
:1017E000C2E001C0C3E01092BD031092BF0310928B
:1017F000BC038C2FDF91CF911F910F91FF90EF9041
:10180000DF90CF90BF90AF909F908F9008958F9270
:101810009F92AF92BF92CF92DF92EF92FF926B01B5
:101820007C010E94F60A4B015C01C114D104E10461
:10183000F104F1F00E94F60ADC01CB018819990944
:10184000AA09BB09883E9340A105B10570F321E0C8
:10185000C21AD108E108F10888EE880E83E0981ECC
:10186000A11CB11CC114D104E104F10419F7DDCFAE
:10187000FF90EF90DF90CF90BF90AF909F908F90B0
:1018800008952FB7F8946091660370916703809173
:101890006803909169032FBF08958F929F92AF9232
:1018A000BF92CF92DF92EF92FF920F931F93CF934D
:1018B000DF93CDB7DEB7C054D1400FB6F894DEBF8A
:1018C0000FBECDBF8C010E94410CF801C184D284AF
:1018D000E384F4849B01AC012C193D094E095F0996
:1018E00069017A0130EDC31637E0D306E104F10453
:1018F00010F48189C2C0F801618772878387948759
:101900001482138212821182108262E085810E9409
:10191000BA0A61E070E080E090E00E94070C61E0AC
:10192000F80185810E94BA0A60E0F80185810E9471
:10193000CC08F80186818551823028F48BE291E150
:101940000197F1F706C064E170E080E090E00E944A
:10195000070C62E0F80185810E94BA0AF8018289C9
:1019600090E08230910538F0880F991F880F991FF9
:1019700005970197F1F7F89460E0C8010E944406CA
:101980006F3F7F4F8F4F9F4F21F4F801118A78945A
:1019900045C061E0C8010E9444066F3F7F4F8F4FF2
:1019A0009F4F99F39E012F5F3F4F79015E013FEBFF
:1019B000A31A3EEFB30A670160E0C8010E94440623
:1019C000F601608371838283938361E0C8010E9482
:1019D0004406F6016483758386839783F8E0CF0E0F
:1019E000D11CCA14DB0441F7789420E030E0F70101
:1019F00080809180A280B380448155816681778107
:101A0000FFEF8F169F06AF06BF0631F04F3F8FEFF7
:101A100058076807780721F4F801118A80E02DC083
:101A2000F90183E0F595E7958A95E1F7E00FF11F5D
:101A30008081880F84169506A606B70608F4816093
:101A400080832F5F3F4FF8E0EF0EF11C2832310505
:101A500071F6F801248130E04081818190E0840FAB
:101A6000911D4281840F911D4381840F911D9927FF
:101A70002817390789F681E0818BC05CDE4F0FB6ED
:101A8000F894DEBF0FBECDBFDF91CF911F910F91B4
:101A9000FF90EF90DF90CF90BF90AF909F908F908E
:101AA0000895CF93DF93CDB7DEB729970FB6F8949B
:101AB000DEBF0FBECDBF789484B5826084BD84B58F
:101AC000816084BD85B5826085BD85B5816085BD39
:101AD00080916E00816080936E00109281008091F1
:101AE0008100826080938100809181008160809379
:101AF0008100809180008160809380008091B1009E
:101B000084608093B1008091B00081608093B000C8
:101B100080917A00846080937A0080917A0082605C
:101B200080937A0080917A00816080937A0080911E
:101B30007A00806880937A001092C10061E08DE0A5
:101B40000E94BA0A61E08DE00E94CC08E091D003C7
:101B5000F091D10382E08083E091CC03F091CD033A
:101B60001082E091CE03F091CF0380E18083109248
:101B7000D803E091D403F091D50386E08083E0910F
:101B8000D203F091D303808180618083E091D203FE
:101B9000F091D303808188608083E091D203F0913B
:101BA000D303808180688083E091D203F091D303D6
:101BB00080818F7D808382EB91E00E94860786E89A
:101BC00091E00E9486078AE591E00E9486078EE2F6
:101BD00091E00E94860782E091E00E9486078FEEE6
:101BE00090E00E94860784ED90E00E9486078CE6D4
:101BF00091E00E94840789EB90E00E94860781E9CA
:101C000091E00E9484078EE990E00E94860781EAB5
:101C100091E00E94840783E890E00E94860787EAAB
:101C200091E00E94840788E690E00E9486078BEB93
:101C300091E00E94840780EC93E00E94270360E01B
:101C400089E00E94BA0A8FE793E00E94860780EC41
:101C500093E00E94270362E0809170040E94BA0A18
:101C60000E94410CDC01CB01805D9740A109B109C4
:101C70008093740490937504A0937604B0937704D2
:101C800087E380937D0480EC91E00E94840780ECE0
:101C900093E00E94270385EC91E00E94840780EC8A
:101CA00093E00E94270383E280935D0401E00093A8
:101CB000BC038093BE031092BD031092BF038091BA
:101CC000650490916604DC01ED91FC910190F08136
:101CD000E02D60E1099580916504909166040E9471
:101CE0001B0B182F6AE070E080E090E00E94070C68
:101CF000123009F486C040F4112379F0113009F054
:101D000086C082E593E092C0133009F47DC01430A0
:101D100009F07DC08FEC92E089C080E190E0909363
:101D20006404809363040E94410C60936704709381
:101D300068048093690490936A0480915D04009321
:101D4000BC038093BE031092BD031092BF0362E4F4
:101D500070E080916504909166040E94C5088091AE
:101D60006504909166040E941B0B182F80915D04FE
:101D70000093BC038093BE031092BD031092BF0377
:101D800065E670E080916504909166040E94C50844
:101D900080916504909166040E941B0B182B809122
:101DA0005D040093BC038093BE031092BD031092A8
:101DB000BF03609163047091640480916504909105
:101DC00066040E94C50880916504909166040E9493
:101DD0001B0B182B6AE070E080E090E00E94070C7B
:101DE0001230E1F038F41123A9F01130E9F482E85F
:101DF00092E01CC01330A9F01430B1F48FEF91E0E1
:101E000015C08DE193E012C08BEE92E00FC08FEA17
:101E100092E00CC085E480935E040AC08DE492E0F9
:101E200005C08BE192E002C08FED91E00E94A10716
:101E300080EC91E00E94840780EC93E00E942703ED
:101E400060E08DE00E94CC0894E5A92E91E0B92EC7
:101E5000CC24CA94DC2C2FE7E22EFE2C36E4832E11
:101E600031E0932E61E08DE00E94CC0880EC93E09D
:101E70000E948607809181048B83BA82A982809117
:101E80008204909183049D838C838091840490913B
:101E90008504A0918604B09187048E839F83A887D0
:101EA000B9876DE373E0CE0101960E94D40380915F
:101EB00081048B83BA82A9828091820490918304E9
:101EC0009D838C838091840490918504A0918604E5
:101ED000B09187048E839F83A887B98769E173E0F7
:101EE000CE0101960E94E60440902D0350902E03EF
:101EF00060902F0370903003A3019201C301B201DF
:101F00000E941D15811114C020E030E040E252EC27
:101F1000C301B2010E94BE1287FD0AC020E030E07A
:101F200040EA52E4C301B2010E94181518166CF47D
:101F3000C0920A03D0920B03E0920C03F0920D03BF
:101F400086E692E00E94840717C040920A035092EE
:101F50000B0360920C0370920D0389E892E00E94DB
:101F6000840760910A0370910B0380910C03909198
:101F70000D0342E00E94AF0780EC93E00E9427032C
:101F800080918A048B839A82898280918B049091BC
:101F90008C049D838C8380918D0490918E04A091FC
:101FA0008F04B09190048E839F83A887B9876DE3D7
:101FB00073E0CE0101960E94560380918A048B83C0
:101FC0009A82898280918B0490918C049D838C836A
:101FD00080918D0490918E04A0918F04B091900413
:101FE0008E839F83A887B98769E173E0CE0101964C
:101FF0000E94670440902D0350902E0360902F03A1
:1020000070903003A3019201C301B2010E941D151B
:10201000811113C020E030E0A901C301B2010E9488
:10202000BE1287FD0AC020E030E048EC52E4C30154
:10203000B2010E94181518166CF4C0920E03D092CB
:102040000F03E0921003F092110385EA92E00E94E0
:10205000840717C040920E0350920F036092100342
:102060007092110385EC92E00E94840760910E0348
:1020700070910F03809110039091110342E00E9430
:10208000AF0780EC93E00E94270380916304909156
:102090006404892B49F48DE993E00E94A10760E074
:1020A00070E080E090EC3FC100915D040E94F60A70
:1020B0002B013C011091B603112339F18091B80333
:1020C0009091B903A091BA03B091BB03892B8A2BDD
:1020D0008B2B81F30E94F60A2091B8033091B9034B
:1020E0004091BA035091BB03DC01CB0184199509DF
:1020F000A609B709281739074A075B07D8F6809160
:10210000B7030E94190910E08FC081E08093B603E5
:102110008093B503BFEFB093B4031092B3038093E1
:10212000B2038093910380919103000F082B0093D9
:10213000910380919003813099F5109290030E9451
:10214000F60A2B013C01809191038093BB008091A2
:10215000B8039091B903A091BA03B091BB03892B46
:102160008A2B8B2BA9F00E94F60A2091B80330919C
:10217000B9034091BA035091BB03DC01CB01841930
:102180009509A609B709281739074A075B07A0F17F
:102190008091BC0083FDD7CF85EC8093BC0003C049
:1021A00095EE9093BC000E94F60A2B013C018091B1
:1021B000B603813031F58091B8039091B903A091B5
:1021C000BA03B091BB03892B8A2B8B2B81F30E941E
:1021D000F60A2091B8033091B9034091BA035091A7
:1021E000BB03DC01CB0184199509A609B70928179F
:1021F00039074A075B07D8F68091B7030E9419098F
:1022000013C08091B303823018F48091B30301C0EE
:1022100082E0E2E9F3E0AEE6B3E010E0181721F067
:1022200091919D931F5FFACF10928F0310938E03AD
:10223000123011F58091650490916604DC01ED91F6
:10224000FC910284F385E02D0995382E212C809194
:10225000650490916604DC01ED91FC910284F385A4
:10226000E02D099582299329BC0180E090E00E942D
:10227000C3122B013C0106C0412C512C80E8682E72
:102280008FEB782E0E94410C609367047093680472
:102290008093690490936A0420E030E040E85FEBAB
:1022A000C301B2010E94BE128823C9F160915E048D
:1022B0006534A9F070E080E090E00E94C3129B01B9
:1022C000AC0160E070E08AE892E40E9477149B0120
:1022D000AC01C301B2010E9424132B013C01809187
:1022E0006304909164048132910511F0419751F497
:1022F00020E030E040E05FE3C301B2010E9424131C
:102300002B013C0120915F043091600440916104F5
:1023100050916204C301B2010E94771404C060E0CE
:1023200070E080E89FEB0E94E9142B013C0180E003
:1023300090E00E94C3129B01AC010E941D158823EE
:1023400059F08FEF9FEF909313038093120385EE64
:1023500091E00E94840711C050921303409212032F
:1023600084E092E00E94840760911203709113034D
:1023700080E090E04AE00E94430780EC93E00E94F6
:10238000270390E490937C0080917A00806480938E
:102390007A0080917A0086FDFCCF009178008091D0
:1023A000790010E0182B2801612C712CC301B201B7
:1023B0000E94C3129B01AC010E941D15882329F0C5
:1023C0008CE192E00E9484072DC00339A4E01A0733
:1023D00020F0BCE0B093140310C0E6E0F1E080E030
:1023E00090E0219131912017310718F08093140368
:1023F00004C001968C309105A1F782E492E00E941E
:1024000084074AE0C301B2010E94430781E692E0DB
:102410000E9484076091140370E080E090E04AE03D
:102420000E94430780EC93E00E94270360E08DE068
:102430000E94CC0868E873E180E090E00E94070CFD
:102440000E9449030FCDCF93DF93C5EFD4E01B82E9
:102450001A8288EE93E0A0E0B0E08C839D83AE8387
:10246000BF8322E231E039832883E0ECF3E013827A
:10247000128284839583A683B78384E391E091835A
:10248000808385EC90E09587848784EC90E0978743
:10249000868780EC90E0918B808B81EC90E0938B31
:1024A000828B82EC90E0958B848B86EC90E0978B0E
:1024B000868B118E128E138E148EABE6B4E089E0FB
:1024C00015968C93159786E116968C931697E4E2F1
:1024D000F4E0E4911796EC931797E0E1F4E0E491CF
:1024E0001896EC93189740E85EE360E070E01D9664
:1024F0004D935D936D937C93509753968C93539724
:1025000084E591E055969C938E9354970A2E1B2E4A
:1025100058961C920E92112457974FEF5FEFBA0115
:1025200059964D935D936D937C935C9786E491E00F
:102530005E969C938E935D970A2E1B2E91961C920D
:102540000E921124909792964D935D936D937C9388
:102550009597EDE5F4E085E481838AE999E9A9E9B5
:10256000BFE382839383A483B5831782168283E2B9
:102570008083D187C087DF91CF9108950E94001397
:1025800008F481E00895E89409C097FB3EF4909523
:102590008095709561957F4F8F4F9F4F9923A9F03C
:1025A000F92F96E9BB279395F695879577956795CB
:1025B000B795F111F8CFFAF4BB0F11F460FF1BC00F
:1025C0006F5F7F4F8F4F9F4F16C0882311F096E9A2
:1025D00011C0772321F09EE8872F762F05C0662350
:1025E00071F096E8862F70E060E02AF09A95660F09
:1025F000771F881FDAF7880F9695879597F90895C2
:10260000990F0008550FAA0BE0E8FEEF1616170603
:10261000E807F907C0F012161306E407F50798F06B
:10262000621B730B840B950B39F40A2661F0232B84
:10263000242B252B21F408950A2609F4A140A69500
:102640008FEF811D811D08950E9437130C94A813EC
:102650000E949A1338F00E94A11320F0952311F0E4
:102660000C9491130C94971311240C94DC130E9476
:10267000B91370F3959FC1F3950F50E0551F629FFA
:10268000F001729FBB27F00DB11D639FAA27F00DCB
:10269000B11DAA1F649F6627B00DA11D661F829FF2
:1026A0002227B00DA11D621F739FB00DA11D621FD7
:1026B000839FA00D611D221F749F3327A00D611DF4
:1026C000231F849F600D211D822F762F6A2F1124D6
:1026D0009F5750409AF0F1F088234AF0EE0FFF1F09
:1026E000BB1F661F771F881F91505040A9F79E3F60
:1026F000510580F00C9491130C94DC135F3FE4F3CC
:10270000983ED4F3869577956795B795F795E795B5
:102710009F5FC1F7FE2B880F911D9695879597F9BE
:10272000089597F99F6780E870E060E008959FEF53
:1027300080EC089500240A94161617061806090658
:10274000089500240A941216130614060506089527
:10275000092E0394000C11F4882352F0BB0F40F4AF
:10276000BF2B11F460FF04C06F5F7F4F8F4F9F4FEF
:10277000089557FD9058440F551F59F05F3F71F071
:102780004795880F97FB991F61F09F3F79F08795D8
:102790000895121613061406551FF2CF4695F1DF61
:1027A00008C0161617061806991FF1CF86957105F1
:1027B000610508940895E894BB2766277727CB0125
:1027C00097F90895A1E21A2EAA1BBB1BFD010DC0AB
:1027D000AA1FBB1FEE1FFF1FA217B307E407F507D1
:1027E00020F0A21BB30BE40BF50B661F771F881FAD
:1027F000991F1A9469F760957095809590959B0143
:10280000AC01BD01CF010895EE0FFF1F0590F491BB
:10281000E02D09945058BB27AA270E9422140C943B
:10282000A8130E949A1338F00E94A11320F039F4E3
:102830009F3F19F426F40C9497130EF4E095E7FBF0
:102840000C949113E92F0E94B91358F3BA17620739
:1028500073078407950720F079F4A6F50C94DB1331
:102860000EF4E0950B2EBA2FA02D0B01B9019001AB
:102870000C01CA01A0011124FF27591B99F0593FEF
:1028800050F4503E68F11A16F040A22F232F342F37
:102890004427585FF3CF469537952795A795F04085
:1028A0005395C9F77EF41F16BA0B620B730B840B9A
:1028B000BAF09150A1F0FF0FBB1F661F771F881F52
:1028C000C2F70EC0BA0F621F731F841F48F48795AA
:1028D00077956795B795F7959E3F08F0B0CF93959C
:1028E000880F08F09927EE0F9795879508950E9415
:1028F0008B140C94A8130E94A11358F00E949A13F1
:1029000040F029F45F3F29F00C94911351110C947D
:10291000DC130C9497130E94B91368F39923B1F355
:10292000552391F3951B550BBB27AA2762177307F5
:10293000840738F09F5F5F4F220F331F441FAA1F89
:10294000A9F335D00E2E3AF0E0E832D09150504045
:10295000E695001CCAF72BD0FE2F29D0660F771FF3
:10296000881FBB1F261737074807AB07B0E809F0D9
:10297000BB0B802DBF01FF2793585F4F3AF09E3F5E
:10298000510578F00C9491130C94DC135F3FE4F341
:10299000983ED4F3869577956795B795F7959F5FA1
:1029A000C9F7880F911D9695879597F90895E1E0ED
:1029B000660F771F881FBB1F621773078407BA074C
:1029C00020F0621B730B840BBA0BEE1F88F7E095A7
:1029D00008950E94C11388F09F5798F0B92F992746
:1029E000B751B0F0E1F0660F771F881F991F1AF0FA
:1029F000BA95C9F714C0B13091F00E94DB13B1E071
:102A000008950C94DB13672F782F8827B85F39F06F
:102A1000B93FCCF3869577956795B395D9F73EF492
:102A200090958095709561957F4F8F4F9F4F08953A
:102A30000E94001308F48FEF08950E940013880B82
:102A4000990B08950F931F93CF93DF9382309105D5
:102A500010F482E090E0E0910305F091040520E09D
:102A600030E0A0E0B0E0309719F14081518102815F
:102A7000138148175907C8F08417950769F4109710
:102A800031F012960C93129713961C9327C0009363
:102A900003051093040522C02115310519F04217D2
:102AA000530718F49A01BD01EF01DF01F801DBCFF4
:102AB00021153105F9F0281B390B2430310580F43C
:102AC0008A819B816115710521F0FB0193838283CB
:102AD00004C09093040580930305FE01329644C020
:102AE000FE01E20FF31F8193919322503109398344
:102AF00028833AC02091010530910205232B41F42F
:102B000020910201309103013093020520930105C9
:102B100020910001309101012115310541F42DB7BB
:102B20003EB74091040150910501241B350BE09103
:102B30000105F0910205E217F307A0F42E1B3F0BED
:102B40002817390778F0AC014E5F5F4F241735071F
:102B500048F04E0F5F1F509302054093010581938B
:102B6000919302C0E0E0F0E0CF01DF91CF911F919F
:102B70000F910895CF93DF93009709F481C0FC0172
:102B8000329713821282A0910305B0910405109729
:102B900081F420813181820F931F209101053091B2
:102BA00002052817390751F5F0930205E093010556
:102BB00067C0ED0120E030E0CE17DF0740F44A8126
:102BC0005B819E0141155105F1F0EA01F5CFD383F8
:102BD000C28340815181840F951FC817D90759F4CA
:102BE00088819981840F951F0296918380838A81C1
:102BF0009B81938382832115310529F4F093040589
:102C0000E09303053DC0E901FB83EA8349915991B3
:102C1000C40FD51FEC17FD0761F480819181840FEB
:102C2000951F0296E90199838883828193819B8312
:102C30008A83E0E0F0E012968D919C9113970097C3
:102C400019F0FD01DC01F7CF8D919C9111979D0149
:102C50002E5F3F4F820F931F209101053091020597
:102C60002817390769F4309729F410920405109257
:102C7000030502C013821282B0930205A0930105DE
:102C8000DF91CF91089581E090E0F8940C9457166D
:102C9000FB01DC014150504048F001900D920020B2
:102CA000C9F701C01D9241505040E0F70895F894D3
:022CB000FFCF54
:102CB2000000050520003200E3003E019801F70103
:102CC2005E02B8021B037103D003370492040000B2
:102CD20000000207D5066E02A906CD06B906AA06AD
:102CE20000000000DA02430271022703A2028002FE
:102CF20094020000000042069C0553036704560339
:102D02000000000043069E055303E604D4030000BE
:102D12000000000000005303540354034172647521
:102D2200696E6F2050726F204D696E692041746D1B
:102D3200656761333238702035562031364D487A16
:102D4200004C6F5261202D20524846304D303033B6
:102D520000312E302E300044485432322C20475954
:102D620033302C2055564D333041006E6F6E650066
:102D72005B4F4B5D000A09496E697469616C697A3F
:102D8200696E67206C696768742073656E736F7211
:102D92002E2E2E20000A094572726F722072656112
:102DA20064696E67206C69676874206C6576656C0F
:102DB200212121000A094C756D696E6F736974795E
:102DC2002028696E204C5558293A20000A0945727C
:102DD200726F722072656164696E67205556207247
:102DE2006164696174696F6E20696E64657821211E
:102DF20021000A09555620726164696174696F6E17
:102E02002028696E20555620696E646578293A201B
:102E120000203D3E20000A094572726F72207265E1
:102E22006164696E67206169722074656D70657294
:102E32006174757265212121000A09416972207449
:102E4200656D70657261747572652028696E206F98
:102E520043293A20000A094572726F722072656135
:102E620064696E67206169722068756D696469744E
:102E720079212121000A094169722068756D69640E
:102E82006974792028696E2025293A20000D0A00EC
:102E92006E616E00696E66006F766600444854315A
:102EA20031004448543132004448543231004448DD
:0A2EB200543232004448543F00003F
:00000001FF
