:100000000C9462000C948A000C948A000C948A0070
:100010000C948A000C948A000C948A000C948A0038
:100020000C948A000C948A000C948A000C948A0028
:100030000C948A000C948A000C948A000C948A0018
:100040000C9470080C948A000C94E0080C94BA0884
:100050000C948A000C948A000C948A000C948A00F8
:100060000C9446070C948A0000000000240027002E
:100070002A0000000000250028002B0000000008D6
:10008000000201000003040700000000000000005F
:1000900000000000230026002900040404040404D6
:1000A0000404020202020202030303030303010227
:1000B00004081020408001020408102001020408F6
:1000C0001020120911241FBECFEFD8E0DEBFCDBF34
:1000D00024E0A2EAB3E001C01D92AD3FB207E1F710
:1000E00013E0A0E0B1E0E4EDFAE102C005900D926A
:1000F000A23AB107D9F710E0C2E6D0E004C02197D8
:10010000FE010E94C00BC136D107C9F70E94AD099C
:100110000C94680D0C940000CF92DF92EF92FF9246
:100120001F93CF93DF93EC011F81662311F0912F72
:1001300001C090E0288530E0220F331F20573F4F49
:10014000A0E0B0E0F90145915491FA01808181234A
:10015000AD0160E070E089130FC01196CD84DE849C
:10016000EF84F8884C155D056E057F0558F33FEF69
:100170002FEF8FEF9FEF03C03A2F252FCB01632F77
:10018000722FDF91CF911F91FF90EF90DF90CF9072
:100190000895FB01DC0153968C918C3041F038F4CA
:1001A0008B3029F480E492E4AFE0B0E004C080E852
:1001B00094E8AEE1B0E084A395A3A6A3B7A3089505
:1001C0004091CE03262F30E0240F311D213231051E
:1001D000DCF42091F2032430C9F4FC0180E090E0CB
:1001E000861758F43091CE032191DC01A255BC4F03
:1001F000A30FB11D2C930196F3CF8091CE03680F0E
:100200006093CE0380E0089581E0089582E0089530
:1002100008958FEF9FEF08958FEF9FEF08958091DE
:10022000A70390E09195819591090895CF93DF936D
:10023000CB01EA01642F0E94E000CE01DF91CF9153
:100240000895CF93DF931F92CDB7DEB7698361E046
:10025000CE0101960E94E00081E090E00F90DF91D6
:10026000CF91089590E0FC01E458FF4F2491FC01E8
:10027000E255FF4F3491FC01E656FF4FE491EE2327
:1002800009F43CC0222339F1233091F038F42130B5
:10029000A9F0223001F584B58F7D12C0273091F08E
:1002A0002830A1F02430B9F4809180008F7D03C004
:1002B000809180008F77809380000DC084B58F7708
:1002C00084BD09C08091B0008F7703C08091B000D9
:1002D0008F7D8093B000F0E0EE0FFF1FEE58FF4FD0
:1002E000A591B4919FB7F894611104C08C91309599
:1002F000382302C0EC913E2B3C939FBF0895CF93CF
:10030000DF9390E0FC01E255FF4F2491FC01E6569B
:10031000FF4F8491882361F190E0880F991FFC01C1
:10032000E859FF4FC591D491FC01EE58FF4FA591BC
:10033000B491611109C09FB7F894888120958223F8
:100340008883EC912E230BC0623061F49FB7F89440
:100350008881322F309583238883EC912E2B2C9328
:100360009FBF06C08FB7F894E8812E2B28838FBFDC
:10037000DF91CF9108953FB7F8948091A3039091B6
:10038000A403A091A503B091A60326B5A89B05C020
:100390002F3F19F00196A11DB11D3FBFBA2FA92F04
:1003A000982F8827820F911DA11DB11DBC01CD0181
:1003B00042E0660F771F881F991F4A95D1F708956D
:1003C0008F929F92AF92BF92CF92DF92EF92FF9265
:1003D0006B017C010E94BB014B015C01C114D10483
:1003E000E104F104F1F00E94BB01DC01CB018819AA
:1003F0009909AA09BB09883E9340A105B10570F38C
:1004000021E0C21AD108E108F10888EE880E83E0E5
:10041000981EA11CB11CC114D104E104F10419F708
:10042000DDCFFF90EF90DF90CF90BF90AF909F9087
:100430008F9008958F929F92AF92BF92CF92DF924A
:10044000EF92FF920F931F93CF93DF93CDB7DEB759
:10045000C054D1400FB6F894DEBF0FBECDBF2FB74A
:10046000F894409118045091190460911A04709105
:100470001B042FBFFC0101851285238534856A0189
:100480007B01C01AD10AE20AF30AE0EDCE16E7E0DA
:10049000DE06E104F10418F4FC018189C2C08C017C
:1004A000FC0141875287638774871482138212820A
:1004B0001182108262E085810E947F0161E070E01C
:1004C00080E090E00E94E00161E0F80185810E94F7
:1004D0007F0160E0F80185810E943201F801868188
:1004E0008551823028F48BE291E10197F1F706C043
:1004F00064E170E080E090E00E94E00162E0F801D9
:1005000085810E947F01F801828990E08230910507
:1005100038F0880F991F880F991F05970197F1F7F9
:10052000F89460E0C8010E948C006F3F7F4F8F4FAE
:100530009F4F21F4F801118A789444C061E0C8010A
:100540000E948C006F3F7F4F8F4F9F4F99F3CE01DA
:1005500001967C015E019FEBA91A9EEFB90A670123
:1005600060E0C8010E948C00F60160837183828381
:10057000938361E0C8010E948C00F6016483758357
:1005800086839783F8E0CF0ED11CCA14DB0441F7B1
:10059000789420E030E0F70180809180A280B380E1
:1005A0004481558166817781FFEF8F169F06AF06E4
:1005B000BF0631F04F3F8FEF58076807780721F4E7
:1005C000F801118A80E02DC0F90183E0F595E795E7
:1005D0008A95E1F7E00FF11F8081880F8416950658
:1005E000A606B70608F4816080832F5F3F4FF8E0CE
:1005F000EF0EF11C2832310571F6F801248130E04C
:100600004081818190E0840F911D4281840F911D72
:100610004381840F911D99272817390789F681E0B6
:10062000818BC05CDE4F0FB6F894DEBF0FBECDBF2E
:10063000DF91CF911F910F91FF90EF90DF90CF90BE
:10064000BF90AF909F908F900895CF92DF92EF92DE
:10065000FF920F931F93CF93DF936C017A018B016D
:10066000C0E0D0E0CE15DF0581F0D8016D918D019D
:10067000D601ED91FC910190F081E02DC601099524
:10068000892B11F02196EECF7E01C701DF91CF912A
:100690001F910F91FF90EF90DF90CF9008950895F4
:1006A00080E090E00895FC01538D448D252F30E0CB
:1006B000842F90E0821B930B541710F0CF9608956F
:1006C00001970895FC01918D828D981761F0828DBC
:1006D000DF01A80FB11D5D968C91928D9F5F9F7376
:1006E000928F90E008958FEF9FEF0895FC01918D18
:1006F000828D981731F0828DE80FF11D858D90E085
:1007000008958FEF9FEF0895FC01918D228D892F21
:1007100090E0805C9F4F821B91098F739927089509
:100720008CE194E00E94840321E0892B09F420E00D
:10073000822F0895FC01848DDF01A80FB11DA35AFB
:10074000BF4F2C91848D90E001968F739927848FF1
:10075000A689B7892C93A089B1898C918370806414
:100760008C93938D848D981306C00288F389E02DB5
:1007700080818F7D80830895EF92FF920F931F9366
:10078000CF93DF93EC0181E0888F9B8D8C8D981344
:1007900005C0E889F989808185FD26C0F62E0B8D7C
:1007A00010E00F5F1F4F0F731127E02E8C8DE812A2
:1007B0000CC00FB607FCFACFE889F989808185FF64
:1007C000F5CFCE010E949A03F1CF8B8DFE01E80F89
:1007D000F11DE35AFF4FF0829FB7F8940B8FEA891F
:1007E000FB89808180620AC09FB7F894EE89FF89F7
:1007F0006083E889F98980818370806480839FBFEA
:1008000081E090E0DF91CF911F910F91FF90EF90E9
:100810000895CF93DF93EC01888D8823C9F0EA898E
:10082000FB89808185FD05C0A889B9898C9186FDE9
:100830000FC00FB607FCF5CF808185FFF2CFA889E6
:10084000B9898C9185FFEDCFCE010E949A03E7CF45
:10085000DF91CF91089580E090E0892B29F00E94EC
:10086000900381110C94000008950895089508954F
:10087000009769F0FC0101900020E9F73197AF0182
:10088000481B590BBC018CE194E00C94250380E0DB
:1008900090E00895CF93DF93EB01FC0183898C30C6
:1008A00089F038F48B30C1F44BE050E066E471E03D
:1008B00017C0853161F0863179F44BE050E068E58E
:1008C00071E00EC04BE050E06CE471E009C04BE019
:1008D00050E062E571E004C04BE050E06EE571E08D
:1008E000CE010E94590D1B86DF91CF9108951F9371
:1008F000CF93DF9385ED8093BC008091AA03909104
:10090000AB03A091AC03B091AD030796A11DB11D3F
:1009100023E0B695A795979587952A95D1F72091CD
:10092000BC0024FF53C04091AA035091AB036091D7
:10093000AC037091AD03452B462B472B81F30097F9
:10094000A105B10541F025E32A95F1F700000197D3
:10095000A109B109E4CF8091A903C1E0C093A80324
:100960008823B1F1D091B8001091BA008091BC00F9
:100970008A7B8093BC0060E082E10E94320160E0EB
:1009800083E10E9432011092F203C093F4031092AB
:10099000F30361E082E10E94320161E083E10E94A1
:1009A00032018091B9008E7F8093B9008091B900A7
:1009B0008D7F8093B90088E48093B80085E48093AC
:1009C000BC001093BA00D093B80002C01092F2039A
:1009D000DF91CF911F9108950E94540D0F931F93A3
:1009E000CF93DF938C01EB0188E2DB011D928A95A6
:1009F000E9F7F801838194810E944A0481E090E044
:100A0000A0E0B0E08C879D87AE87BF87F801858125
:100A10009681A781B085888B998BAA8BBB8B8CE044
:100A200090E0A0E0B0E08C8B9D8BAE8BBF8BBE01C5
:100A3000838194810E94C900D8011396ED91FC91A5
:100A4000149783898C3069F038F48B30A1F580E0FD
:100A500090E0A0EAB2E409C08531C1F08631B1F07E
:100A60002AC080E090E0AEEBB2E4888F998FAA8F25
:100A7000BB8F80E090E0A0EAB1E48C8F9D8FAE8FB9
:100A8000BF8F80E090E0A0EAB0E410C080E090E08A
:100A9000A8ECB2E4888F998FAA8FBB8F1C8E1D8E15
:100AA0001E8E1F8E8DEC9CECACECBDE388A399A34D
:100AB000AAA3BBA30CC0188E198E1A8E1B8E1C8E77
:100AC0001D8E1E8E1F8E18A219A21AA21BA2DF91C4
:100AD000CF911F910F910895CF92DF92EF92FF92E5
:100AE0000F931F93CF93DF93EB0124E2FB0111924D
:100AF0002A95E9F744E250E060E070E048835983CA
:100B00006A837B83FC0145815681678170854C83B4
:100B10005D836E837F834CE050E060E070E0488747
:100B200059876A877B872FB7F894409118045091B2
:100B3000190460911A0470911B042FBF488B598BC4
:100B40006A8B7B8B03811481C8010E941A0288235F
:100B5000B9F1F80186818B3098F18D30A0F0855184
:100B6000823070F5F80160817181762767277627DA
:100B700080E090E00E94C50A2DEC3CEC4CEC5DE37B
:100B80000E94020B21C0F801618170E080E090E0DA
:100B90000E94C70A2DEC3CEC4CEC5DE30E94020B7A
:100BA0006B017C01F801608170E080E090E00E94C0
:100BB000C70A9B01AC01C701B6010E94C70B04C064
:100BC00060E070E080EC9FE76C8B7D8B8E8B9F8B61
:100BD00081E0DF91CF911F910F91FF90EF90DF9017
:100BE000CF9008950F931F93CF93DF938C01EB0168
:100BF00088E2DB011D928A95E9F7F80183819481EF
:100C00000E944A0481E090E0A0E0B0E08C879D87DC
:100C1000AE87BF87F80185819681A781B085888BD3
:100C2000998BAA8BBB8B8DE090E0A0E0B0E08C8B21
:100C30009D8BAE8BBF8BBE01838194810E94C900C6
:100C4000D8011396ED91FC91149783898C30F1F0C3
:100C5000A0F48B3009F048C080E090E0A8E4B2E452
:100C6000888F998FAA8FBB8F1C8E1D8E1E8E1F8E14
:100C700080E090E0A0E0B0E432C08531E1F0863160
:100C800099F580E090E0AAEFB2E419C080E090E02E
:100C9000A0E7B2E4888F998FAA8FBB8F80E090E0A5
:100CA000A0EAB1EC8C8F9D8FAE8FBF8F80E090E07B
:100CB000A0E0BFE314C080E090E0A0EAB2E4888F37
:100CC000998FAA8FBB8F80E090E0A0E2B2EC8C8F6E
:100CD0009D8FAE8FBF8F8DEC9CECACECBDE388A3F9
:100CE00099A3AAA3BBA30CC0188E198E1A8E1B8EB3
:100CF0001C8E1D8E1E8E1F8E18A219A21AA21BA258
:100D0000DF91CF911F910F9108958F929F92AF9293
:100D1000BF92EF92FF921F93CF93DF93EB0124E2F8
:100D2000FB0111922A95E9F744E250E060E070E09F
:100D3000488359836A837B83FC014581568167819F
:100D400070854C835D836E837F834DE050E060E06F
:100D500070E0488759876A877B872FB7F89440915E
:100D600018045091190460911A0470911B042FBF4C
:100D7000488B598B6A8B7B8BE380F480C7010E9480
:100D80001A02882309F46BC0F70186818C3009F4BC
:100D900045C018F48B30C9F062C08551823008F02C
:100DA0005EC0F7011281612F6F7770E0762F6627A2
:100DB0008381682B80E090E00E94C50A2DEC3CEC1A
:100DC0004CEC5DE30E94020B46C0F701628170E0CB
:100DD00080E090E00E94C50A4B015C01F70113819D
:100DE00017FF0AC09B01AC0160E070E080E89FEB58
:100DF0000E94C60B4B015C01612F6F7070E080E0B8
:100E000090E00E94C70A2DEC3CEC4CEC5DE30E94A4
:100E1000020BA50194010E94C70B25C0F7011281A6
:100E200063816F7070E080E090E00E94C70A2DEC53
:100E30003CEC4CEC5DE30E94020B4B015C01612F2A
:100E400070E080E090E00E94C50A9B01AC01C50102
:100E5000B4010E94C70B17FF06C0905804C060E0A1
:100E600070E080EC9FE76C8B7D8B8E8B9F8B81E09D
:100E7000DF91CF911F91FF90EF90BF90AF909F9027
:100E80008F9008950C94CB0C0C94CB0C1F920F9266
:100E90000FB60F9211242F933F934F935F936F934D
:100EA0007F938F939F93AF93BF93EF93FF93809123
:100EB000B900887F803609F49CC068F5883209F44F
:100EC0005BC090F4803109F454C038F4882309F4ED
:100ED000F2C0883009F44DC0F2C0883109F44CC02A
:100EE000803209F45DC0EBC0803409F468C048F476
:100EF000803309F455C0883309F0E1C08093F103D1
:100F0000D4C0803509F44FC0883509F45DC08834F9
:100F100009F0D5C0D2C0883909F4C3C0A8F4883715
:100F200009F467C038F4883609F463C0803709F4DF
:100F300060C0C5C0883809F4B4C0803909F45FC006
:100F4000803809F0BCC05BC0803B09F484C038F431
:100F5000803A09F466C0883A09F47DC0B0C0803C8C
:100F600009F4A3C0883C09F4A0C0883B09F486C0FA
:100F7000A6C08091170410C09091160480911504AA
:100F8000981770F5E091160481E08E0F8093160497
:100F9000F0E0EB50FC4F80818093BB0085EC82C079
:100FA0008093F1038AC0E091160481E08E0F809354
:100FB00016048091BB00F0E0EB50FC4F80839091D1
:100FC0001604809115046AC0E091160481E08E0F2A
:100FD000809316048091BB00F0E0EB50FC4F8083BF
:100FE0008091F403811169C081E08093F30384EA66
:100FF0005DC083E08093F2031092F003CFCF809125
:10100000F003803208F04DC0E091F00381E08E0FD4
:101010008093F0038091BB00F0E0E053FC4F8083AD
:10102000BDCF85EC8093BC001092F2038091F00359
:10103000803230F4E091F003F0E0E053FC4F108296
:101040006091F00370E080ED93E0E0E0F0E009955E
:101050001092F00334C084E08093F2031092CF0327
:101060001092CE03E0E0F0E009958091CE0381116B
:1010700005C081E08093CE031092AE03E091CF03D0
:1010800081E08E0F8093CF03F0E0E255FC4F80812A
:101090008093BB009091CF038091CE03981708F402
:1010A0007DCF85E88093BC000AC085EC8093BC00AE
:1010B0001092F20304C01092F1030E947704FF9192
:1010C000EF91BF91AF919F918F917F916F915F91C0
:1010D0004F913F912F910F900FBE0F901F90189539
:1010E0001F920F920FB60F9211242F933F938F935D
:1010F0009F93AF93BF938091180490911904A0918E
:101100001A04B0911B043091A20323E0230F2D3762
:1011100020F40196A11DB11D05C026E8230F0296FB
:10112000A11DB11D2093A20380931804909319046C
:10113000A0931A04B0931B048091A3039091A4037D
:10114000A091A503B091A6030196A11DB11D8093A6
:10115000A3039093A403A093A503B093A603BF9108
:10116000AF919F918F913F912F910F900FBE0F9054
:101170001F9018951F920F920FB60F9211242F9364
:101180003F934F935F936F937F938F939F93AF930F
:10119000BF93EF93FF938CE194E00E949A03FF9139
:1011A000EF91BF91AF919F918F917F916F915F91DF
:1011B0004F913F912F910F900FBE0F901F90189558
:1011C0001F920F920FB60F9211242F938F939F931C
:1011D000EF93FF93E0912C04F0912D048081E09136
:1011E0003204F091330482FD12C090818091350465
:1011F0008F5F8F7320913604821751F0E091350490
:10120000F0E0E45EFB4F958F8093350401C0808150
:10121000FF91EF919F918F912F910F900FBE0F90A3
:101220001F901895CF93DF93C9EBD4E01B821A82ED
:1012300088EE93E0A0E0B0E08C839D83AE83BF8313
:101240002AE031E039832883ECE1F4E01382128252
:1012500084839583A683B7838CE191E09183808317
:1012600085EC90E09587848784EC90E0978786876B
:1012700080EC90E0918B808B81EC90E0938B828B63
:1012800082EC90E0958B848B86EC90E0978B868B3C
:10129000118E128E138E148EA3EDB4E089E0159694
:1012A0008C93159786E116968C931697E7EBF0E0F2
:1012B000E4911796EC931797E3EAF0E0E49118961F
:1012C000EC93189740E85EE360E070E01D964D9364
:1012D0005D936D937C93509753968C9353978CE3C7
:1012E00091E055969C938E9354970A2E1B2E5896F8
:1012F0001C920E92112457974FEF5FEFBA01599647
:101300004D935D936D937C935C978EE291E05E9636
:101310009C938E935D970A2E1B2E91961C920E9293
:101320001124909792964D935D936D937C9395972E
:10133000E5ECF4E085E481838AE999E9A9E9BFE372
:1013400082839383A483B5831782168283E280838A
:10135000D187C087DF91CF910895789484B582605A
:1013600084BD84B5816084BD85B5826085BD85B549
:10137000816085BD80916E00816080936E001092C7
:101380008100809181008260809381008091810042
:1013900081608093810080918000816080938000D3
:1013A0008091B10084608093B1008091B000816031
:1013B0008093B00080917A00846080937A0080915D
:1013C0007A00826080937A0080917A0081608093B5
:1013D0007A0080917A00806880937A001092C10030
:1013E00061E08DE00E947F0161E08DE00E943201AA
:1013F000E0912C04F0912D0482E08083E091280498
:10140000F09129041082E0912A04F0912B0480E1EC
:10141000808310923404E0913004F091310486E02E
:101420008083E0912E04F0912F048081806180837D
:10143000E0912E04F0912F04808188608083E091F8
:101440002E04F0912F04808180688083E0912E0427
:10145000F0912F0480818F7D808383E691E00E944C
:10146000380480E991E00E9438048CEB91E00E94FE
:10147000380488EE91E00E94380484E691E00E94EE
:10148000380484E192E00E94380487E292E00E94EE
:10149000380482E492E00E94380487E692E00E94D9
:1014A000380482E892E00E94380485E992E00E94C4
:1014B000380480EB92E00E94380486EB92E00E94B0
:1014C000380481ED92E00E9438048FED92E00E9492
:1014D00038048AEF92E00E9438048CE194E00E9484
:1014E000090460E089E00E947F018FEF92E00E9492
:1014F00038048CE194E00E94090462E08091D804F1
:101500000E947F012FB7F8948091180490911904DC
:10151000A0911A04B0911B042FBF805D9740A109D0
:10152000B1098093DC049093DD04A093DE04B093B2
:10153000DF0487E38093E5048DE193E00E943804A3
:101540008CE194E00E94090460E08DE00E94320189
:1015500082E293E00E94380487E393E00E9438041B
:1015600083E593E00E9438048AE693E00E94380401
:1015700082E893E00E94380468EE73E080E090E037
:101580000E94E0010E942B04E3CFE89409C097FB7E
:101590003EF490958095709561957F4F8F4F9F4F4A
:1015A0009923A9F0F92F96E9BB279395F69587958E
:1015B00077956795B795F111F8CFFAF4BB0F11F451
:1015C00060FF1BC06F5F7F4F8F4F9F4F16C08823F8
:1015D00011F096E911C0772321F09EE8872F762F2E
:1015E00005C0662371F096E8862F70E060E02AF06F
:1015F0009A95660F771F881FDAF7880F969587955B
:1016000097F908950E94150B0C94860B0E94780B95
:1016100038F00E947F0B20F0952311F00C946F0B93
:101620000C94750B11240C94BA0B0E94970B70F359
:10163000959FC1F3950F50E0551F629FF001729F77
:10164000BB27F00DB11D639FAA27F00DB11DAA1F86
:10165000649F6627B00DA11D661F829F2227B00DD3
:10166000A11D621F739FB00DA11D621F839FA00D5E
:10167000611D221F749F3327A00D611D231F849FAE
:10168000600D211D822F762F6A2F11249F57504005
:101690009AF0F1F088234AF0EE0FFF1FBB1F661F80
:1016A000771F881F91505040A9F79E3F510580F049
:1016B0000C946F0B0C94BA0B5F3FE4F3983ED4F399
:1016C000869577956795B795F795E7959F5FC1F7ED
:1016D000FE2B880F911D9695879597F9089597F998
:1016E0009F6780E870E060E008959FEF80EC0895C8
:1016F00000240A94161617061806090608950024F1
:101700000A9412161306140605060895092E03946A
:10171000000C11F4882352F0BB0F40F4BF2B11F4DE
:1017200060FF04C06F5F7F4F8F4F9F4F089557FD3D
:101730009058440F551F59F05F3F71F04795880F3F
:1017400097FB991F61F09F3F79F0879508951216D6
:1017500013061406551FF2CF4695F1DF08C0161682
:1017600017061806991FF1CF869571056105089433
:101770000895E894BB2766277727CB0197F908954A
:10178000EE0FFF1F0590F491E02D09945058BB27F0
:10179000AA270E94DE0B0C94860B0E94780B38F06F
:1017A0000E947F0B20F039F49F3F19F426F40C942B
:1017B000750B0EF4E095E7FB0C946F0BE92F0E947C
:1017C000970B58F3BA17620773078407950720F041
:1017D00079F4A6F50C94B90B0EF4E0950B2EBA2F04
:1017E000A02D0B01B90190010C01CA01A001112427
:1017F000FF27591B99F0593F50F4503E68F11A16D3
:10180000F040A22F232F342F4427585FF3CF469563
:1018100037952795A795F0405395C9F77EF41F1685
:10182000BA0B620B730B840BBAF09150A1F0FF0F4F
:10183000BB1F661F771F881FC2F70EC0BA0F621F3B
:10184000731F841F48F4879577956795B795F7952B
:101850009E3F08F0B0CF9395880F08F09927EE0FC0
:101860009795879508950F931F93CF93DF938230B9
:10187000910510F482E090E0E091FB04F091FC040B
:1018800020E030E0A0E0B0E0309719F140815181D4
:101890000281138148175907C8F08417950769F426
:1018A000109731F012960C93129713961C9327C041
:1018B0000093FB041093FC0422C02115310519F09C
:1018C0004217530718F49A01BD01EF01DF01F80137
:1018D000DBCF21153105F9F0281B390B24303105F8
:1018E00080F48A819B816115710521F0FB0193834E
:1018F000828304C09093FC048093FB04FE01329623
:1019000044C0FE01E20FF31F8193919322503109ED
:10191000398328833AC02091F9043091FA04232BAB
:1019200041F420910201309103013093FA04209395
:10193000F90420910001309101012115310541F494
:101940002DB73EB74091040150910501241B350B82
:10195000E091F904F091FA04E217F307A0F42E1BCA
:101960003F0B2817390778F0AC014E5F5F4F241703
:10197000350748F04E0F5F1F5093FA044093F90467
:101980008193919302C0E0E0F0E0CF01DF91CF912D
:101990001F910F910895CF93DF93009709F481C0B1
:1019A000FC01329713821282A091FB04B091FC04D7
:1019B000109781F420813181820F931F2091F904C7
:1019C0003091FA042817390751F5F093FA04E0939F
:1019D000F90467C0ED0120E030E0CE17DF0740F4E6
:1019E0004A815B819E0141155105F1F0EA01F5CF75
:1019F000D383C28340815181840F951FC817D907B3
:101A000059F488819981840F951F02969183808370
:101A10008A819B81938382832115310529F4F09378
:101A2000FC04E093FB043DC0E901FB83EA83499198
:101A30005991C40FD51FEC17FD0761F48081918186
:101A4000840F951F0296E90199838883828193818F
:101A50009B838A83E0E0F0E012968D919C9113972E
:101A6000009719F0FD01DC01F7CF8D919C91119742
:101A70009D012E5F3F4F820F931F2091F9043091FB
:101A8000FA042817390769F4309729F41092FC04F6
:101A90001092FB0402C013821282B093FA04A09346
:101AA000F904DF91CF91089581E090E0F8940C94CF
:101AB000680DFB01DC014150504048F001900D924F
:101AC0000020C9F701C01D9241505040E0F7089531
:041AD000F894FFCFB8
:101AD4000000FD0420000000000021011601500355
:101AE40008010F010C01090100000000BC032503DB
:101AF40053030904840362037603000000003504E1
:101B0400440737046C05EE04000000003604420765
:101B140037048506F20544485431310044485431B1
:101B2400320044485432310044485432320044486C
:101B3400543F000A23232323232323232323232360
:101B44002323232323232323232323232323232361
:101B540023232323232323232323232323230A008D
:101B6400232020202020202020202020202020206E
:101B7400204154532D3031202020202020202020AB
:101B8400202020202020202020230A002320202081
:101B94004167726F546563682053746174696F6E32
:101BA400203031202854696E792076657273696F0C
:101BB4006E29202020230A002320202020202020FA
:101BC400204167726F546563684C616220284946FE
:101BD40053432F4C61676573292020202020202047
:101BE40020230A005374617274696E672041545350
:101BF4002D30312E2E2E000A094D43552064657672
:101C040069636520626F6172642E2E2E2E2E2E3A29
:101C1400200041726475696E6F2050726F204D69A7
:101C24006E692041746D65676133323870203556B2
:101C34002031364D487A000A09436F6D6D756E691F
:101C4400636174696F6E206465766963652E2E3AEC
:101C540020004C6F5261202D2052484637362D30DB
:101C64003532414D000A094669726D77617265200B
:101C740076657273696F6E2E2E2E2E2E2E3A2000EC
:101C8400312E302E30000A0953656E736F72206C4A
:101C94006973742E2E2E2E2E2E2E2E2E2E2E3A209C
:101CA4000044485432322C20424831373530000A3F
:101CB400094163747561746F72206C6973742E2E9C
:101CC4002E2E2E2E2E2E2E3A20006E6F6E65000ABA
:101CD40009496E697469616C697A696E6720444860
:101CE400542073656E736F722E2E2E20005B4F4B43
:101CF4005D000A52656164696E672073656E736F77
:101D040072732E2E2E2E000A094169722074656D9D
:101D140070657261747572652028696E206F43293D
:101D24003A20000A0941697220756D696469747901
:101D34002028696E2025293A20000A094C756D690E
:101D44006E6F736974792028696E204C5558293A4E
:101D540020000A09555620726164696174696F6EC6
:101D64002028696E20555620696E646578293A20CA
:021D740000006D
:00000001FF
